:10000000000001203D020000950200009702000060
:10001000990200009B0200009D0200000000000009
:100020000000000000000000000000009F0200002F
:10003000A102000000000000A3020000A5020000D1
:10004000A9020000AB020000B1170000AF020000DF
:10005000B1020000B3020000B5020000B7020000C8
:10006000B9020000BB020000BD020000BF02000098
:10007000C1020000C3020000C5020000C702000068
:10008000C9020000CB020000CD020000CF02000038
:10009000D1020000D3020000D5020000D702000008
:1000A000D9020000DB020000DD020000DF020000D8
:1000B000E1020000E3020000A7020000A702000026
:1000C000E5020000E7020000E9020000EB02000088
:0C00D000ED020000AD160000F10200007F
:1000DC00364937480A1A02D0072291438D463549D2
:1000EC0035480A1A06D00722914381F30988022267
:1000FC0082F3148831483249324A00F045F83248CC
:10010C003249334A00F040F832483349334A00F060
:10011C003BF833483349344A00F036F83348344915
:10012C00344A00F031F834483449354A00F02CF8A0
:10013C0034483549354A00F027F83548354900220E
:10014C0000F02DF834483549002200F028F83448E6
:10015C003449091A082903DB0022026004300160CB
:10016C00314A90471F482049884205D00268043024
:10017C0003B4904703BCF7E700208646EC4600200A
:10018C0000212A4A9047FEE7884207D0521A05D030
:10019C00037801300B700131013AF9D17047884274
:1001AC0002D002700130FAE7704700000000012015
:1001BC0000E000200000012000000120042E0000BF
:1001CC001800002050000020F4020000F40200008F
:1001DC00E4290000042E0000180000201800002064
:1001EC00442A0000442A0000442A0000442A00004B
:1001FC00442A0000442A0000442A0000442A00003B
:10020C00042E00003C2E0000500000205000002066
:10021C0050000020AF060020B0060020B0060020E1
:10022C00B0060020B02600206102000099240000D6
:10023C000F484FF00701884385460E4880470E480B
:10024C00016841F470010160BFF34F8FBFF36F8FF2
:10025C00FFF73EBF09480A490A4A884207D0521A9A
:10026C0005D0037801300B700131013AF9D1704798
:10027C0000000120A925000088ED00E02C2A0000D8
:10028C000000002018000020FEE7FEE7FEE7FEE776
:10029C00FEE7FEE7FEE7FEE7FEE7FEE7FEE7FEE72A
:1002AC00FEE7FEE7FEE7FEE7FEE7FEE7FEE7FEE71A
:1002BC00FEE7FEE7FEE7FEE7FEE7FEE7FEE7FEE70A
:1002CC00FEE7FEE7FEE7FEE7FEE7FEE7FEE7FEE7FA
:1002DC00FEE7FEE7FEE7FEE7FEE7FEE7FEE7FEE7EA
:0802EC00FEE7FEE7FEE700BF9C
:1002F400F0B595B01C4608460D46164600F0B5FF0D
:100304001A9B099400240D930822234605A9284624
:1003140008960A948DF82C400C9400F0E4FF079B97
:100324000293BDF81830ADF80C30BDF81A30ADF8B2
:100334000E309DF814308DF8114003F00302012AA9
:100344001DD1BDF81440059EC3F3C203C4F3831446
:100354008DF81030A20008230EA9284600F0C3FF30
:10036400C6F3952608AB0093224602AB0EA930468D
:1003740000F0CAFB284600F07CFF15B0F0BD022A4D
:10038400F8D1BDF81640C3F3C203C4F389148DF841
:1003940010300827082C264628BF08263B4632463C
:1003A4000EA9284600F09FFFA41B08AB02AA314601
:1003B4000EA8374400F00CFC002CEBD1DAE7000067
:1003C400014B01221A707047910000207047000011
:1003D40070B50E4D06460FCD88B06C460FC495E837
:1003E4000F0084E80F0008A9002E4FF00603084A06
:1003F40041F8203D08BF0022064800F0D3FF08B1B1
:1004040000F03CFC044B1E7008B070BD442A000090
:10041400C5030000180000205000002007B5044B5D
:100424000093044A4023FFF763FF03B05DF804FB25
:100434003D0400005100002038B50D4B0D4D002047
:1004440018700D4804782D5DD2B21C4665B1043095
:1004540001F0E6FD08B100F011FC084B1A7812B166
:100464002378002BFBD038BD0C3001F0CFFBF1E733
:100474009100002094050020180000205000002066
:1004840008B50848084A0378D35C3BB1043001F04E
:1004940063FD0020BDE80840FFF79ABF0C3001F06F
:1004A40051FBF6E718000020940500200120FFF717
:1004B4008FBF000010B5054CFFF7F8FF042120465C
:1004C40000F092FA0123637210BD00BF2C000020DB
:1004D400037813F0030F10B503F0040402D004F002
:1004E400FF02F4B1B4B103F00303012B03D0022BD8
:1004F40009D0012010BD0A6800880232C0F38310BD
:1005040002440A60F5E70B684288023303EB921356
:100514000B60EEE70B684288013303EB9213028809
:10052400F4E7104610BD00002DE9F04F494C87B0A8
:100534000F460646851C0020019200F0F5FB236857
:100544003B606268A3681344226801339B1A04F277
:100554001C4704F5836A04F21448AB4219D3019A88
:100564000023002A6ED0012262F3010343F0040346
:1005740066F389132168A2680A4003320D440020FF
:1005840044F82230256000F0D1FB012007B0BDE81B
:10059400F08F0121384600F0F1FB504600F008FCD2
:1005A400404600F005FC0DF118096068D4F808B065
:1005B40049F8100D00EA0B00033004EB80004946B3
:1005C400FFF786FF029BB8B90BEA030204EB820231
:1005D400D16803919A1C013303EA0B0B04EB8B0ED5
:1005E4000292DEF80C30049301F00303012B21D0B6
:1005F400022B04D083460CE00BEA0300DCE7BDF8D1
:100604000E30BDF812B0C3F38913033302EB930326
:100614000293404600F0CFFB08B1029B6360594649
:10062400384600F0ABFB6268A368134422680133C8
:100634009B1A92E7BDF80C30BDF812B0C3F38313D4
:100644001344E5E7022262F3010343F0040366F373
:100654009F538FE76401002008B50E4B0E48FF221C
:100664009A600022C3F818241A605A60C3F814244C
:1006740083F8202400F0B0FD38B9084A084B094932
:100684009B1ADB0802469A4200D108BD21F82220B9
:100694000132F8E764010020142A0000E429000074
:1006A400142A00000000002030B50B4C79B10B4A2D
:1006B4000B49121BD20800239A4201D1002030BDFD
:1006C40001EB83056D88854202D00133F4E70346CC
:1006D40054F8330030BD00BFE4290000142A0000A0
:1006E40000000020094B013903EBC000032909D89D
:1006F400DFE801F00A02040604207047007970471D
:10070400407970470020704702207047E4290000B8
:10071400034B58681B68C31A58425841704700BFBE
:10072400640100202DE9F04385B0FFF7F1FF07468F
:10073400002840F0E380794DC5F81804BFF34F8FCB
:100744006868AC680DF1100848F8100D20400330BB
:1007540005EB80004146FFF7BBFE009B06460028E0
:100764005AD104EA0302991C013305EB82022340A7
:1007740005EB8303D268DB68029302F00303022BC8
:10078400019200915AD1BDF806306548C3F3891926
:100794004F46502FA8BF502767F38F1307F1080166
:1007A400ADF8063000F030FD8046002800F0AD8042
:1007B40000F05BFD082201A93346404600F068FDC5
:1007C400009924EA01020132920097422FD9002AAB
:1007D40000F096802140D6B20331BF1B514C05EB8B
:1007E4008101FFB208233246404600F051FD34B186
:1007F40006F108033A462146404600F049FD009BB5
:1008040009F1030903EB99030093D5F81834002B7D
:1008140047D1D5F8104450E02A689A4204D86A6057
:10082400384605B0BDE8F08304EA03008FE70C40C6
:10083400E11C08233A4605EB8101DDE7012B64D175
:10084400BDF804303648C3F38311062928BF0621B6
:1008540061F3891302318900ADF8043000F0D4FC4F
:100864008046002851D000F000FD3346082201A93B
:10087400404600F00DFDBDF80420C2F38312B31C02
:1008840096424FEA8303C0D200994A1C21400331A7
:10089400009205EB81010422404600F0F9FC013688
:1008A400E9E7404600F0E5FCFFF732FF80F0010085
:1008B400C7B2B5E7637A5BBB6468002CFAD14046E3
:1008C40000F0D7FC204600F02FFAD5F818340BB905
:1008D400009B6B60002000F029FAE5E723682046BE
:1008E4009B6898476468002CF8D10F4B0F4918880F
:1008F400000440F0020000F073F8D5E700278FE70A
:10090400FEB21446074917466CE7D5F81044EAE7E7
:10091400236841461B6820469847CDE764010020C0
:10092400142A00007001002010000020702A00002A
:100934002DE9F74F284C80460F46924601A9012223
:1009440018469B46A568FFF7EFFD88B3DDF80490D1
:10095400002609F102025E4534D100211F4800F04F
:10096400E7F980F3100009F101022A4004EB820246
:10097400000405EA0903033340EA1840D06014F880
:10098400232068F3C50204F8232034F8232066F3F7
:10099400891224F8232054F82320012167F39F228D
:1009A40044F8232061F301026FF3820204F8232048
:1009B40094F820341BB1FFF7B5FE0028FBD103B037
:1009C400BDE8F08F02EA050104EB81015AF82630F4
:1009D400CB6001360132BEE76401002080050020AF
:1009E40000231A46FFF7A4BF0F4A30B5D2F81044CB
:1009F4000023214641B90372D2F810444CB9C2F81D
:100A040010044160184630BD0D7A9D4205D04968F6
:100A1400F0E7626842606060F4E701330A2BE8D1D2
:100A24004FF0FF33EEE700BF64010020084A38B5F9
:100A34000123D2F8104482F820341D4604B938BD8D
:100A44002368657220465B6898476468F6E700BFD0
:100A540064010020C38873B504460D4633B1144ABB
:100A640000921449144A284600F0FFF9217A052916
:100A74001CD0637A4BB1A088FFF734FE0F4B1049AA
:100A840053F82020284600F0F0F9227A0D4BA08874
:100A940053F822600021FFF707FE0B490346324654
:100AA400284602B0BDE8704000F0DFB902B070BD66
:100AB400EB2A0000D32A0000CB2A0000982A000069
:100AC400F02A0000002B0000F32A0000037A052B13
:100AD40010B50C460FD0437A23B1084A0849204682
:100AE40000F0C3F90749204600F0BFF92046BDE8ED
:100AF400104000F0AFB9002AF8D0F3E7EB2A000069
:100B0400F02A0000E82A00002DE9F04385B01F46D2
:100B14000C9D002306460C46904695F80C902B73CA
:100B240029463846FFF796FFB8F1060F09D8DFE8E3
:100B340008F00412181F283340003146284600F0FC
:100B440094F9002229463846FFF7C0FF85F80C9037
:100B540005B0BDE8F08322683146284600F085F9E7
:100B6400EFE794E80C003146284600F07EF9E8E708
:100B7400A3680093314694E80C00284600F075F908
:100B8400DFE7E3680193A3680093314694E80C001F
:100B9400284600F06AF9D4E723690293E3680193D5
:100BA400A3680093314694E80C00284600F05DF9F0
:100BB400C7E76369039323690293E3680193A36816
:100BC4000093314694E80C00284600F04EF9B8E74B
:100BD40008292DE9F84F80460E4617461C4636D89C
:100BE400002593F80C901D7319461046FFF732FF49
:100BF400DFF87CA0DFF87CB0AE422AD918F80520D3
:100C04005946204600F031F90135082DF4D1164932
:100C1400DFF864B0204600F028F90025AE421DD963
:100C240018F805A0504601F047FE002814BF5246AC
:100C34002E225946204600F018F90135082DEDD131
:100C4400012221463846FFF741FF84F80C90BDE8A5
:100C5400F88F5146204600F008F9D5E703492046AD
:100C640000F003F9E9E700BFC62A0000C42A000027
:100C7400C22A0000BC2A0000C82A00001FB50021B7
:100C8400039001AA44F201000191029100F004F8DA
:100C940005B05DF804FB000010B572B6FFF7C6FEA0
:100CA400FFF740FD0028FBD1104C114920880004B7
:100CB40040F00100FFF794FE0E4B1B68DB0700D5E4
:100CC40000BE20880C49000440F00200FFF788FEB3
:100CD400BFF34F8F09490A4BCA6802F4E062134319
:100CE400CB60BFF34F8F00BFFDE700BF10000020B3
:100CF4005F2B0000F0ED00E06B2B000000ED00E046
:100D04000400FA0572B6024A13680133136070478F
:100D140088050020034A1368013B136003B962B6D7
:100D2400704700BF88050020FFF7ECBFFFF7F2BF54
:100D340000B550E8002F0B4640E8003E9EF0000F3F
:100D4400F7D110465DF804FB00B550E8003F43EAD4
:100D5400010240E8002E9EF0000FF6D110465DF827
:100D640004FB00B550E8002F02EA010340E8003E0E
:100D74009EF0000FF6D110465DF804FB00B550E874
:100D8400003F03EB010240E8002E9EF0000FF6D175
:100D940010465DF804FB00B550E8003FA3EB0102E8
:100DA40040E8002E9EF0000FF6D110465DF804FBDB
:100DB4000121FFF7C9BF0021FFF7D3BF10B590B1E0
:100DC4004268836801689B1ADBB20A60013BDBB2AC
:100DD400FF2B026802D10020107110BD11684C1C59
:100DE40014600B70F2E70E2010BD38B504460020E5
:100DF400FFF79AFF226863681168994213D9481E65
:100E0400106011F8015CE368A18A01FB0535A36851
:100E140011791B1ADBB2994200D213710020FFF73B
:100E240085FF284638BD0025F8E738B5054600207B
:100E34000C46FFF779FF2A681368591C1160E968AA
:100E4400641AA98AB4FBF1F41C700020BDE8384090
:100E5400FFF76CBF826810B504462AB14369016884
:100E6400006998470023A36010BD0EB403B503992D
:100E740029B102AA04AB42F8043D00F06DF802B0B7
:100E84005DF804EB03B07047826830B40468551C05
:100E94008560A154826843689A4202D330BCFFF74C
:100EA400D9BF30BC704700002DE9F84F0A9C994621
:100EB4000B9B1746824688460A460126BA420FD241
:100EC4004E4538BF4E4613F0010B01D164B90024DE
:100ED4000125B9F1010F1AD909F1FF397D43F8E76A
:100EE400B2FBF7F20136E9E79B070ED5B9F1000F23
:100EF4000CBF30252025A642EAD2013C29465046A3
:100F0400FFF7C2FF002CF6D1E1E72025F3E7B8FB99
:100F1400F5F39F42E2D9DFF83C90B8FBF5F3504675
:100F240019F8031005FB1388FFF7AEFFB5FBF7F5BF
:100F3400002DF2D1BBF1000F0AD03CB9BDE8F88F07
:100F4400013C20215046FFF79FFF0CB1A642F7D386
:100F5400BDE8F88F782B00002DE9F74F05461746BA
:100F64000C46002900F0358114F8011B49B92B7B8C
:100F7400002B00F02E81284603B0BDE8F04FFFF7A8
:100F840069BF252940F0218123460026194611F81E
:100F9400012B2D2A24D0302A26D02B2A27D0002416
:100FA4002A2A994603F1010124D13B681A1D1B68C2
:100FB4003A601C44894699F800302E2B25D109F15A
:100FC40001014FF00008894611F8012BA2F130000D
:100FD40009281CD80A2303FB0823A3F13008F2E7ED
:100FE40046F001060B46D1E746F00206FAE746F062
:100FF4000406F7E71A780B46A2F130010929DAD87A
:101004000A2101FB0424303CCAE74FF0000899F898
:10101400001001F0FB02682A02D119F8011FF8E759
:1010240069290FD04BD8582965D007D825296ED007
:1010340009F101042378002B96D198E7632962D043
:101044006429F5D13A68D2F800A0111D8AEAEA723F
:101054003960A2EBEA724FF0010B092A5BDCC3454D
:1010640038BFC3462CB1BAF1000F01DB710700D5BC
:10107400013CB20702D5B8F1000F04D0F30702D443
:10108400002C4ED10024BAF1000F52DACAF1000A42
:101094002D212846FFF7F8FE06F00302022A05D1A7
:1010A400B8F1000F02D1002C47D100248DE8500084
:1010B40043460A2251462846FFF7F6FEB8E773294D
:1010C4004CD014D87029B3D13B681A1D3A60302132
:1010D40028461C68FFF7D8FE78212846FFF7D4FE7F
:1010E400002301930823009310222146E3E7752986
:1010F4002BD078299CD139680A1D3A6043468DE883
:101104005000102228E03B681A1D19783A602846DE
:10111400FFF7BAFE8CE70A230BF1010B92FBF3F203
:101124009BE7A345AFD220212846013CFFF7ACFE44
:10113400A6E77007B0D52B21ABE7A345B6D2302183
:101144002846013CFFF7A0FEADE739680A1D3A6066
:101154008DE8500043460A220968ACE73B681A1D33
:101164003A60F107D3F800A012D55646A6EB0A0B55
:1011740016F8011B41B95C457FF65AAF2021284679
:10118400013CFFF781FEF6E72846FFF77DFEEDE719
:10119400BAF1000F11D0504601F0F2FB0646B442FA
:1011A40000D964B90AF1FF3A1AF8011F00293FF483
:1011B4003FAF2846FFF768FEF6E75646EFE72021E3
:1011C4002846013CFFF760FEE9E72846FFF75CFE8E
:1011D40030E703B0BDE8F08FFFF7F0BDF8B546790E
:1011E4000446721E00239342246804D3014600255A
:1011F400B54202D3F8BD0133F5E70F682046FFF787
:1012040014FE01353946F3E72DE9F843878ACD1CEE
:101214008046FFF7EAFD043F3D440446B5FBF7F57D
:10122400002650B10123EDB206714371C780013D20
:10123400C0F800808146AE4202D32046BDE8F88360
:101244004046FFF7D2FD074648B163790133637125
:101254000136C9F80000C0F800808146EBE720465B
:10126400FFF7BCFF3846BDE8F88301210430FFF7DF
:1012740085BD10B5012104460430FFF78CFD10F044
:10128400FF0F04D12046BDE81040FFF7A7BF10BDF3
:101294002DE9F843C68804330F46B3FBF6F415462C
:1012A40006FB143380463CB9A6EB0309A94528BFC5
:1012B400A9462DB9BDE8F883D8F80080013CF2E7CF
:1012C400043308EB0300A5EB09054A46391901F07C
:1012D400F9FAAE424C44D8F80080B1464FF000030E
:1012E40028BFA946E5E72DE9F843C6880F46191D2E
:1012F4001546B1FBF6F4804606FB14113CB9A6EB87
:101304000109A94528BFA9462DB9BDE8F883D8F835
:101314000080013CF2E704314144A5EB09054A464B
:10132400381901F0CFFAAE424C44D8F80080B146E7
:101334004FF0000128BFA946E6E700001FB5037877
:101344008DF8003043680193037A8DF80830C36840
:101354000393054A054B684653F8213052F821108F
:10136400984705B05DF804FB8C050020900500202B
:101374001FB503788DF800304368019383688DF8B6
:101384000830C3680393054A054B684653F8213077
:1013940052F82110984705B05DF804FB8C05002035
:1013A40090050020F0B5194B067891F81DC043F85C
:1013B4002620174B96460A6943F82620154B03F856
:1013C40006C00C4607460FCC89B06D460FC594E89D
:1013D4000F0085E80F000496BCF1000F0AD0BEF19F
:1013E400000F0D4A694608BF0022381D00F0EAFCD0
:1013F40009B0F0BDBEF1000F084A694608BF0022DB
:1014040007F10C0000F0DCFAF2E700BF90050020C1
:101414008C05002094050020411300007513000082
:101424002DE9F041494C2379002B40F08B808579DC
:1014340090F8078090F808C0477A90F80AE0C668E8
:10144400027C8DB9012F04D1012A0DD10720BDE8FA
:10145400F081022F08D1082A9DBF40F25513D340D2
:10146400DB430123DB07F1D5394BC3F80455C3F83B
:101474002485C3F820C5C3F81C75C3F828E5C3F850
:1014840018254EB9C3F8106503784FF0A0424DB14A
:1014940003F5E073002508E00122C3F81465C3F8DE
:1014A4001025F1E703F5E073032542F82350437850
:1014B40003F5E07342F823508678FF2E1FBF4FF0E8
:1014C400A04306F5E072032543F82250C27808BF12
:1014D4004FF0FF36FF2A1FBF02F5E0754FF0A0431F
:1014E400032743F82570037908BF4FF0FF32FF2B21
:1014F4001FBF03F5E0774FF0A0454FF0000E45F80D
:1015040027E0134D90F800E04778C5F864E508BF7C
:101514004FF0FF33C5F86875C5F86065C5F87025E8
:10152400C5F86C3543790B4A21605B01DBB282F864
:1015340025332023C2F88431536001232371002012
:10154400BDE8F0810820BDE8F08100BF98050020C7
:101554000050024000E100E030B5364B1A79012A10
:1015640085B00D4662D1026822B102F06041B1F14A
:10157400005F5DD1416821B101F06041B1F1005FCC
:1015840056D15979003218BF012262F30001597112
:101594004268DD80111C5A7918BF012161F34102B0
:1015A40002F0F3026FF304125A7103C8224A82E86C
:1015B4000300224A9C68D968002018615861C2F867
:1015C4005055C2F83845241A18BF0124C2F80845FA
:1015D400C2F84015091A18BF0121C2F80C150224DB
:1015E4000121C2F800151C71154C20602468039475
:1015F400039C144C206024680294029C124C2060CA
:1016040024680194019C5C7914F0010F14BF022337
:10161400034614F0020F14BF2024044643F00403CD
:101624002343C2F80433116005B030BD0820FBE742
:101634001020F9E798050020A00500200050024082
:10164400045102401451024008510240054B5A799A
:101654006FF304125A71044B2222C3F808230122A7
:101664005A607047980500200050024008B5FFF703
:10167400EDFF0A4B2022C3F88420094B4FF0FF32C0
:10168400C3F86425C3F86825C3F86025C3F870253A
:10169400C3F86C25034B00221A7108BD00E100E079
:1016A40000500240980500207FB5394B394C1A6828
:1016B4007AB100221A601B680093009B637943F09F
:1016C400080303F01202122A637104BF43F02003DB
:1016D4006371314B1A687AB100221A601B68019356
:1016E400019B637943F0040303F01102112A63712F
:1016F40004BF43F020036371284B1A68B2B100257C
:101704001D601B680293029B254B26480422C3F8E4
:1017140008232946C3F800552368984723682248BC
:10172400294698470123237104B070BD637903F0FF
:101734000F020F2A08D0D80701D4190704D46279FC
:101744009207F1D45B07EFD5637903F0F30313F049
:10175400200609D003F0D30343F010036371236818
:10176400012100209847DFE70E4A92E8030002AD0A
:1017740085E8030012E9030043F0100382E8030044
:101784006371A660E660236801212846EAE700BF8A
:1017940014510240980500200451024008510240AF
:1017A40000500240A8050020A0050020014B1B6842
:1017B400184700BFB005002038B50A4B98420D46C3
:1017C4000CD10020FFF7B0FA074B1C7914B90122A1
:1017D4001D601A710020FFF7A9FA0CB9002038BD6A
:1017E400112038BD00200040B0050020034B984272
:1017F40001BF034B00221A601A7170470020004099
:10180400B00500200023435082B043580193019B4C
:1018140002B070470A4610B54FF48E71FFF7F2FF1D
:10182400136A9168C95C136A01331362C0F81C150A
:1018340010BD8B690A4610B54FF4847123B9FFF7C4
:10184400E1FFD0F8183510BDFFF7DCFF536AD1680B
:10185400D0F81805C854536A0133536210BD000010
:101864001FB501238DF80030044B029001916846A6
:1018740093E80600904705B05DF804FBB805002026
:1018840030B54D4AD2F8043313F4007F85B01546C1
:101894004FD0D2F82431002B4BD04FF49271104624
:1018A400FFF7B0FF4FF40173C2F80833434B93F8CA
:1018B400291009B9012151603F4902228DF8002005
:1018C400D1F88024C1F8802403929A690292DA68DC
:1018D400019200229A61DA61684693E80600904713
:1018E4003548D0F81C315BB134490A6A4B699A42D5
:1018F4000A464CD291F82830002B48D1FFF78AFFD2
:101904002D4AD2F8443193B14FF4A2711046FFF737
:1019140079FF2A4B93F8291009B1012111609A69C2
:101924002AB100229A61586AD968FFF799FF05B075
:1019340030BDD5F804335B07D2D5D5F80831002B78
:10194400CED01E4C1C482146FFF773FF636AA26980
:101954009A422346C4D1E26952B12369E168E36043
:101964000023606AA261E3616362FFF779FFB7E76E
:1019740094F829200AB901226A600F4A4FF40171D0
:10198400C2F8081300229A61586AD968EDE74FF447
:101994008E710948FFF736FF51690029B0D0002342
:1019A400029191688DF8003001915361684692E884
:1019B4000A009847A4E700BF00200040B8050020B3
:1019C4002DE9F8435B4B047991462C2202FB043247
:1019D400064692F82A200D469846002A40F0A58033
:1019E40055490068FFF7E8FE0746002840F09F804D
:1019F40029683368481C0BD04FF0A04001228A406C
:101A0400C0F8082501F5E0724FF0030E40F822E01B
:101A14006868421C1FBF00F5E0724FF0A04E4FF003
:101A2400000C4EF822C0AA6995F814E0C3F82425E6
:101A34006A7DBEF1010F4EEA0202C3F86C25C3F8B9
:101A44001405C3F80C151DD1AA68511C1FBF02F55B
:101A5400E0714FF0A0404FF0000E40F821E0E9683B
:101A6400481C0BD04FF0A04E01208840CEF808054A
:101A740001F5E0704FF0030C4EF820C0C3F80815D0
:101A8400C3F810252C23634308EB0302C2F8049027
:101A94002A6948F80320B9F1000F33D04FF48E714E
:101AA40030682D7FFFF7AEFE30684FF4A271FFF768
:101AB400A9FE3268214BC2F80433120B53B2002B37
:101AC400A8BF03F160404FEA53134FEA4511BABF70
:101AD4001B4802F00F0500F561404FEA8303B4BFD1
:101AE400C9B2C9B203F16043B4BF415580F80013D1
:101AF40003F5614302F01F02012101FA02F2C3F867
:101B040080211A6033680422C3F800252C2303FBC8
:101B1400048300229A61DA6183F829205A61012240
:101B240083F82A203846BDE8F8830827FAE7112706
:101B3400F8E700BFB8050020851800008000020007
:101B440014ED00E0F8B5047900682D4D0023C0F8C9
:101B540000352C2303FB04535B6873B1294BC0F895
:101B64000833020B53B201215B0902F01F0201FA90
:101B740002F22033244941F82320D0F80C65D0F830
:101B84001415D0F80835D0F810254FF0FF37BE42B1
:101B9400C0F8147518BF06F5E076C0F80C75C0F8E7
:101BA4000875C0F810751EBF4FF0A0474FF0020E25
:101BB40047F826E04E1C1FBF4FF0A04601F5E07128
:101BC400022746F82170511C1FBF4FF0A04102F5B7
:101BD400E072022641F822605A1C1FBF03F5E0732D
:101BE4004FF0A042022142F82310FFF7FFFD2C23FF
:101BF40003FB0454002384F82A306360F8BD00BF5B
:101C0400B80500208402020000E100E02DE9F84359
:101C1400234F06794FF02C0909FB06748046656949
:101C2400002D37D16261A16025624FF48E71006886
:101C340084F82850FFF7E6FDD8F8000001238360FC
:101C44002146FFF7E7FD6368A14633BBD8F800508F
:101C5400226A63699A4212D3D8F80030D3F81C215F
:101C6400002AFBD00122DA6000202C2303FB067635
:101C740000237361BDE8F88394F8283043B9D5F89C
:101C84001C31002BF8D049462846FFF7C3FDDFE797
:101C94000F20EAE71120BDE8F8832846BDE8F88361
:101CA400B80500200023435082B043580193019BA0
:101CB40002B070471FB501238DF80030054B8DF835
:101CC40008000191684693E80600904705B05DF866
:101CD40004FB00BFE40500207FB5384AD2F8246134
:101CE400002E49D010464FF49271FFF7DBFF022318
:101CF4008DF80030D2F88034C2F880340393D2F8DF
:101D04003C358DF808302E4BDA68019200229A6136
:101D1400DA61684693E806009047284AD2F84431CD
:101D240073B14FF4A2711046FFF7BCFF244B9969BD
:101D340031B100219961D2F83C05D968FFF7BAFFA7
:101D44001E4AD2F82031ABB14FF490711046FFF720
:101D5400A9FF1B4B596969B1D2F84C158DF80810CD
:101D6400002299688DF8002001915A61684693E831
:101D74000600904704B070BDD2F81031002BCCD0CF
:101D84004FF488711046FFF78DFF0D4BD2F83C05D8
:101D940099698842C1D1DC696CB1D2F80052D96822
:101DA40025F02005C2F800521A699C61DA60DE61F0
:101DB400FFF780FFB1E79C61D968F9E70020004094
:101DC400E40500202DE9F8435F4B0679914624226F
:101DD40002FB0632044692F820200D469846002A5B
:101DE40040F0AD8059490068FFF7E6FC074600283B
:101DF40040F0A78029682368481C0BD04FF0A0400E
:101E040001228A40C0F8082501F5E0724FF0030E64
:101E140040F822E06868421C1FBF00F5E0724FF0F2
:101E2400A04E4FF0000C4EF822C0AA6995F814E0B9
:101E3400C3F824256A7DBEF1010F4EEA0202C3F8FD
:101E44006C25C3F80C15C3F814051DD1AA68511CE0
:101E54001FBF02F5E0714FF0A0404FF0000E40F8B4
:101E640021E0E968481C0BD04FF0A04E01208840C7
:101E7400CEF8080501F5E0704FF0030C4EF820C0D1
:101E8400C3F80815C3F810252423734308EB030291
:101E9400C2F804902A6948F80320B9F1000F3DD034
:101EA4004FF4887120682D7FFFF7FCFE4FF490718A
:101EB4002068FFF7F7FE4FF492712068FFF7F2FEF7
:101EC40020684FF4A271FFF7EDFE2268204BC2F8A0
:101ED4000433120B53B2002BA8BF03F160404FEA46
:101EE40053134FEA4511BABF1A4802F00F0500F523
:101EF40061404FEA8303B4BFC9B2C9B203F160437E
:101F0400B4BF415580F8001303F5614302F01F028A
:101F1400012101FA02F2C3F880211A602368082221
:101F2400C3F80025242303FB068300229A61DA61A7
:101F34005A61012283F820203846BDE8F883082737
:101F4400FAE71127F8E700BFE4050020DD1C0000D4
:101F54001003020014ED00E0F8B5047900682D4D7B
:101F64000023C0F80035242303FB04535B6873B1DA
:101F7400294BC0F80833020B53B201215B0902F06C
:101F84001F0201FA02F22033244941F82320D0F839
:101F94000C65D0F81415D0F80835D0F810254FF09A
:101FA400FF37BE42C0F80C7518BF06F5E076C0F8DE
:101FB4001475C0F80875C0F810751EBF4FF0A0471F
:101FC4004FF0020E47F826E04E1C1FBF4FF0A0460C
:101FD40001F5E071022746F82170511C1FBF4FF034
:101FE400A04102F5E072022641F822605A1C1FBF8C
:101FF40003F5E0734FF0A042022142F82310FFF7EB
:10200400F5FB242303FB0454002384F8203063608D
:10201400F8BD00BFE40500201003020000E100E069
:1020240001F06043B3F1005F2DE9F041074632D17E
:102034001D4B0679242505FB063598466C696CBB57
:102044006A61A96000684FF49071FFF72BFE4FF4AA
:10205400AC713868FFF726FE3B686A69A968C3F863
:102064004415C3F8482501229A606A68CAB9D3F8AE
:102074002011D3F8582149B9002AF8D00F2024237D
:1020840003FB068600237361BDE8F081002A14BFB8
:102094000F200020F3E71020BDE8F0811120BDE8F7
:1020A400F0812046BDE8F081E4050020CB0703D58C
:1020B40043680BB1FFF7DABA7047000038B504463D
:1020C40038B1044D45F001054FF47A40A847013C6E
:1020D400FAD138BDA02B000008B51B220021054809
:1020E40000F01AFC8C220021034800F015FC0020AB
:1020F40008BD00BF94060020080600207FB5FF231A
:102104000B228DF804308DF805208DF8063002225C
:102114008DF8083007238DF807208DF809304FF02B
:10212400405200230B498DF80A3001A88DF80B307A
:102134008DF80C308DF80D308DF80E3004928DF83A
:102144001430FFF76DF908B1FEF798FD07B05DF89C
:1021540004FB00BFB120000003461C22002013F042
:10216400800F14BF0C2108219140043A5B0012F146
:10217400040F40EA0100DBB2F1D17047F8B50B4D12
:102184000B4F0024385DFFF7E7FF3E192860707895
:10219400FFF7E2FF6860B078FFF7DEFF03341B2C23
:1021A400A86005F10C05EDD1F8BD00BF08060020BC
:1021B4009406002007B5FFF7A1FF0022064B00920A
:1021C400242168460193FFF7C7F908B1FEF756FDCD
:1021D40003B05DF804FB00BF0806002008B56C22BC
:1021E4008821034800F098FBBDE80840FFF7E2BFF0
:1021F400080600202DE9F8438146884617461E4606
:10220400FFF76AFF094D00242B1983F8019004F8A5
:1022140005809F70FFF7B2FF0334FFF7CBFF304612
:10222400FFF74CFF1B2CEFD1BDE8F8839406002088
:10223400C043C0B2542882B01AD800238DF80430A9
:10224400A0EB8003013B8DF8053000EB40008DF8D6
:1022540006009DF80430002063F307009DF8053064
:1022640063F30F209DF8063063F3174002B0704704
:10227400A9280CD85538C0B200EB40038DF80430BF
:10228400A0EB800000238DF805300138DFE75630DD
:10229400C0B2A0EB8003013B8DF8043000EB40009A
:1022A40000238DF805008DF80630D2E7F7B5054612
:1022B400FFF712FF00240926114A002191FBF6F0D2
:1022C4002044C0B2FFF7B4FF01F58071C0F30743A7
:1022D400C0F30727B1F5106F57701070937002F1B7
:1022E4000302EBD10134FFF749FFA4B2FFF762FF09
:1022F4002846FFF7E3FE092CDED103B0F0BD00BF92
:1023040094060020F7B50546FFF7E6FE00240926EB
:10231400114A002191FBF6F02044C0B2FFF788FF78
:1023240001F58071C0F30743C0F30727B1F5106FBF
:1023340057701070937002F10302EBD10134FFF770
:102344001DFFA4B2FFF736FF2846FFF7B7FEB4F52A
:10235400407FDDD103B0F0BD940600202DE9F74F96
:10236400214E9146074688469A460A25FFF7B4FE51
:102374004FF0000B324600242EE00B189BB203EB07
:102384004303033006EB030E80B209288EF8017074
:1023940006F803808EF80290EFD18DE80600FFF76F
:1023A400EDFEFFF707FF5046FFF788FE9DE80600A5
:1023B40000200B189BB203EB4303033002EB030E24
:1023C40080B209288EF801B002F803B08EF802B08A
:1023D400EFD10134032C02D00020A1B2CDE7013D9E
:1023E400C9D103B0BDE8F08F940600202DE9F04F69
:1023F40085B08146264EFFF76FFE00243746A2467D
:10240400002534E0FF2092FBF0F01044C0B2FFF747
:102414000FFF019B13449BB203EB430306EB030E34
:102424000332C0F3074CC0F3072B8A428EF801B085
:10243400F0548EF802C0E5D1FFF7A0FEFFF7BAFE14
:102444004846FFF73BFE002208EB02039BB203EB76
:1024540043030332F91892B2092A81F801A007F85C
:1024640003A081F802A0EFD10135032D08D01FFA93
:1024740085F8A8EB0403224604F109010193C1E79E
:102484000134B4F5807FBBD105B0BDE8F08F00BF47
:102494009406002010B54FF400410020FEF7DCF84C
:1024A40008B1FEF7EBFBFEF705F81F4B1F49188830
:1024B400000440F00300FEF793FAFEF733F90446F4
:1024C4000028FAD1024601463223FF20FFF792FE8C
:1024D400224620463223FF21FFF78CFE2146204668
:1024E4003223FF22FFF786FE7F2211461046322355
:1024F400FFF734FF2246214632237F20FFF72EFFC9
:1025040032237F2221462046FFF728FF1420FFF7BD
:10251400CDFE1420FFF7F6FE3220FFF767FFFFF72A
:102524005DFE204610BD00BF10000020A62B000059
:10253400094B1B78062B0CD1084B1B681A0708D1D2
:10254400074B186800F0F000A0F1300358425841DE
:1025540070470020704700BFE00F00F0E40F00F068
:10256400E80F00F00C4B1B78062B10D10B4B1B68AB
:102574001A070CD10A4B186800F0F003302B08D06E
:1025840000F0E000A0F14003584258417047002099
:1025940070470120704700BFE00F00F0E40F00F027
:1025A400E80F00F008B5FFF7DDFF28B17F4B804A44
:1025B4001B68C3F304231360FFF7BAFF10B17D4B0C
:1025C4007D4A1A60FFF7CEFF28B17C4B7C4A1B681A
:1025D400C3F342331360FFF7ABFF20B1794AD368EA
:1025E40023F08073D360FFF7BDFF40B14FF0804309
:1025F4000022C3F80C21C3F81021C3F83825FFF7D3
:1026040097FF10B1704B03221A60FFF791FF40B19E
:102614006E4B05221A6001229A6700229A603F22BB
:102624005A606B4B1B78062B09D16A4B1B68190740
:1026340005D1694B1B6803F0F003502B67D0FFF7FB
:1026440091FF28B1654B664A1B6803F04F03136082
:10265400FFF788FF48B14FF08043D3F80024D20736
:1026640044BF6FF00102C3F800245E4B1B68062BC5
:1026740004D15D4B1B68062B00F091805B4AD2F8B5
:10268400883043F47003C2F88830BFF34F8FBFF330
:102694006F8F4FF01023D3F80022002A03DBD3F806
:1026A4000432002B2FDA524B0122C3F80425D3F84D
:1026B4000024002AFBD04FF010221521C2F800128A
:1026C400D3F80024002AFBD04FF010231522C3F8BE
:1026D4000422474B1A46D3F800140029FBD00021EA
:1026E400C3F80415D2F80034002BFBD0BFF34F8F8E
:1026F4003E49404BCA6802F4E0621343CB60BFF327
:102704004F8F00BFFDE73C4B3C4A1A6008BD4FF0B9
:1027140080523B4BD2F80414C3F82015D2F80814A5
:10272400C3F82415D2F80C14C3F82815D2F81014E1
:10273400C3F82C15D2F81414C3F83015D2F81814B1
:10274400C3F83415D2F81C14C3F84015D2F8201479
:10275400C3F84415D2F82414C3F84815D2F8281441
:10276400C3F84C15D2F82C14C3F85015D2F8301411
:10277400C3F85415D2F83414C3F86015D2F83814D9
:10278400C3F86415D2F83C14C3F86815D2F84014A1
:10279400C3F86C15D2F84424C3F870254FE7194ADE
:1027A400136843F48063136068E700BF24030010D8
:1027B4004035014074C007400DF0ADBA440200102A
:1027C4003C050040F0ED00E0A0050040105600403C
:1027D400E00F00F0E40F00F0E80F00F058020010E2
:1027E400E40E0040300100103401001000ED00E060
:1027F40000E001400400FA05380000200090D003F6
:1028040000C000403C1700407F2805D8034B185CEB
:10281400034B5B5C1840704700207047C42B0000DA
:10282400442C0000A0F16103192B98BF2038704795
:10283400A0F14103192B98BF203070477F2805D899
:10284400034B185C034B5B5C1840704700207047D7
:10285400C42B0000442C0000A0F16103192B98BF85
:1028640020387047A0F14103192B98BF20307047DE
:102874007F299ABF017001206FF02E0070475AB172
:102884000A787F2A0AD800B10260002119605960D1
:10289400501A18BF01207047002070476FF02E00B7
:1028A4007047000008B5034B5B689B681B6898473A
:1028B40008BD00BF3C00002008B50921FFF7F2FF66
:1028C40008BD0000844640EA010313F0030F18D149
:1028D4008446202A0BD32DE9F007B1E8F807A0E8D5
:1028E400F807A2F12002202AF7D2BDE8F007042A53
:1028F40007D351F8043B40F8043BA2F10402042A34
:10290400F7D2002A05D011F8013B00F8013B013A47
:10291400F9D16046704700BF8446002A2DD010F0DC
:10292400030F04D000F8011B013A26D0F7E7C9B21F
:1029340041EA012141EA0141202A12D3A2F12002F5
:102944002DE9F0030B460C460D460E460F4688460D
:102954008946A0E8FA03203AFBD2BDE8F00320320E
:102964000BD0042A05D340F8041B043A05D0042AEA
:10297400F9D200F8011B013AFBD16046704700BF51
:1029840000F1010110F0030F11D010F8012B002AFF
:1029940023D010F0030F0AD010F8012B002A1CD00A
:1029A40010F0030F03D010F8012B002A15D02DE9E5
:1029B40070004FF001324FF0803350F8044BA4EB19
:1029C400020525EA04051D4000D1F6E7A0F1040044
:1029D40070BC10F8012B002AFBD1A0EB010070475A
:1029E400882B0000000000008C2B00000000000079
:1029F400902B000000000000952B00000000000058
:102A0400812A000000000303852A0000000000035F
:102A1400940000205C010020640100209C00002040
:082A240014000020180000005E
:102A2C00000000000000000000000000000000009A
:082A3C00000000000000000092
:102A4400FFFFFFFFFFFFFFFFFFFFFFFFFFFFFFFF92
:102A540000000000000000000000D6010701000093
:102A64002104000085040000D10300004261636B6F
:102A7400656E647320666C7573686564006170705C
:102A84000062616C6C6F632E6C6F675F6D656D7057
:102A94006F6F6C00EB2A0000142B0000CB2A00009F
:102AA4001C2B0000242B00002C2B0000342B0000D6
:102AB4003C2B0000442B00002025303278002020DD
:102AC40020007C002563001B5B313B33316D002506
:102AD400734C6F67732064726F707065642028256F
:102AE400642925730D0A001B5B306D002573003CBF
:102AF40025733E2025733A200000000000000000EA
:102B0400652B00004C2B0000542B0000592B0000B7
:102B14001B5B313B33306D001B5B313B33326D004B
:102B24001B5B313B33336D001B5B313B33346D0036
:102B34001B5B313B33356D001B5B313B33366D0022
:102B44001B5B313B33376D007761726E696E6700D2
:102B5400696E666F00646562756700466174616CD6
:102B6400206572726F720053797374656D2072659B
:102B74007365740030313233343536373839414275
:102B84004344454649325300505253005541525430
:102B94000055415254450000000000000338FDD8A0
:102BA4007047534B363831322049325320657861AF
:102BB4006D706C6520737461727465642E0000001E
:102BC4002020202020202020206828282828202099
:102BD40020202020202020202020202020202020F1
:102BE40048101010101010101010101010101010A9
:102BF4008484848484848484848410101010101049
:102C040010818181818181010101010101010101A1
:102C14000101010101010101010101101010101055
:102C24001082828282828202020202020202020272
:102C3400020202020202020202020210101010201A
:102C44000007032004170201085710408000000009
:102C5400F82D0000BC2C0000D02D000053756E0030
:102C64004D6F6E00547565005765640054687500B7
:102C74004672690053617400000000004A616E00EE
:102C8400466562004D617200417072004D617900C9
:102C94004A756E004A756C00417567005365700093
:102CA4004F6374004E6F76004465630000000000BB
:102CB400414D00504D000000F42D0000F02D0000A7
:102CC400F02D0000F02D0000F02D0000F02D00008C
:102CD400F02D0000F02D0000F02D0000F02D00007C
:102CE400FFFFFFFFFFFFFFFFFFFFFFFFFFFF0000EE
:102CF400302D0000602C00006C2D0000802C0000A2
:102D0400B42C0000142D0000C42D0000202D000060
:102D1400256D2F25642F25790000000025612025CD
:102D240062202565202554202559000053756E64C2
:102D34006179004D6F6E64617900547565736461E7
:102D440079005765646E65736461790054687572BF
:102D540073646179004672696461790053617475C2
:102D640072646179000000004A616E7561727900D5
:102D74004665627275617279004D617263680041E3
:102D84007072696C004D6179004A756E65004A7510
:102D94006C79004175677573740053657074656D63
:102DA400626572004F63746F626572004E6F766580
:102DB4006D62657200446563656D62657200000052
:102DC40025483A254D3A2553000000000D280000FF
:102DD4002928000035280000412800005D28000053
:102DE4006928000075280000832800000000000006
:102DF4002E00000043000000504F534958000000CB
:102E040000000000002000400000000000200040FE
:102E140000000000642A0000000000000000000020
:102E24000090D003542C0000542C0000542C0000BB
:082E3400542C0000542C000096
:040000030000023DBA
:00000001FF
