:020000022000DC
:10600000000001203D6202009562020097620200DA
:10601000996202009B6202009D6202000000000083
:106020000000000000000000000000009F6202006D
:10603000A162020000000000A3620200A56202004B
:1060400089880200AB620200C58C0200AF620200C8
:10605000B1620200B3620200418B0200B76202002B
:10606000B9620200BB620200BD620200BF620200B0
:10607000C1620200C3620200C5620200C762020080
:10608000C9620200F9700200CD620200CF62020014
:1060900095710200D3620200D5C10200D7620200EE
:1060A000D9620200DB620200DD620200DF620200F0
:1060B000E1620200E3620200A7620200A76202003E
:1060C000E5620200E7620200E9620200EB620200A0
:0C60D000ED620200DD980200F1620200A7
:1060DC00364937480A1A02D0072291438D46354972
:1060EC0035480A1A06D00722914381F30988022207
:1060FC0082F3148831483249324A00F045F832486C
:10610C003249334A00F040F832483349334A00F000
:10611C003BF833483349344A00F036F833483449B5
:10612C00344A00F031F834483449354A00F02CF840
:10613C0034483549354A00F027F8354835490022AE
:10614C0000F02DF834483549002200F028F8344886
:10615C003449091A082903DB00220260043001606B
:10616C00314A90471F482049884205D002680430C4
:10617C0003B4904703BCF7E700208646EC460020AA
:10618C0000212A4A9047FEE7884207D0521A05D0D0
:10619C00037801300B700131013AF9D17047884214
:1061AC0002D002700130FAE77047000000000120B5
:1061BC0000E00020000001200000012078E2020035
:1061CC00DC2A0020542B0020F4620200F46202004E
:1061DC00A0CF020078E20200DC2A0020DC2A00209A
:1061EC0004D1020004D1020004D1020004D1020047
:1061FC0004D1020004D1020004D1020004D1020037
:10620C0078E20200F0E20200542B0020542B002014
:10621C00542B0020B03B0020B03B0020B03B0020B2
:10622C00B03B0020B05B002061620200EDA60200D2
:10623C000F484FF00701884385460E4880470E48AB
:10624C00016841F470010160BFF34F8FBFF36F8F92
:10625C00FFF73EBF09480A490A4A884207D0521A3A
:10626C0005D0037801300B700131013AF9D1704738
:10627C00000001208182020088ED00E0C0D0020005
:10628C00982A0020DC2A0020FEE7FEE7FEE7FEE766
:10629C00FEE7FEE7FEE7FEE7FEE7FEE7FEE7FEE7CA
:1062AC00FEE7FEE7FEE7FEE7FEE7FEE7FEE7FEE7BA
:1062BC00FEE7FEE7FEE7FEE7FEE7FEE7FEE7FEE7AA
:1062CC00FEE7FEE7FEE7FEE7FEE7FEE7FEE7FEE79A
:1062DC00FEE7FEE7FEE7FEE7FEE7FEE7FEE7FEE78A
:0862EC00FEE7FEE7FEE700BF3C
:1062F400704770477047000007B5044B0093044A89
:10630400402300F032F803B05DF804FB1963020087
:10631400552B00202DE9F84389461446E2B10F4B72
:106324000F4E0325002743F00108224609EB07011D
:10633400002004F079FB0744241A48B933785BB190
:106344004FF47A40C047013D02D13570BDE8F8836F
:1063540001233370002CE8D1BDE8F88310D102008A
:10636400542B0020704704F093BBF0B595B01C4645
:1063740008460D46164601F05AFE1A9B099400245D
:106384000D930822234605A9284608960A948DF8F9
:106394002C400C9401F089FE079B0293BDF8183041
:1063A400ADF80C30BDF81A30ADF80E309DF814304D
:1063B4008DF8114003F00302012A1DD1BDF81440E9
:1063C400059EC3F3C203C4F383148DF81030A200F6
:1063D40008230EA9284601F068FEC6F3952608ABEB
:1063E4000093224602AB0EA9304600F0E1FB28469A
:1063F40001F021FE15B0F0BD022AF8D1BDF8164017
:10640400C3F3C203C4F389148DF810300827082C91
:10641400264628BF08263B4632460EA9284601F0E8
:1064240044FEA41B08AB02AA31460EA8374400F070
:1064340023FC002CEBD1DAE710B5054CFFF793FFF2
:106444000421204600F024FB0123637210BD00BF29
:10645400DC2A0020037813F0030F10B503F00404C2
:1064640002D004F0FF02F4B1B4B103F00303012B32
:1064740003D0022B09D0012010BD0A680088023223
:10648400C0F3831002440A60F5E70B6842880233C4
:1064940003EB92130B60EEE70B684288013303EBC6
:1064A40092130288F4E7104610BD00002DE9F04F66
:1064B40089B00646851C08A8494C019200230F4662
:1064C40000F8113D01F062F923683B606268A3683B
:1064D4001344226801339B1A04F21C4704F5836AAF
:1064E40004F21448AB421AD3019A0023002A6FD055
:1064F400012262F3010343F0040366F38913216864
:10650400A2689DF80F000A4003320D4444F822307B
:10651400256001F05FF9012009B0BDE8F08F012189
:10652400384601F0F7F9504601F00EFA404601F002
:106534000BFA0DF120096068D4F808B049F8100D81
:1065440000EA0B00033004EB80004946FFF782FFAA
:10655400049BB8B90BEA030204EB8202D1680591EB
:106564009A1C013303EA0B0B04EB8B0E0492DEF846
:106574000C30069301F00303012B21D0022B04D02D
:1065840083460CE00BEA0300DCE7BDF81630BDF8E7
:106594001AB0C3F38913033302EB93030493404605
:1065A40001F0D5F908B1049B63605946384601F0FF
:1065B400B1F96268A3681344226801339B1A91E716
:1065C400BDF81430BDF81AB0C3F383131344E5E7E0
:1065D400022262F3010343F0040366F39F538EE740
:1065E400682C002008B50E4B0E48FF229A6000224A
:1065F400C3F818241A605A60C3F8142483F82024BA
:1066040001F0CCFC38B9084A084B09499B1ADB084D
:1066140002469A4200D108BD21F822200132F8E74F
:10662400682C002080D00200F8CF020080D0020045
:10663400982A002030B50B4C79B10B4A0B49121B38
:10664400D20800239A4201D1002030BD01EB83051A
:106654006D88854202D00133F4E7034654F83300D1
:1066640030BD00BFF8CF020080D00200982A00207D
:10667400094B013903EBC000032909D8DFE801F015
:106684000A02040604207047007970474079704775
:106694000020704702207047F8CF0200034B58686F
:1066A4001B68C31A58425841704700BF682C002029
:1066B4002DE9F04387B0FFF7F1FF0746002840F0CB
:1066C400E6807B4DC5F81804BFF34F8F6868AC684B
:1066D4000DF1180848F8100D2040033005EB800038
:1066E4004146FFF7B7FE029B064600285AD104EA4A
:1066F4000302991C013305EB8202234005EB83035B
:10670400D268DB68049302F00303022B0392029124
:106714005AD1BDF80E306748C3F389194F46502F3C
:10672400A8BF502767F38F1307F10801ADF80E30A7
:1067340001F04CFC8046002800F0B08001F077FCAA
:10674400082203A93346404601F084FC029924EA56
:1067540001020132920097422FD9002A00F0998059
:106764002140D6B20331BF1B534C05EB8101FFB26C
:1067740008233246404601F06DFC34B106F10803AB
:106784003A462146404601F065FC029B09F10309A3
:1067940003EB99030293D5F81834002B47D1D5F8AD
:1067A400104450E02A689A4204D86A60384607B018
:1067B400BDE8F08304EA03008FE70C40E11C0823E2
:1067C4003A4605EB8101DDE7012B67D1BDF80C30BA
:1067D4003848C3F38311062928BF062161F38913BE
:1067E40002318900ADF80C3001F0F0FB804600283E
:1067F40054D001F01CFC3346082203A9404601F0A2
:1068040029FCBDF80C20C2F38312B31C96424FEA54
:106814008303C0D202994A1C21400331029205EB42
:1068240081010422404601F015FC0136E9E74046A7
:1068340001F001FCFFF732FF80F00100C7B2B5E7B9
:10684400637A73BB6468002CFAD1404601F0F3FB11
:1068540006A800F8114D00F099FFD5F818340BB9CB
:10686400029B6B609DF8070000F0B4FFE2E7236829
:1068740020469B6898476468002CF8D10F4B104958
:106884001888000440F0020000F074F8D2E70027F2
:106894008CE7FEB214460849174669E7D5F8104458
:1068A400EAE7236841461B6820469847CAE700BFC9
:1068B400682C002080D00200742C0020B02A002014
:1068C40024D102002DE9F74F284C80460F4692460A
:1068D40001A9012218469B46A568FFF7E7FD88B386
:1068E400DDF80490002609F102025E4534D100214E
:1068F4001F4800F0DCFF80F3100009F101022A4078
:1069040004EB8202000405EA0903033340EA184059
:10691400D06014F8232068F3C50204F8232034F867
:10692400232066F3891224F8232054F8232001211C
:1069340067F39F2244F8232061F301026FF382027C
:1069440004F8232094F820341BB1FFF7B1FE00288B
:10695400FBD103B0BDE8F08F02EA050104EB81012D
:106964005AF82630CB6001360132BEE7682C00208D
:106974008430002000231A46FFF7A4BF13B502ACED
:10698400012344F8042D2246FFF79CFF02B010BDFA
:1069940007B58DE80C0002236A46FFF793FF03B0A6
:1069A4005DF804FB1FB50293069B0192039301AAB1
:1069B4000323FFF787FF05B05DF804FB2DE9F347D8
:1069C4008046314CD01C8A46174601A90022800813
:1069D400A568FFF76BFD002840D0DDF80490A66899
:1069E40009F10200019001362840361AB600B74278
:1069F40000F103003CD83A46514604EB800005F010
:106A04008FFE0021214800F052FF80F3100009F1AD
:106A140001032B4004EB8303000440EA1840D860D0
:106A240005EA0903033304EB830214F8231068F323
:106A3400C50104F8231034F823106FF38F1124F8E0
:106A44002310518867F38F11518014F823200221F9
:106A540061F301026FF3820204F8232094F82034D6
:106A64001BB1FFF725FE0028FBD102B0BDE8F0877B
:106A74003246514604EB800005F052FEBA1B0AEB85
:106A8400060104F10C00BAE7682C002084300020D1
:106A94000F4A30B5D2F810440023214641B903729D
:106AA400D2F810444CB9C2F810044160184630BD05
:106AB4000D7A9D4205D04968F0E7626842606060E3
:106AC400F4E701330A2BE8D14FF0FF33EEE700BFC0
:106AD400682C0020084A38B50123D2F8104482F803
:106AE40020341D4604B938BD2368657220465B68AE
:106AF40098476468F6E700BF682C0020C38873B524
:106B040004460D4633B1144A00921449144A2846E7
:106B140000F07EFF217A05291CD0637A4BB1A0884E
:106B2400FFF7A6FD0F4B104953F82020284600F02C
:106B34006FFF227A0D4BA08853F822600021FFF7E3
:106B440079FD0B4903463246284602B0BDE8704041
:106B540000F05EBF02B070BD9FD1020087D1020079
:106B64007FD102004CD10200A4D10200B4D10200B2
:106B7400A7D10200037A052B10B50C460FD0437A37
:106B840023B1084A0849204600F042FF074920463D
:106B940000F03EFF2046BDE8104000F02EBF002A62
:106BA400F8D0F3E79FD10200A4D10200B6D80200C6
:106BB4002DE9F04385B01F460C9D002306460C4684
:106BC400904695F80C902B7329463846FFF796FFAC
:106BD400B8F1060F09D8DFE808F00412181F2833AB
:106BE40040003146284600F013FF0022294638466B
:106BF400FFF7C0FF85F80C9005B0BDE8F08322686C
:106C04003146284600F004FFEFE794E80C003146D3
:106C1400284600F0FDFEE8E7A3680093314694E8B7
:106C24000C00284600F0F4FEDFE7E3680193A36854
:106C34000093314694E80C00284600F0E9FED4E7BE
:106C440023690293E3680193A3680093314694E8AF
:106C54000C00284600F0DCFEC7E763690393236950
:106C64000293E3680193A3680093314694E80C000F
:106C7400284600F0CDFEB8E708292DE9F84F8046F4
:106C84000E4617461C4636D8002593F80C901D7303
:106C940019461046FFF732FFDFF87CA0DFF87CB01E
:106CA400AE422AD918F805205946204600F0B0FE15
:106CB4000135082DF4D11649DFF864B0204600F000
:106CC400A7FE0025AE421DD918F805A0504605F0D0
:106CD400F1FC002814BF52462E225946204600F0EB
:106CE40097FE0135082DEDD1012221463846FFF7E4
:106CF40041FF84F80C90BDE8F88F5146204600F01F
:106D040087FED5E70349204600F082FEE9E700BF8D
:106D14007AD1020078D1020076D1020070D102004B
:106D24007CD102002DE9F84FDFF8A4B00025254BF3
:106D34001B78ECB2A34201D8BDE8F88F224BD3F8FC
:106D4400008018F8349001204A46002105F0A8FB81
:106D5400DBE9002300EA020601EA03073E4308EBED
:106D6400C40A2CD023EA010122EA0000CBE9000185
:106D7400484601F0D9FE18F83440814622460120E5
:106D8400002105F08DFB114BD3E900672246064034
:106D94000F404846002105F083FB8F4208BF86421E
:106DA4000DD1DAF8043053B19AF801104A1E514259
:106DB4005141A1EB09004142414120469847013528
:106DC400B5E700BF8C300020C8300020B830002068
:106DD400C03000202DE9F84307461F4800F0B4FBFB
:106DE400002837D13A460120002105F059FB1B4BFE
:106DF40004460D46D3E9000104EA000805EA010946
:106E040058EA09021E461FD1384601F08DFE144B84
:106E140098B1D3E9000120432943C3E90001D6E92D
:106E240000231D430F4B0C4819681443C6E9004561
:106E34000022BDE8F84300F041BBD3E9000120EA99
:106E4400040021EA0501E8E720EA040421EA050533
:106E5400C3E90045BDE8F88394300020C030002029
:106E6400B830002090300020042AF7B505460C46BF
:106E7400164638D901F094FDC8B11C4B1C491D605D
:106E84001C4B1D4F1C701D4B00221E600023C1E9CA
:106E940000231B49C1E90023013CE4B20026FF2C76
:106EA4000BD1184A1848002100F0F6FA03E001F06B
:106EB4003FFD0028E1D003B0F0BD23B205EBC302CF
:106EC400032192788DF804108DF8052001A93A4623
:106ED40015F833008DF8066001F06CFD013CE4B256
:106EE4000028DCD0E7E70720E5E700BFC830002032
:106EF400B83000208C300020D96D02009030002082
:106F0400C0300020296D020014D2020070B5084D73
:106F1400084E00242B789C4201D3002070BD3368B6
:106F2400012113F8340001F0B9FD0134F2E700BF88
:106F34008C300020C83000201FB50021039001AA26
:106F440044F201000191029100F004F805B05DF8EB
:106F540004FB000010B572B6FFF7BCFDFFF7A8FBF9
:106F64000028FBD1104C11492088000440F0010096
:106F7400FFF700FD0E4B1B68DB0700D500BE208821
:106F84000C49000440F00200FFF7F4FCBFF34F8FFC
:106F940009490A4BCA6802F4E0621343CB60BFF3A9
:106FA4004F8F00BFFDE700BFB02A002018D20200B7
:106FB400F0ED00E024D2020000ED00E00400FA0548
:106FC40049B152B1531E1A4007D1826001608380D7
:106FD400C260104670470E2070470920704710B5F4
:106FE4008468C2688388121B934208D3C268134022
:106FF4000268D154C3680133C360002010BD04206B
:1070040010BD8268C3689A420AD08268838813409C
:107014000268D35C0B70836801338360002070477F
:1070240005207047094A537891780133DBB29942BD
:1070340008BF0023117899421FBF037050781823AA
:1070440003FB002014BF043000207047CC30002024
:1070540073B5054602A8002400F8014D0E4600F061
:1070640095FB0DF10600FFF7DDFF90B106700A4BAA
:107074009DF8062045605A709DF8070000F0AAFBB1
:1070840024B9064B4FF48012C3F80021204602B005
:1070940070BD0424F0E700BFCC30002000E100E024
:1070A400024B4FF43C6043F00103184740D2020006
:1070B40038B50C4B0C4C4FF40032C3F8802001253A
:1070C4004FF48033C4F84833C4F808336560FFF7DD
:1070D400E7FF064BA56000241C60FFF7E1FF044BAB
:1070E4001C7038BD00E100E000100140E8310020D0
:1070F400D9310020F8B51F4B1F491B680025C1F882
:107104004051C1F84451C1F84851C1F84C51C1F83B
:107114000051C1F804514BB3D1F80445174909682B
:10712400641A24F07F442F461A68A24209D8A41A8C
:1071340015441A7CDE691AB11F745A69986990471C
:10714400AEB90F4B0F4A197813788B4205D101332E
:10715400DBB2022B08BF0023137012780A4B43F8EA
:1071640022500A4B4FF48012C3F80021F8BD334675
:10717400DAE700BFEC31002000100140E8310020C4
:10718400E4310020E5310020DC31002000E100E0A2
:107194002DE9F74F9C4A9D49137809789C4E9942F2
:1071A40057D00133DBB2022B08BF00231370994977
:1071B4001278994B0F6853F822003B1823F07F4351
:1071C40000220B60336815461446964613B942B143
:1071D400336006E01968814229D902B13360091A83
:1071E40019604FF0010833688C4FDFF83CB200930C
:1071F4004FF00009002D61D02C46ED69854B606885
:107204001A68831A23F07F41854B9942A36800F2E0
:10721400B7800B44236000236360A360E361336899
:1072240001222274002B40F0B3803460E2E7401A5C
:107234000C44D968C3F800E0D3F81CC031B13A1942
:1072440022F07F42DD615A6099601D466346012247
:10725400BCE70025A846C6E7531CB978DBB29942BF
:107264003B704FF0180303FB027208BF3D701379A3
:107274009468022B1BD0032B11D0012B1ED1217C2F
:10728400E1B9D36863601369A3605369E3609369E8
:10729400A361644B1B78002BB0D06160AEE7002380
:1072A40035681A46002D67D143B1356006E032686F
:1072B40013469246002B5AD1002323743A787B78E4
:1072C4009342C9D1B9F1000F06D13368009A9A42AA
:1072D40002D1B8F1000F44D03368002B73D0D3F837
:1072E40000A0514D4B4BD5F804751C68DFF8408164
:1072F4003E1B98F8003026F07F4603369BB94FF4C6
:107304008033C5F84433C5F80433484B4FF4003296
:107314004FF00109C3F880211A60C5F80090FFF707
:10732400BFFE88F80090B2452CBF5444A41924F041
:107334007F44C5F84045D5F80435DB1B23F07F4373
:10734400E41B033324F07F44A3420AD9D5F804355F
:10735400C5F84035FFF7A4FE344B4FF40032C3F8B0
:107364000021304B00221A7003B0BDE8F08F9C421C
:107374002CD09A46DB699DE72A740123ED6991E7D5
:10738400121A22F07F429A4234BF9B1A002341E72B
:10739400226819688A420BD88A1A1A60E36144E7A2
:1073A400521AD969184661B92260E161DC6121E7AA
:1073B400184619689142F3D3891A1960194603468D
:1073C400F2E70B46F5E7FFF773FECAE754450DD124
:1073D400D369336053B90F4801920121CBF80810E7
:1073E4000360104B1970FFF75BFE019AE169236893
:1073F400CAF81C1011B1086803440B6033689A4240
:1074040018BF4FF0010957E7E4310020E5310020AF
:10741400EC310020E8310020DC310020CC300020A9
:10742400FEFF7F00D83100200010014000E100E0A1
:10743400D931002008B5FFF73BFE114B00200B2289
:1074440018709A7058700F4B18600F4B18700F4BD0
:1074540018700F4B4FF48012E021C3F8802183F899
:1074640014131A6002F18042A2F56F22C2F80805D3
:1074740083F81113074BD2F804251A6008BD00BF26
:10748400CC300020EC310020E4310020E531002034
:1074940000E100E0E8310020074B9B784BB132B1AA
:1074A40028B10368187C20B959745A6170470720C1
:1074B40070470820704700BFCC3000202DE9F74307
:1074C4001E4FBB7805460E469046ABB3A0B30429C5
:1074D40030D9436983B3437C02A80024012B00F80C
:1074E400014D0CBF8946A14600F050F90DF106008C
:1074F400FFF798FDE0B101230370114B4560D3F809
:10750400043583609DF80630C660C0F81090C0F85A
:1075140014807B709DF8070000F05CF924B9094BD6
:107524004FF48012C3F80021204603B0BDE8F08375
:107534000424EFE70724F7E70824F5E7CC3000201C
:107544000010014000E100E0064A92783AB130B1FF
:10755400426922B1002202740221FFF779BD08209A
:10756400704700BFCC3000200648074A037807491B
:10757400D35C012213B1043001F0FCBF0C3001F0E4
:10758400CDBD00BFE82A0020703200201832002050
:107594000648074A03780749D35C012213B1043033
:1075A40001F096BF0C3001F061BD00BFE82A002055
:1075B400703200201932002037B50578012D04D02F
:1075C40035D3022D28D003B030BD43681F4C197841
:1075D4002046FFF704FD78B11D4B01908DF8005053
:1075E4001B6868469847A168E368A2885B1A9A42B8
:1075F4000ED3FFF7B9FFE6E7A268E3689A42F2D038
:1076040002AB134A03F8080D126818469047EAE7DC
:10761400104B01221A70D6E7C36801938DF800500D
:10762400FFF7A2FF0A4B1B6868469847CBE70A4955
:107634000A48FFF7E6FC10B9FFF7AAFFC3E702A860
:10764400032300F8083D024B1B68EEE7F4310020E9
:10765400F0310020043200201932002008320020CA
:10766400F0B51F46234B89B006461A600C46002924
:107674003DD08A8820480968FFF7A2FC002834D14D
:10768400A289A1681D48FFF79BFC00282DD11C4D41
:107694000FCD6C460FC495E80F0084E80F007369A2
:1076A4000693337C174A18488DF81C70003318BFB2
:1076B40001238DF81430737C002B14BF0E23002398
:1076C4008DF81530F3680293B3680393336801931C
:1076D40069467368009301F05FF830B90B4B18707A
:1076E4003368013301D0FFF73FFF09B0F0BD072035
:1076F400FBE700BFF0310020F43100200832002005
:1077040048D20200BD750200E82A0020043200209D
:1077140070B5084C014608482678FFF772FC054608
:1077240036B100232370FFF71FFF08B1FFF704FCF5
:10773400284670BD04320020F431002010B5014603
:107744000E48FFF74CFC0446A8B90D480D4A0378CF
:10775400D35C63B1043001F001FF60B90A49074802
:10776400FFF74FFC38B9BDE81040FFF711BF0C30EC
:1077740001F0C8FCF1E7204610BD00BF083200202C
:10778400E82A0020703200201932002070B5EFF38F
:10779400108672B60C4A946801239CB993600B4B13
:1077A4000B4DD3F8801029401160C3F88050D3F8F2
:1077B400841051604FF0FF32C3F88420047006B97E
:1077C40062B670BD0370FAE71C32002000E100E0ED
:1077D400FC06FFBD084B9A6810B55AB150B9EFF3D7
:1077E400108272B605491C680C605C684C60986035
:1077F40002B962B610BD00BF1C32002000E100E0F7
:1078040037B550E8023F1FFAA3F5C488A54202BF6A
:10781400BFF32F8F00220DE0C48925448489A5423B
:1078240028BF2D1BC3EA054540E80254002CE8D1CB
:107834004FF001028DF803200193019B9DF8032072
:107844000B6002F0FF0322B14B880068184403B0B8
:1078540030BD1846FBE70A884B889A4209D150E8A4
:10786400022FC2EA224240E80223002BF7D1012072
:1078740070470020704701F01F024B09012191401D
:1078840000EB830000F01FB801F01F0301229A40AF
:107894004B0900EB8300D14300F02FB84B0901F0F2
:1078A4001F0150F82300C84000F00100704700B5E4
:1078B40050E8002F0B4640E8003E9EF0000FF7D141
:1078C40010465DF804FB00B550E8003F43EA0102AE
:1078D40040E8002E9EF0000FF6D110465DF804FB40
:1078E40000B550E8002F02EA010340E8003E9EF094
:1078F400000FF6D110465DF804FB00B550E8003FD8
:1079040003EA010240E8002E9EF0000FF6D1104673
:107914005DF804FB00B550E8003F03EB010240E8CA
:10792400002E9EF0000FF6D110465DF804FB00B562
:1079340050E8003FA3EB010240E8002E9EF0000F48
:10794400F6D110465DF804FB0121FFF7BCBF00210E
:10795400FFF7C6BF10B590B14268836801689B1AEF
:10796400DBB20A60013BDBB2FF2B026802D10020CC
:10797400107110BD11684C1C14600B70F2E70E20DE
:1079840010BD37B5054602A8002400F8014DFFF7E5
:10799400FDFE2A686B68116899420ED9481E106072
:1079A40011F8014CEB68A98A01FB0434AB68117926
:1079B4001B1ADBB2994238BF13719DF80700FFF719
:1079C40009FF204603B030BD37B5054602A80023A1
:1079D40000F8013D0C46FFF7D9FE2A681368591CCC
:1079E4001160E968641AA98AB4FBF1F41C709DF86B
:1079F4000700FFF7EFFE03B030BD826810B5044600
:107A04002AB143690168006998470023A36010BD47
:107A14000EB403B5039929B102AA04AB42F8043D9C
:107A240000F06CF802B05DF804EB03B070478268B4
:107A340030B40468551C8560A154826843689A4236
:107A440002D330BCFFF7D9BF30BC70472DE9F84FE3
:107A54000A9C99460B9B1746824688460A4601268D
:107A6400BA420FD24E4538BF4E4613F0010B01D136
:107A740064B900240125B9F1010F1AD909F1FF39BC
:107A84007D43F8E7B2FBF7F20136E9E79B070ED531
:107A9400B9F1000F0CBF30252025A642EAD2013CE3
:107AA40029465046FFF7C3FF002CF6D1E1E7202515
:107AB400F3E7B8FBF5F39F42E2D9DFF83C90B8FB5B
:107AC400F5F3504619F8031005FB1388FFF7AFFFD1
:107AD400B5FBF7F5002DF2D1BBF1000F0AD03CB98C
:107AE400BDE8F88F013C20215046FFF7A0FF0CB100
:107AF400A642F7D3BDE8F88F68D202002DE9F74F0C
:107B0400054617460C46002900F0358114F8011B80
:107B140049B92B7B002B00F02E81284603B0BDE829
:107B2400F04FFFF76ABF252940F021812346002644
:107B3400194611F8012B2D2A24D0302A26D02B2ABD
:107B440027D000242A2A994603F1010124D13B6855
:107B54001A1D1B683A601C44894699F800302E2B84
:107B640025D109F101014FF00008894611F8012BD4
:107B7400A2F1300009281CD80A2303FB0823A3F12F
:107B84003008F2E746F001060B46D1E746F002065C
:107B9400FAE746F00406F7E71A780B46A2F130013B
:107BA4000929DAD80A2101FB0424303CCAE74FF042
:107BB400000899F8001001F0FB02682A02D119F8B4
:107BC400011FF8E769290FD04BD8582965D007D889
:107BD40025296ED009F101042378002B96D198E76A
:107BE400632962D06429F5D13A68D2F800A0111D46
:107BF4008AEAEA723960A2EBEA724FF0010B092AB1
:107C04005BDCC34538BFC3462CB1BAF1000F01DBBE
:107C1400710700D5013CB20702D5B8F1000F04D0BA
:107C2400F30702D4002C4ED10024BAF1000F52DA2B
:107C3400CAF1000A2D212846FFF7F9FE06F00302D7
:107C4400022A05D1B8F1000F02D1002C47D100243B
:107C54008DE8500043460A2251462846FFF7F6FEB7
:107C6400B8E773294CD014D87029B3D13B681A1DD6
:107C74003A60302128461C68FFF7D9FE782128464F
:107C8400FFF7D5FE00230193082300931022214619
:107C9400E3E775292BD078299CD139680A1D3A600D
:107CA40043468DE85000102228E03B681A1D1978DD
:107CB4003A602846FFF7BBFE8CE70A230BF1010B61
:107CC40092FBF3F29BE7A345AFD220212846013C67
:107CD400FFF7ADFEA6E77007B0D52B21ABE7A345B0
:107CE400B6D230212846013CFFF7A1FEADE7396842
:107CF4000A1D3A608DE8500043460A220968ACE741
:107D04003B681A1D3A60F107D3F800A012D5564615
:107D1400A6EB0A0B16F8011B41B95C457FF65AAF76
:107D240020212846013CFFF782FEF6E72846FFF7AC
:107D34007EFEEDE7BAF1000F11D0504604F070FD5D
:107D44000646B44200D964B90AF1FF3A1AF8011F91
:107D540000293FF43FAF2846FFF769FEF6E7564691
:107D6400EFE720212846013CFFF761FEE9E72846BA
:107D7400FFF75DFE30E703B0BDE8F08F70B508B1E2
:107D84000368B3B90D4D0E4B14225B1B0024B3FBE7
:107D9400F2F302FB03F6A64201D1002070BD2B5979
:107DA40028190BB91434F6E7DB6998470028F9D091
:107DB40070BDDB69BDE87040184700BFDC2A0020B5
:107DC400DC2A002029DF704728DF704770B503687C
:107DD4009D6886B004460E466DB11822002168469F
:107DE40004F0C8FCA3680593237901962BB1012BF9
:107DF4000DD06846A84706B070BD01238DF8003049
:107E040023690293E368039363690493F1E702230C
:107E14008DF80030E3681B030293F5E7034B187AEF
:107E24000122B0FA80F05A744009704728320020C9
:107E340070B5244D244E2B7A2C463BB92349244853
:107E4400FFF7DEFC306008B9686070BD022323725E
:107E540033681A7972B1012A24D018460321FFF736
:107E6400B5FF00232372636018491948BDE87040C8
:107E7400FFF7F1BC98695A69D9681D69121AB2F5FD
:107E8400805F28BF4FF480529208012A014438BF12
:107E940001222844FFF796FF50B11128DDD10123B8
:107EA400237270BDD8681A691044FFF78DFFF3E799
:107EB400237C2BB90146BDE87040022000F00AB8CB
:107EC40070BD00BF28320020403200203C32002028
:107ED400FC2A002038B5831E012B45D8234C237A75
:107EE400002B41D0022B09D1032830D0204B1B6832
:107EF4000022E2601A793AB1012A22D0637C7BBB6A
:107F0400BDE83840FFF794BF9A6959698D1AB5F5F1
:107F1400805F94BF521902F580529A619142EDD16B
:107F240002284FF0000308BF19462372104B18BFF4
:107F34000D211868FFF74AFF0E490F48FFF78BFC25
:107F4400DCE71A6901321A615B699A42E7E7E36880
:107F54000133082B01D8E360D0E70023E360DFE7B7
:107F6400BDE8384004F00AB938BD00BF283200200B
:107F7400403200203C320020FC2A002000F0FD03A7
:107F8400012B08D1044B00225A74421E5042504126
:107F94001874FFF74DBF704728320020FFF7DABC92
:107FA400F8B546790446721E00239342246804D32C
:107FB40001460025B54202D3F8BD0133F5E70F6849
:107FC4002046FFF701FD01353946F3E72DE9F84373
:107FD400878ACD1C8046FFF7D4FC043F3D44044609
:107FE400B5FBF7F5002650B10123EDB206714371DC
:107FF400C780013DC0F800808146AE4202D32046CE
:10800400BDE8F8834046FFF7BCFC074648B16379F6
:10801400013363710136C9F80000C0F8008081465D
:10802400EBE72046FFF7BCFF3846BDE8F8830121A3
:108034000430FFF76FBC10B5012104460430FFF78C
:1080440076FC10F0FF0F04D12046BDE81040FFF786
:10805400A7BF10BD2DE9F843C68804330F46B3FB10
:10806400F6F4154606FB143380463CB9A6EB030927
:10807400A94528BFA9462DB9BDE8F883D8F80080E2
:10808400013CF2E7043308EB0300A5EB09054A467B
:10809400391904F045FBAE424C44D8F80080B1468F
:1080A4004FF0000328BFA946E5E72DE9F843C68849
:1080B4000F46191D1546B1FBF6F4804606FB141154
:1080C4003CB9A6EB0109A94528BFA9462DB9BDE8CD
:1080D400F883D8F80080013CF2E704314144A5EB71
:1080E40009054A46381904F01BFBAE424C44D8F843
:1080F4000080B1464FF0000128BFA946E6E741DF02
:1081040070470000064B10B500241C70054B1C6022
:10811400BFF35F8F0449054800F030F8204610BDD6
:108124004C3200205032002094D20200443200200D
:1081340007B502A8002300F8013DFFF727FBF1EE85
:10814400103A23F09F03E1EE103ABFF35F8F0A4B1E
:108154004022C3F884219DF80700FFF73BFB04F09D
:108164001DF820B1FFF7CBFF03B05DF804FB20BF7F
:1081740040BF20BFF8E700BF00E100E00B684A6899
:108184004360934208BF0023016008BF4360704707
:10819400436843B10268916852680B449342436058
:1081A40004BF0023436070470D4930B5A1F59472B4
:1081B4000225914201D8002030BD8B1ADB1093FBBD
:1081C400F5F302EBC30452F83330834205D802D2EC
:1081D40004F10802EDE7606830BD2146E9E700BF1D
:1081E400E4D3020008B5FFF7DFFF024B002808BF05
:1081F400184608BDA9D2020010B50446C0B2FFF764
:108204009DFA204610BD0000094B1B78062B0CD1AB
:10821400084B1B681A0708D1074B186800F0F000D8
:10822400A0F130035842584170470020704700BF06
:10823400E00F00F0E40F00F0E80F00F00C4B1B78A7
:10824400062B10D10B4B1B681A070CD10A4B18686C
:1082540000F0F003302B08D000F0E000A0F1400360
:10826400584258417047002070470120704700BFB2
:10827400E00F00F0E40F00F0E80F00F008B5FFF79E
:10828400DDFF28B17F4B804A1B68C3F304231360CE
:10829400FFF7BAFF10B17D4B7D4A1A60FFF7CEFF9E
:1082A40028B17C4B7C4A1B68C3F342331360FFF74D
:1082B400ABFF20B1794AD36823F08073D360FFF712
:1082C400BDFF40B14FF080430022C3F80C21C3F836
:1082D4001021C3F83825FFF797FF10B1704B032224
:1082E4001A60FFF791FF40B16E4B05221A6001221C
:1082F4009A6700229A603F225A606B4B1B78062BC8
:1083040009D16A4B1B68190705D1694B1B6803F037
:10831400F003502B67D0FFF791FF28B1654B664AF5
:108324001B6803F04F031360FFF788FF48B14FF059
:108334008043D3F80024D20744BF6FF00102C3F88E
:1083440000245E4B1B68062B04D15D4B1B68062B77
:1083540000F091805B4AD2F8883043F47003C2F88D
:108364008830BFF34F8FBFF36F8F4FF01023D3F8D4
:108374000022002A03DBD3F80432002B2FDA524BFD
:108384000122C3F80425D3F80024002AFBD04FF0BF
:1083940010221521C2F80012D3F80024002AFBD0C1
:1083A4004FF010231522C3F80422474B1A46D3F882
:1083B40000140029FBD00021C3F80415D2F80034BE
:1083C400002BFBD0BFF34F8F3E49404BCA6802F4E9
:1083D400E0621343CB60BFF34F8F00BFFDE73C4B1C
:1083E4003C4A1A6008BD4FF080523B4BD2F804144B
:1083F400C3F82015D2F80814C3F82415D2F80C14C5
:10840400C3F82815D2F81014C3F82C15D2F8141494
:10841400C3F83015D2F81814C3F83415D2F81C1464
:10842400C3F84015D2F82014C3F84415D2F8241424
:10843400C3F84815D2F82814C3F84C15D2F82C14F4
:10844400C3F85015D2F83014C3F85415D2F83414C4
:10845400C3F86015D2F83814C3F86415D2F83C1484
:10846400C3F86815D2F84014C3F86C15D2F8442444
:10847400C3F870254FE7194A136843F48063136007
:1084840068E700BF240300104035014074C0074072
:108494000DF0ADBA440200103C050040F0ED00E0E0
:1084A400A005004010560040E00F00F0E40F00F07B
:1084B400E80F00F058020010E40E004030010010F4
:1084C4003401001000ED00E000E001400400FA0572
:1084D400102B00200090D00300C000403C17004047
:1084E400054A4FF0A043105CD3F8043523FA00F09A
:1084F400C04300F001007047A2D70200044B1A5C8D
:10850400012393404FF0A042C2F80C35704700BFDE
:10851400A2D70200044B1A5C012393404FF0A042FF
:10852400C2F80835704700BFA2D7020008B5002082
:10853400FFF7F0FF0120FFF7EDFF0220FFF7EAFF4E
:108544000320BDE80840FFF7E5BF08B50020FFF7AA
:10855400D5FF0120FFF7D2FF0220FFF7CFFF032052
:10856400BDE80840FFF7CABF074A4FF0A041105CBE
:10857400D1F804350122824022EA03001340C1F8F5
:108584000805C1F80C357047A2D70200054A4FF020
:10859400A043105CD3F8103523FA00F0C04300F078
:1085A400010070479ED702000D2809D00E2809D07B
:1085B4000F2809D010280CBF03204FF0FF3070475C
:1085C400002070470120704702207047014B185C5F
:1085D400704700BF9ED70200C20708B501460CD5FC
:1085E4004FF0A0430322C3F84427C3F84827C3F835
:1085F4004C27C3F85027FFF799FF8B070AD54FF094
:10860400A0430C22C3F83427C3F83827C3F83C2707
:10861400C3F8402708BD000038B5084C04F108032E
:108624000546002818BF1C4623682BB11A6822602F
:108634005B6828469847F7E738BD00BF5C320020E6
:1086440020B9054B01225A70FFF7E6BF012802D179
:10865400014A9070F8E770475432002020B9034B68
:1086640001225A70FFF7D8BF704700BF5432002070
:1086740038B50B4C237883B90A486360A36023613F
:10868400E36000F0D1F8054603F088FD08B900F076
:10869400D9F801232370284638BD8525FBE700BFA0
:1086A400543200204586020037B502A80023094C45
:1086B40000F8013DFFF76AF8E368013BE360E56811
:1086C40015B900F0D3F8A5709DF80700FFF782F8FC
:1086D40003B030BD54320020012813B509D003D3B0
:1086E40003281BD002B010BD0F4B0122C3F8802019
:1086F400F8E702A800230D4C00F8013DFFF746F807
:1087040023780BB9FFF7B4FFE3689DF80700013342
:10871400E3600123A370FFF75DF8E3E700F092F84C
:10872400FFF7C2FFDEE700BF00E100E054320020A3
:108734001FB503788DF8003043680193037A8DF8F0
:108744000830C3680393054A054B684653F8213043
:1087540052F82110984705B05DF804FB68320020F8
:108764006C3200201FB503788DF800304368019304
:1087740083688DF80830C3680393054A054B68463F
:1087840053F8213052F82110984705B05DF804FBE6
:10879400683200206C320020F0B5194B067891F84D
:1087A4001DC043F82620174B96460A6943F8262035
:1087B400154B03F806C00C4607460FCC89B06D462E
:1087C4000FC594E80F0085E80F000496BCF1000F74
:1087D4000AD0BEF1000F0D4A694608BF0022381DB9
:1087E40000F0ACFD09B0F0BDBEF1000F084A6946C7
:1087F40008BF002207F10C0000F076FBF2E700BF8F
:108804006C3200206832002070320020358702006C
:108814006987020000F180400023036082B003688E
:108824000193019B02B07047054A13792BB90121CA
:10883400106011715371184670478520704700BF4E
:1088440074320020084B1A68D20706D4E02283F859
:1088540000230122C3F880211A604FF080430122D3
:10886400C3F81825704700BF00E100E0044B012263
:108874001A604FF08042D2F81834DB03FBD47047FF
:108884000C000040124B1B6810B573B14FF480709C
:10889400FFF7C0FF4FF080430122C3F808230D4BBC
:1088A400587910B95A711B6898470B4B1B6873B100
:1088B4004FF48270FFF7AEFF4FF080430222C3F8FB
:1088C4000823044B01201B68BDE81040184710BD65
:1088D40000010040743200200401004000F1804097
:1088E40000F5C040002382B0036003680193019B3C
:1088F40002B07047800000F1A040D0F8003723F4A4
:108904004033C0F80037D0F8003743EA0141C0F8DB
:1089140000177047054B4FF0FF32072843F820201B
:1089240084BF1B1883F84820704700BF7C320020A6
:1089340010B5174C94F8583043BBFF21E2180133AB
:10894400202B82F83010F9D10021C8B2FFF7E2FFE2
:1089540001310C29F9D1002104220E4803F00AFF49
:108964000D4BE02283F806234022C3F880214FF404
:10897400BE701A60FFF7B2FF084B4FF00042C3F815
:108984000423012384F85830002010BD082010BDB2
:108994007C320020D032002000E100E00060004082
:1089A400034B93F85800003018BF0120704700BFF4
:1089B4007C320020F0B5374D2B1893F93030002B62
:1089C40065DA8E78C6F34006002E0BBF0823002319
:1089D4000C240824A34201D10420F0BD55F82370CF
:1089E400013740D12F185CB287F8304045F8232076
:1089F40016B92B4483F848008B785A0713D4DE0742
:108A040033D5830003F1A043D3F8002722F00202F8
:108A1400C3F80027204EC20800F007070123BB401B
:108A2400B75C3B43B3548B780A7813F0020325D028
:108A3400A30003F1804303F5C0430002D3F81015EB
:108A440021F4473121F44071C3F810151204D3F80E
:108A5400101500F4F85002F4403210430843C3F8F0
:108A640010050020F0BD0133B4E74A7800F5E07347
:108A74004FF0A046920046F82320CBE7083C2C4454
:108A840094F8500040EA821284F85020E9E7082064
:108A9400F0BD00BF7C320020D032002038B5204C1D
:108AA400251895F93020072A18DD224492F8483019
:108AB4009B09032B0DD14FF0A043D3F81035C340CD
:108AC40013F0010F0CBF02210321BDE83840FFF76A
:108AD40011BF012B14BF03210221F6E7D3B2072BE8
:108AE4001CD8930003F1804303F5C043D3F8100569
:108AF40040F00100C3F8100502F14000800080B28C
:108B0400FFF7ECFE51B195F9303054F823302BB116
:108B1400012303FA02F2034BC3F8042338BD00BF58
:108B24007C320020006000404FF0A043D3F81035A1
:108B340023FA00F000F00100704700002DE9FF4720
:108B440000245A4A5A4E5B4D01940121A2F5C040BB
:108B540052F8043B012B80B206D1D6F804330B4201
:108B640002D0FFF7BBFE0C43AA424FEA4101EDD10C
:108B7400514B1B68012B0AD14FF4BE70FFF7AEFEB8
:108B84004FF0A04344F00044D3F81035019314F09F
:108B9400FF0F38D1002C80F2858000230293DFF888
:108BA4001C914FF0FF33039301260024A0464FF09D
:108BB400A04709EB080393F95020531C61D0D2B2AB
:108BC40022F0C005E90804A8084402F0070310F8DD
:108BD40004EC06FA03F31EEA030F52D009EB050E68
:108BE40092099EF930E059F82EA0BAF1000F26D16F
:108BF400032A46D10DF1080C1CF801E04EEA030EDD
:108C04000CF801E01DE02D4F01260025344210D060
:108C1400AB0003F1804303F5C043D3F81005D3F848
:108C2400101557F8253023B1C1F30141C0F30420D6
:108C340098470135082D4FEA4606E7D1AAE7032AEB
:108C4400D8D005F5E07110F80C0C57F82110184233
:108C5400C1F3014105D0022913D1032A0BD11146D6
:108C640004E003290DD1032A05D102212846FFF788
:108C740041FE0134E4B2BAF1000F02D01146284695
:108C8400D04708F10108B8F1040F92D154B14FF064
:108C9400A043019AD3F81035934203D00193029B69
:108CA400039382E704B0BDE8F08700BF0061004091
:108CB40000600040206100407C6100407C32002064
:108CC400014B1B68184700BFD83200200D4B984257
:108CD40037B50D4610D102A8002300F8013DFEF778
:108CE40055FD094B1C7914B901221D601A719DF8B8
:108CF4000700FEF76FFD14B9002003B030BD11204A
:108D0400FBE700BF00200040D8320020002343507E
:108D140082B043580193019B02B070470A4610B5D4
:108D24004FF48E71FFF7F2FF136A9168C95C136AFE
:108D340001331362C0F81C1510BD024608B54FF488
:108D440092710068FFF7E2FF4FF484711068FFF737
:108D5400DDFF136801221A6008BD8B690A4610B54D
:108D64004FF4847123B9FFF7D1FFD0F8183510BD43
:108D7400FFF7CCFF536AD168D0F81805C854536A7A
:108D84000133536210BD00001FB501238DF800307C
:108D9400044B02900191684693E80600904705B0A1
:108DA4005DF804FBE032002030B54D4AD2F80433BC
:108DB40013F4007F85B015464FD0D2F82431002B30
:108DC4004BD04FF492711046FFF7A0FF4FF401739C
:108DD400C2F80833434B93F8291009B901215160B3
:108DE4003F4902228DF80020D1F88024C1F8802464
:108DF40003929A690292DA68019200229A61DA6116
:108E0400684693E8060090473548D0F81C315BB1BA
:108E140034490A6A4B699A420A464CD291F828307E
:108E2400002B48D1FFF77AFF2D4AD2F8443193B191
:108E34004FF4A2711046FFF769FF2A4B93F82910EB
:108E440009B1012111609A692AB100229A61586A14
:108E5400D968FFF799FF05B030BDD5F804335B0737
:108E6400D2D5D5F80831002BCED01E4C1C48214653
:108E7400FFF773FF636AA2699A422346C4D1E26989
:108E840052B12369E168E3600023606AA261E3618F
:108E94006362FFF779FFB7E794F829200AB9012242
:108EA4006A600F4A4FF40171C2F8081300229A61F4
:108EB400586AD968EDE74FF48E710948FFF726FF29
:108EC40051690029B0D00023029191688DF80030D7
:108ED40001915361684692E80A009847A4E700BFED
:108EE40000200040E03200202DE9F8435B4B047978
:108EF40091462C2202FB0432064692F82A200D46A3
:108F04009846002A40F0A58055490068FFF7DEFE28
:108F14000746002840F09F8029683368481C0BD01E
:108F24004FF0A04001228A40C0F8082501F5E07204
:108F34004FF0030E40F822E06868421C1FBF00F5A2
:108F4400E0724FF0A04E4FF0000C4EF822C0AA6918
:108F540095F814E0C3F824256A7DBEF1010F4EEAAA
:108F64000202C3F86C25C3F81405C3F80C151DD10F
:108F7400AA68511C1FBF02F5E0714FF0A0404FF0EA
:108F8400000E40F821E0E968481C0BD04FF0A04ED9
:108F940001208840CEF8080501F5E0704FF0030C7D
:108FA4004EF820C0C3F80815C3F810252C236343DA
:108FB40008EB0302C2F804902A6948F80320B9F1C7
:108FC400000F33D04FF48E7130682D7FFFF79EFE73
:108FD40030684FF4A271FFF799FE3268214BC2F852
:108FE4000433120B53B2002BA8BF03F160404FEAC5
:108FF40053134FEA4511BABF1B4802F00F0500F5A1
:1090040061404FEA8303B4BFC9B2C9B203F16043FC
:10901400B4BF415580F8001303F5614302F01F0209
:10902400012101FA02F2C3F880211A603368042294
:10903400C3F800252C2303FB048300229A61DA6120
:1090440083F829205A61012283F82A203846BDE892
:10905400F8830827FAE71127F8E700BFE032002079
:10906400AD8D02008000020014ED00E02DE9F8430C
:10907400234F06794FF02C0909FB06748046656975
:10908400002D37D16261A16025624FF48E710068B2
:1090940084F82850FFF73AFED8F8000001238360D3
:1090A4002146FFF73BFE6368A14633BBD8F8005066
:1090B400226A63699A4212D3D8F80030D3F81C218B
:1090C400002AFBD00122DA6000202C2303FB067661
:1090D40000237361BDE8F88394F8283043B9D5F8C8
:1090E4001C31002BF8D049462846FFF717FEDFE76E
:1090F4000F20EAE71120BDE8F8832846BDE8F8838D
:10910400E03200200379044A2C2101FB032358692F
:10911400003018BF01207047E03200202DE9F843E9
:109124003D4D07792C2303FB075306465C6824B1A5
:1091340003684FF40170C3F808032C2303FB07539F
:10914400986940B3D869002862D024B133684FF4D9
:109154000172C3F804231120BDE8F883002A44D126
:10916400002C42D14146FFF7F8FDD9F82430D9F854
:1091740018209A422DD8224637E05A6045E03368D9
:109184004FF40172C3F804233FE00320BDE8F883E1
:109194000F20BDE8F8839A61D9605862D8612C2405
:1091A40004FB075393F829301BB910B93046FFF775
:1091B400C4FD04FB07535B68002BE0D14FF4A2719C
:1091C4003068FFF7A3FD4FF02C0907FB045809FB97
:1091D40007593068D0F82421D0F80831D0F8444138
:1091E400002BBBD10CB9002AF3D02C2303FB075569
:1091F4000023AB61002AC8D1002CC9D195F82910ED
:10920400336801220029B8D01A600020BDE8F88331
:109214001961DA610120C2E7E032002000234350E3
:1092240082B043580193019B02B070471FB50123DC
:109234008DF80030054B8DF808000191684693E8DD
:109244000600904705B05DF804FB00BF0C33002016
:109254007FB5384AD2F82461002E49D010464FF425
:109264009271FFF7DBFF02238DF80030D2F88034CF
:10927400C2F880340393D2F83C358DF808302E4B75
:10928400DA68019200229A61DA61684693E806007E
:109294009047284AD2F8443173B14FF4A271104672
:1092A400FFF7BCFF244B996931B100219961D2F8D1
:1092B4003C05D968FFF7BAFF1E4AD2F82031ABB19A
:1092C4004FF490711046FFF7A9FF1B4B596969B120
:1092D400D2F84C158DF80810002299688DF80020FA
:1092E40001915A61684693E80600904704B070BD46
:1092F400D2F81031002BCCD04FF488711046FFF710
:109304008DFF0D4BD2F83C0599698842C1D1DC69C7
:109314006CB1D2F80052D96825F02005C2F8005289
:109324001A699C61DA60DE61FFF780FFB1E79C6136
:10933400D968F9E7002000400C3300202DE9F843F8
:109344005F4B06799146242202FB0632044692F8CA
:1093540020200D469846002A40F0AD805949006807
:10936400FFF7B4FC0746002840F0A780296823686B
:10937400481C0BD04FF0A04001228A40C0F80825B9
:1093840001F5E0724FF0030E40F822E06868421CD9
:109394001FBF00F5E0724FF0A04E4FF0000C4EF8E6
:1093A40022C0AA6995F814E0C3F824256A7DBEF1A9
:1093B400010F4EEA0202C3F86C25C3F80C15C3F87A
:1093C40014051DD1AA68511C1FBF02F5E0714FF0AE
:1093D400A0404FF0000E40F821E0E968481C0BD093
:1093E4004FF0A04E01208840CEF8080501F5E0704A
:1093F4004FF0030C4EF820C0C3F80815C3F810252D
:109404002423734308EB0302C2F804902A6948F842
:109414000320B9F1000F3DD04FF4887120682D7FEF
:10942400FFF7FCFE4FF490712068FFF7F7FE4FF44E
:1094340092712068FFF7F2FE20684FF4A271FFF7E3
:10944400EDFE2268204BC2F80433120B53B2002BFA
:10945400A8BF03F160404FEA53134FEA4511BABF66
:109464001A4802F00F0500F561404FEA8303B4BFC8
:10947400C9B2C9B203F16043B4BF415580F80013C7
:1094840003F5614302F01F02012101FA02F2C3F85D
:1094940080211A6023680822C3F80025242303FBD3
:1094A400068300229A61DA615A61012283F820203E
:1094B4003846BDE8F8830827FAE71127F8E700BF24
:1094C4000C330020559202001003020014ED00E05A
:1094D40001F06043B3F1005F2DE9F041074632D15A
:1094E4001D4B0679242505FB063598466C696CBB33
:1094F4006A61A96000684FF49071FFF78FFE4FF422
:10950400AC713868FFF78AFE3B686A69A968C3F8DA
:109514004415C3F8482501229A606A68CAB9D3F889
:109524002011D3F8582149B9002AF8D00F20242358
:1095340003FB068600237361BDE8F081002A14BF93
:109544000F200020F3E71020BDE8F0811120BDE8D2
:10955400F0812046BDE8F0810C3300200379044AF1
:10956400242101FB03235869003018BF01207047F0
:109574000C330020F8B501F06043B3F1005F0446FA
:109584000F4628D10379314E242101FB0361486839
:1095940020B121684FF40475C1F80853242101FB5C
:1095A40003639D69CDB1D96900294AD020B12368EC
:1095B4004FF40472C3F804231120F8BDD3F8002239
:1095C40042F02002C3F800221DE04FF40472C3F8F5
:1095D40004230020F8BD1020F8BD9A61DF60DD612E
:1095E4004FF488712068FFF719FE4FF4A2712068C8
:1095F400FFF714FE2368C3F83475C3F83825002D2B
:10960400DCD101221A602279242101FB026149681C
:109614000029DAD1D3F81041D3F84411D3F8240146
:1096240014B909B90028F5D0242303FB02660023EA
:10963400984214BF032018469942B36118BF0F2003
:10964400F8BD1F61DA610125CAE700BF0C330020B1
:109654002DE9F041494C2379002B40F08B8085792A
:1096640090F8078090F808C0477A90F80AE0C66836
:10967400027C8DB9012F04D1012A0DD10720BDE848
:10968400F081022F08D1082A9DBF40F25513D34020
:10969400DB430123DB07F1D5394BC3F80455C3F889
:1096A4002485C3F820C5C3F81C75C3F828E5C3F89E
:1096B40018254EB9C3F8106503784FF0A0424DB198
:1096C40003F5E073002508E00122C3F81465C3F82C
:1096D4001025F1E703F5E073032542F8235043789E
:1096E40003F5E07342F823508678FF2E1FBF4FF036
:1096F400A04306F5E072032543F82250C27808BF60
:109704004FF0FF36FF2A1FBF02F5E0754FF0A0436C
:10971400032743F82570037908BF4FF0FF32FF2B6E
:109724001FBF03F5E0774FF0A0454FF0000E45F85A
:1097340027E0134D90F800E04778C5F864E508BFCA
:109744004FF0FF33C5F86875C5F86065C5F8702536
:10975400C5F86C3543790B4A21605B01DBB282F8B2
:1097640025332023C2F88431536001232371002060
:10977400BDE8F0810820BDE8F08100BF303300204F
:109784000050024000E100E030B5364B1A79012A5E
:1097940085B00D4662D1026822B102F06041B1F198
:1097A400005F5DD1416821B101F06041B1F1005F1A
:1097B40056D15979003218BF012262F30001597160
:1097C4004268DD80111C5A7918BF012161F34102FE
:1097D40002F0F3026FF304125A7103C8224A82E8BA
:1097E4000300224A9C68D968002018615861C2F8B5
:1097F4005055C2F83845241A18BF0124C2F8084548
:10980400C2F84015091A18BF0121C2F80C15022428
:109814000121C2F800151C71154C206024680394C2
:10982400039C144C206024680294029C124C206017
:1098340024680194019C5C7914F0010F14BF022385
:10984400034614F0020F14BF2024044643F004031B
:109854002343C2F80433116005B030BD0820FBE790
:109864001020F9E730330020383300200050024044
:10987400045102401451024008510240054B5A79E8
:109884006FF304125A71044B2222C3F808230122F5
:109894005A607047303300200050024008B5FFF78B
:1098A400EDFF0A4B2022C3F88420094B4FF0FF320E
:1098B400C3F86425C3F86825C3F86025C3F8702588
:1098C400C3F86C25034B00221A7108BD00E100E0C7
:1098D40000500240303300207FB5394B394C1A68B0
:1098E4007AB100221A601B680093009B637943F0ED
:1098F400080303F01202122A637104BF43F0200329
:109904006371314B1A687AB100221A601B680193A3
:10991400019B637943F0040303F01102112A63717C
:1099240004BF43F020036371284B1A68B2B10025C9
:109934001D601B680293029B254B26480422C3F832
:1099440008232946C3F8005523689847236822480A
:10995400294698470123237104B070BD637903F04D
:109964000F020F2A08D0D80701D4190704D462794A
:109974009207F1D45B07EFD5637903F0F30313F097
:10998400200609D003F0D30343F010036371236866
:10999400012100209847DFE70E4A92E8030002AD58
:1099A40085E8030012E9030043F0100382E8030092
:1099B4006371A660E660236801212846EAE700BFD8
:1099C4001451024030330020045102400851024037
:1099D4000050024040330020383300200220FEF7BC
:1099E400C3BD000008B5094B1B7853B10020FEF736
:1099F40091FD0120FEF78EFD0320BDE80840FEF72F
:109A040089BDBDE80840FEF791BD00BF4933002081
:109A1400F8B5764C237805461BB100232370FFF775
:109A2400E1FF172D00F28380DFE805F00C13133FEC
:109A34005060717B83888388909494949494BEC27C
:109A4400C9D0DADAFFF7CEFF694B00241C70204638
:109A5400F8BD0020FEF744FDF8B10020FEF75AFDE2
:109A6400022D0CBF4FF4E1614FF47A61604B1D701D
:109A74004FF400404FF4FA740025E0FB01454FF425
:109A84007A7200232046294602F01EFD0022014678
:109A94005848BDE8F840FDF711BDFEF72FFD022D33
:109AA4000CBFC8214FF4C871E0E70020FEF718FD91
:109AB40040B10020FEF72EFD4FF4487103224C4BB9
:109AC4001A70D5E7FEF71AFDC821F7E70020FEF764
:109AD40007FD30B10020FEF71DFD4FF47A6104222A
:109AE400EDE7FEF70BFD4FF4C871F8E70020FEF731
:109AF400F7FC48B10020FEF70DFD3D4B05221A701E
:109B040041F69A110022C3E7FEF7F8FCF5E70020BE
:109B1400FEF72AFD364B06221A70002240F6CD418C
:109B2400B6E70020FEF7EAFC0722314B1A70002446
:109B34008DE701202070FEF717FDEEE7012020706D
:109B4400FEF712FD00224FF48041A1E7FEF7FDFC71
:109B54000C22EAE72848294EFDF7F6FCD5F1110559
:109B640004461CD0D8B9012D13D0C8235D434FF44B
:109B7400FA7000214FF400474FF47A720023C7FBB8
:109B8400050102F0A1FC224601461B48FDF796FCA4
:109B940004460220FEF7B2FC0123337057E702208B
:109BA400FEF7B8FC0023F8E7FFF71CFF1222BCE71E
:109BB400FFF718FF0020FEF7A1FC1322B5E7FFF71B
:109BC40011FF0120FEF79AFC1422AEE7FFF70AFF0B
:109BD4000020FEF793FC0120FEF790FC1522A4E779
:109BE400FEF7B3FC024B1D70A1E700BFBC3300209D
:109BF400C43300208C3300204C3300204933002030
:109C04002DE9F04781460D46FEF7CEFC03280446B5
:109C140031D8012D04D022D3022D2ED0BDE8F087F7
:109C2400194D47003A18A918AE5C4A7852B1DFF8CA
:109C34006880164842464FF40041FDF73FFC08B9DE
:109C440088F800903B192B449A78114B1A5596B119
:109C5400104B1B687BB13046BDE8F04718470B48F2
:109C6400FDF772FC084B04EB440213449E78084B46
:109C74001B5DB342EBD0BDE8F087034B00EB40041F
:109C84001C446678E3E700BFAC3300206C3300204B
:109C9400C5330020C033002048330020022100785F
:109CA400FFF7AEBF044B1B68DB0703D5034B1878E3
:109CB400FFF7AEBE704700BFB8330020C4330020A6
:109CC400032801D8FEF762BC00207047044B1B68D0
:109CD40013F0010301D0FFF79BBE1846704700BF85
:109CE400B833002038B51C4B18601C4B10F002042C
:109CF400054619601AD01A4B1A480E221A700F2200
:109D0400DA7010229A7111225A72042140F26662AA
:109D1400FDF7AAF8044648B9FDF7F8F8044628B94F
:109D24000146114A1148FDF7B7FB0446EB0711D56C
:109D34000120FEF751FC6CB921460D4A0D48FDF790
:109D4400ABFB044630B90C4A0C480121BDE838404D
:109D5400FDF7A2BB204638BDB8330020C033002035
:109D6400AC330020C8D70200A19C0200ECD702004B
:109D7400A99C0200F0D70200E1990200E8D7020092
:109D8400032812D8012A0BD1012908D100F10E02AF
:109D9400D2B200EB40000C4B1A5400207047002252
:109DA4000129F6D009D3022901D007207047064BB8
:109DB40000EB400018444270EFE7034B00EB400017
:109DC40018448270E9E700BFAC330020032808B5CB
:109DD40012D8FEF7FBFB800000F1A040D0F800375A
:109DE40023F44033C0F80037D0F8003743F440334D
:109DF400C0F80037002008BD062008BD08B50122C0
:109E040002210020FFF7BCFF08B1072810D1072268
:109E140002210120FFF7B4FF08B1072808D100216F
:109E24000A220846FFF7ACFF10B1072808BF00203C
:109E340008BD00000388102B10B502D0112B1ED0D2
:109E440010BD194C2168B1B901220846FFF798FFEB
:109E540008B1072821D1072202210120FFF790FF32
:109E640008B1072819D1042202210020FFF788FF36
:109E740008B1072811D123680133236010BD0A4AB1
:109E84001368013B136073B9FFF7B8FF58B1074B70
:109E94001B6843B1BDE810401847044B1B68002BF6
:109EA400E9D09847E7E710BDD0330020CC33002039
:109EB40008B50020FFF78AFF08B1062806D1012063
:109EC400FFF784FF10B1062808BF002008BD00007A
:109ED4000D4B10B518600C4629B10120FFF7F0FEB8
:109EE40040B102232370094B1B6853B9BDE81040ED
:109EF400FFF784BFFFF7E4FE08B10B23F2E72070FD
:109F0400F1E7002010BD00BFCC330020D033002087
:109F140076DF70477ADF70477CDF70477FDF7047FA
:109F24008FDF7047B1DF704733DF7047FDF704B848
:109F3400124B4A881B889A4270B50446104D11D1C1
:109F44000A8840F677239A420CD18B8828880D4AD8
:109F54000D49033B9BB20004138040F003001A46F2
:109F6400FCF716FD2888238862880849000440F01D
:109F74000400BDE87040FCF70BBD00BF1A2B0020A5
:109F8400B02A0020182B002046D8020062D8020014
:109F940008B50020FFF79AFE08B1FCF7CDFFFFF7E4
:109FA40087FF08B1FCF7C8FFFFF7BEFF18B1BDE893
:109FB4000840FCF7C1BF08BD0388212B13B5044634
:109FC40037D01DD8112B26D0132B44D0102B2ED1D3
:109FD400294B2A491888000440F00300FCF7CAFC06
:109FE4000720FFF773FE08B1FCF7A6FF244BA188F6
:109FF4002448198001F0BEFDC8B1FCF79DFF16E0AE
:10A00400522B30D0562B01D03B2B10D11321A088DA
:10A01400FFF77EFFF0E7184B1B491888000440F057
:10A024000300FCF7A7FC164B4FF6FF721A8002B030
:10A0340010BD114B15491888000440F00400FCF7CA
:10A0440099FC002301A9A0888DF804308DF805300F
:10A05400FFF766FFD0E70A4800231A4685210088E7
:10A06400FFF75CFFC8E7064800231A461946008834
:10A07400FFF758FFC0E700BFB02A00200CD8020049
:10A084001A2B00204436002016D8020023D80200E0
:10A09400CB0703D543680BB1FFF700BC7047000042
:10A0A40008B503784BB9054B3B211888FFF730FFFF
:10A0B40018B1BDE80840FCF73FBF08BD1A2B0020CB
:10A0C400072808B513D00A280DD0042819D10D4B40
:10A0D40013211888FFF71CFF30F0080311D0BDE8E6
:10A0E4000840FCF729BFBDE80840FFF751BF054B06
:10A0F4001A884FF6FF739A4203D1034801F01FF9FF
:10A10400EAE708BD1A2B0020CC34002008B548B17A
:10A1140003280BD10220FFF7D9FD38B1BDE8084070
:10A12400FCF70ABFBDE80840FFF732BF08BD0000D6
:10A134000378012BF7B53FD003D3022B3CD003B0F7
:10A14400F0BD1F4C1F4D20782844FDF7E1FA237819
:10A154000133DBB21D44237015F8012C0A2A03D005
:10A16400194A12889A42EAD8184D19492888154E76
:10A17400184F000440F00400FCF7FCFB2888227808
:10A184001049154D000440F00400FCF717FC02AA26
:10A19400237822F8023D31462B88384601F0E6FE4A
:10A1A400082806D01128F2D0052802D008B1FCF7FF
:10A1B400C3FE00232370C2E74068FCF7BDFEBEE780
:10A1C400C8340020D4330020182B0020B02A0020EB
:10A1D4003FD902001C2B00201A2B002038B504465E
:10A1E40038B1044D45F001054FF47A40A847013CCD
:10A1F400FAD138BD40D80200FCF79EBE08B51B2238
:10A204000021054802F0B6FA8C220021034802F02E
:10A21400B1FA002008BD00BF243600209835002084
:10A224007FB5122302228DF80430FF238DF8053008
:10A234008DF806308DF807208DF808308DF8092048
:10A2440000234FF040520B498DF80A3001A88DF8D5
:10A254000B308DF80C308DF80D308DF80E300492E3
:10A264008DF81430FFF7F4F908B1FCF765FE07B078
:10A274005DF804FB95A0020003461C22002013F0A5
:10A28400800F14BF0C2108219140043A5B0012F1A5
:10A29400040F40EA0100DBB2F1D17047F8B50B4D71
:10A2A4000B4F0024385DFFF7E7FF3E1928607078F4
:10A2B400FFF7E2FF6860B078FFF7DEFF03341B2C82
:10A2C400A86005F10C05EDD1F8BD00BF983500205C
:10A2D4002436002007B5FFF7A3FF0022064B0092A7
:10A2E400242168460193FFF74FFA08B1FCF724FED6
:10A2F40003B05DF804FB00BF9835002008B56C225C
:10A304008821034802F036FABDE80840FFF7E2BFAF
:10A31400983500202DE9F8438146884617461E46A5
:10A32400FFF76CFF094D00242B1983F8019004F802
:10A3340005809F70FFF7B2FF0334FFF7CBFF304671
:10A34400FFF74CFF1B2CEFD1BDE8F8832436002027
:10A35400C043C0B2542882B01AD800238DF8043008
:10A36400A0EB8003013B8DF8053000EB40008DF835
:10A3740006009DF80430002063F307009DF80530C3
:10A3840063F30F209DF8063063F3174002B0704763
:10A39400A9280CD85538C0B200EB40038DF804301E
:10A3A400A0EB800000238DF805300138DFE756303C
:10A3B400C0B2A0EB8003013B8DF8043000EB4000F9
:10A3C40000238DF805008DF80630D2E7F7B5054671
:10A3D400FFF714FF00240926114A002191FBF6F02F
:10A3E4002044C0B2FFF7B4FF01F58071C0F3074306
:10A3F400C0F30727B1F5106F57701070937002F116
:10A404000302EBD10134FFF749FFA4B2FFF762FF67
:10A414002846FFF7E3FE092CDED103B0F0BD00BFF0
:10A4240024360020F7B50546FFF7E8FE0024092688
:10A43400114A002191FBF6F02044C0B2FFF788FFD7
:10A4440001F58071C0F30743C0F30727B1F5106F1E
:10A4540057701070937002F10302EBD10134FFF7CF
:10A464001DFFA4B2FFF736FF2846FFF7B7FEB4F589
:10A47400407FDDD103B0F0BD243600202DE9F74F35
:10A48400214E9146074688469A460A25FFF7B6FEAE
:10A494004FF0000B324600242EE00B189BB203EB66
:10A4A4004303033006EB030E80B209288EF80170D3
:10A4B40006F803808EF80290EFD18DE80600FFF7CE
:10A4C400EDFEFFF707FF5046FFF788FE9DE8060004
:10A4D40000200B189BB203EB4303033002EB030E83
:10A4E40080B209288EF801B002F803B08EF802B0E9
:10A4F400EFD10134032C02D00020A1B2CDE7013DFD
:10A50400C9D103B0BDE8F08F243600202DE9F04F07
:10A5140085B08146264EFFF771FE00243746A246D9
:10A52400002534E0FF2092FBF0F01044C0B2FFF7A6
:10A534000FFF019B13449BB203EB430306EB030E93
:10A544000332C0F3074CC0F3072B8A428EF801B0E4
:10A55400F0548EF802C0E5D1FFF7A0FEFFF7BAFE73
:10A564004846FFF73BFE002208EB02039BB203EBD5
:10A5740043030332F91892B2092A81F801A007F8BB
:10A5840003A081F802A0EFD10135032D08D01FFAF2
:10A5940085F8A8EB0403224604F109010193C1E7FD
:10A5A4000134B4F5807FBBD105B0BDE8F08F00BFA6
:10A5B400243600202DE9F8430578002D76D13C4F50
:10A5C4000669B0F8148038883A49000440F0040061
:10A5D400FCF7D0F9388800044246314640F00400C4
:10A5E400FCF7ECF93478302C10D1FFF787FEDFF854
:10A5F400C8900024444545D3464416F8013C0D2B2D
:10A6040054D10A20FDF79AF81128F9E7312C12D118
:10A614002A4629463223FF20FFF77CFE2A46284695
:10A624003223FF21FFF776FE3223FF2229462846F4
:10A63400FFF770FED9E7322C12D17F222346114650
:10A644001046FFF71BFF23462A4629467F20FFF7C3
:10A6540015FF23467F2229462846FFF70FFFC4E74C
:10A66400332C03D11420FFF7B1FEBEE7342C03D101
:10A674001420FFF7D7FEB8E7352CB8D13220FFF706
:10A6840045FFB2E7305DFDF759F8054660B1112882
:10A69400F8D03888000440F001002A464946FCF707
:10A6A4006DF92846FCF748FC0134A3E7BDE8F883BC
:10A6B400B02A0020E2D8020014D9020008B50849E3
:10A6C400084801F0ABF808B1FCF736FCF72105485F
:10A6D40001F0B8F818B1BDE80840FCF72DBC08BD7E
:10A6E400359F02008435002000B57A4D0FCDB1B0FE
:10A6F40005AC0FC495E80300774B784A01934FF4F7
:10A70400807384E80300029303920493744A07233A
:10A7140001A905A8FCF7A4FF08B1FCF70DFC4FF450
:10A7240000410020FBF75EFF08B1FCF705FCFBF7D6
:10A7340083FEFCF77FFE08B1FCF7FEFB69490320AA
:10A74400FFF7D0FA08B1FCF7F7FB05A90020FFF7E3
:10A75400BFFB08B1FCF7F0FBFDF7D4FC08B1FCF734
:10A76400EBFB01F097FC08B1FCF7E6FB002305A91D
:10A774000120059301F062FD08B1FCF7DDFB05A89B
:10A7840001F024FE08B1FCF7D7FB9DF804305648CD
:10A79400012262F3030362F307138DF8043002F01D
:10A7A4003FF8514982B201A8FFF7B6FB08B1FCF7A4
:10A7B400C3FB0822002105A801F0DCFF1023ADF83B
:10A7C40014303C23ADF816300023ADF8183005A83A
:10A7D4004FF4C873ADF81A30FFF79CFB08B1FCF7CF
:10A7E400ABFBFFF76BFF414B4148059305A901F013
:10A7F400AFF908B1FCF7A0FB042200210DEB020025
:10A8040001F0B8FF3B4B3C48019301A901F0B4FAB5
:10A8140008B1FCF791FBAC22002105A801F0AAFFC6
:10A8240002238DF8143000238DF8163005238DF89B
:10A8340017300123ADF860308DF890304023279312
:10A8440044F250632D4A289305A92D4B2D481992A3
:10A854002E9300F09AFB08B1FCF76EFB0121294806
:10A8640000F090FB1C22002105A801F083FF0023C7
:10A874004FF4203205930692ADF822304FF4702243
:10A884008DF82430204B07920A9303221F4B8DF836
:10A89400202005A80B9300F071FE08B1FCF74CFBD7
:10A8A4001B4801F00DFF1B4B1B491888000440F0A6
:10A8B4000300FCF75FF80321124800F0D7FB08B14E
:10A8C400FCF73AFBFFF71AFDFBF7F2FEFDF730FC4D
:10A8D400FAE700BFF4D702005036002050370020BA
:10A8E40035A10200C5A002009BD80200FDA1020010
:10A8F40044360020B9A502001C2B0020142B002094
:10A9040011A10200CC340020A5A00200319F020056
:10A91400A7D80200B02A0020B9D802000369C16890
:10A924008B429DBF8268D21802F1FF3203F1FF33DC
:10A9340094BF501A581A70472DE9F041C7688668C9
:10A94400F61B9642044688461546406806D93844A4
:10A9540001F0E6FE3D44E560BDE8F081324638444E
:10A96400AD1B01F0DDFE2A4608EB0601606801F02C
:10A97400D7FEF0E72DE9F843C56806468946174631
:10A984004FF000083469B3687068A54228BFE41822
:10A99400013C621B5C1BBC4228BF3C46944228BF5E
:10A9A400144649462844224601F0BAFEB3682544B9
:10A9B4009D4208BF00253F1BA044A144F560E1D19E
:10A9C4004046BDE8F883000010B5114C114AA2615D
:10A9D400022323616361104BE361A2644FF40073AB
:10A9E4000E4A2362E26400231022A3626362E362DC
:10A9F400A3656365E36522650949E01D01F0EEFE88
:10AA04000849204601F0EAFE2023A37110BD00BFCF
:10AA1400503800205FD90200D8380020C838002000
:10AA240068D902006CD90200F8B5184C182300FB51
:10AA3400033503FB00402544C46A012C0F46164627
:10AA440011D003D3022C1BD000240AE02846FFF7C0
:10AA540065FFB04205D3324639462846FFF76CFFFE
:10AA640034462046F8BD2846FFF758FF8642344650
:10AA740028BF0446224639462846FFF75DFFF0E723
:10AA84002846BDE8F840FFF775BF00BF50380020E6
:10AA9400FFF79ABF6DDF704779DF70477DDF70473E
:10AAA40064DF70472DE9F74F0C9CBDF834B027885C
:10AAB400002580468A4691462E46B8F800209642E4
:10AAC4000BDB35B12288013AD21B92B2FF2A39D866
:10AAD400DA55002003B0BDE8F08FD8F8042052F80E
:10AAE4002600019000220DF1030101A8FFF7D8FF11
:10AAF4000028EFD19DF803204A4521D12288002D5A
:10AB040014BF0020022002EB09010144594519DC5D
:10AB14003DB9013292B2228003F802A022880132A8
:10AB2400228022880DF103011A4401A8FFF7B8FF1F
:10AB34000028CFD121889DF803200A4422800125D2
:10AB44000136BAE70C20C5E72DE9F341089CBDF8AE
:10AB5400245017468DE8300002220646FFF7A2FF74
:10AB640048B91022394630460995089402B0BDE828
:10AB7400F041FFF797BF02B0BDE8F0812DE9F04F37
:10AB840000231688138090F82D3085B007460D46B3
:10AB9400144643B3082E4ED902A8FFF77BFF0028C2
:10ABA40040F0FF8013880822CA54238801339BB2E3
:10ABB4001B222380CA542088013080B220800622C0
:10ABC4000DF10901284401F0ABFD23889DF808200C
:10ABD40006339BB212F0FE0218BF01222380EA540E
:10ABE400238801332380BB78FBB123880433B34229
:10ABF40021D802A8FFF750FF002840F0D280238814
:10AC04000322EA54238801339BB219222380EA5495
:10AC14002388BDF8082001339BB2E9182380EA5445
:10AC2400120A4A70238802332380FA78AAB123884F
:10AC3400D91CB14201D90C20B3E00221E954238884
:10AC440001339BB201212380E95423880B449BB236
:10AC54002380EA5423880B4423807A68AAB123888A
:10AC6400D91CB142E7D8022192F90020E954238883
:10AC740001339BB20A212380E954238801339BB218
:10AC84002380EA542388013323803B89002B7CD121
:10AC94003B8A53B18DE850002B460722032107F16C
:10ACA4001000FFF751FF00287BD13B8B53B18DE897
:10ACB40050002B461522142107F11800FFF744FF1A
:10ACC40000286ED13A6A002A6ED1D7F82480B8F1F0
:10ACD400000F2ED0B8F804302188981C8A1C024436
:10ACE400B242A8D8FE28A6D803336B542388013374
:10ACF4009BB2FF222380EA54238801339BB2238032
:10AD0400B8F80020EA54E918120A4A702088023080
:10AD140080B22080B8F804205AB1D8F8081000296D
:10AD24004CD0284401F0FCFC2388B8F804201344D8
:10AD3400238097F82C30002B7BD1387888B33B885C
:10AD4400012B3BD021888A1CB2423FF674AF012804
:10AD540005D17B7802330B449E42FFF46CAF023E74
:10AD6400761A04A9B6B221F8086DA818FFF796FE62
:10AD7400B8B93B78022B40F09F80BDF80830B3424D
:10AD840040F2B680ADF808609FE08DE850002B4695
:10AD94000622022107F10800FFF7D6FE00283FF43F
:10ADA40077AF05B0BDE8F08FB4F800E00EF106030C
:10ADB400B3423FF640AF1188052901D80720F0E7D8
:10ADC4006FF4486C01EB0C039BB24FF27D3C63457E
:10ADD400F4D95388052BF1D96FF44860181880B260
:10ADE4006045EBD94FF6FF70814203D0834201D016
:10ADF4009942E3D8052305F80E30238801339BB22A
:10AE040012212380E954238801339BB223801188C3
:10AE1400E954E818090A4170238802339BB223805D
:10AE24005288EA54E918120A4A70238802332380AC
:10AE34004BE7BB6A002BC1D04FF000094FF00C0A5E
:10AE44004FF0160B97F82C305FFA89F293427FF695
:10AE540074AFB96A0AFB02F201EB0208B8F80430D5
:10AE6400981CFE283FF6E7AE208803332B54238832
:10AE740001339BB2238005F803B0238801339BB2CE
:10AE840023808A5AEA54E918120A4A702088023048
:10AE940080B22080B8F804205AB1D8F808100029EC
:10AEA4008CD0284401F03CFC2388B8F804201344D7
:10AEB400238009F10109C5E7012B7FF463AF7B7897
:10AEC4009E42FFF45FAFADF808300821BDF80830AA
:10AED400FE2B3FF6B0AE22880133AB5422880132F8
:10AEE40092B22280A954228813442380002058E778
:10AEF4000921EBE770B558B14AB116880024B44271
:10AF040003D305196D789D4208D08C4201D30020EB
:10AF140070BD055D01352C44A4B2F0E78C42F6D235
:10AF2400A31C1380005D013880B270BD37B502AC3C
:10AF3400002324F8023D134622460546FFF7DAFFB4
:10AF440010B1BDF80600284403B030BD72DF70476D
:10AF540073DF704774DF704738B5012204460D462D
:10AF6400B0F89810D0F89400FFF7E0FF00B1057036
:10AF740004F13C0204F1940104F15400BDE83840AA
:10AF8400FFF7E4BF80F830107047F8B504460F4669
:10AF940081B178B191F87A3013B191F898303BB916
:10AFA400D7F8A030042B03D0D7F89C30042B03D15E
:10AFB4000720F8BD0E20F8BD07F178060FCE4FF03C
:10AFC400000E251D84F802E00FC50FCE0FC596E8CC
:10AFD400070085E8070084F830E0D7F8A4306363FD
:10AFE400D7F8A830A3634FF6FF7504F19403C4F8AF
:10AFF400A430A4F8A8500722714604F1AA0001F075
:10B00400B9FB23780BB984F85450224604F1550156
:10B014001F25C4F89410384622F8985FFFF7AEFD58
:10B0240010BB224604F17401C4F89C1007F13C00E3
:10B0340022F8A05FFFF7A2FDB0B9A269A4F84820E6
:10B0440001236269206484F850006264014684F834
:10B05400513084F83C3004F13C0204F15400FFF711
:10B0640075FF08B92370F8BDF8BD0000F8B507787E
:10B0740004460D46002F00F0F680A1700020FCF776
:10B084007DFE014618B1012363700020F8BD04F170
:10B09400AA060722304601F06DFBE38813B1A378BA
:10B0A400012B04D0E3794BB1A378022B06D1636B57
:10B0B4009BB1012284F8B12008209847324604F15C
:10B0C400B00112F8013F5BB98A42FAD16A1E032A21
:10B0D4003CD8DFE802F0070D101284F8B130EDE738
:10B0E4003B46F3E7A2791AB194F8242002B94BB98C
:10B0F400E27902B163BB237A63BB637A002B0CBF92
:10B1040000250425636BA57033B3033D012D23D8BB
:10B1140062790AB394F8B220F2B984F8B420012217
:10B1240084F8B3200720984704F13C051822002135
:10B13400284601F01FFBE36A0122591E914284F85C
:10B144003C2000F2928084F8513091E00025D9E748
:10B154000225D7E70325D5E7002384F8B330E3E7D6
:10B1640001238CE0C4F8A43063640223012284F830
:10B174003C30802384F831202664A4F84830A37836
:10B18400002B5FD1636B002B3FF47FAF94F8310049
:10B1940098477AE7022384F8313062B1072384F8B0
:10B1A4003C302369A4F848300023C4F8A430E36891
:10B1B40026646364E3E70323F1E763696364A369D3
:10B1C400A4F8483012B1062384F83C306379B3B153
:10B1D40094F8B2309BB994F8B43083B1022384F864
:10B1E400503004212046FFF7B7FE0028C7D10523BD
:10B1F40084F8313004F19403C4F8A430BFE7032386
:10B20400F6E7E3696364236AA4F8483012B10623BD
:10B2140084F83C30637983B194F8B2306BB994F814
:10B22400B43053B1022384F8503004212046FFF790
:10B2340093FE0028A3D10623DAE70423D8E784F891
:10B2440031309CE72A46D4F8A41004F15400FFF7E7
:10B254007DFE58BB94F8301094F85400FFF778FE44
:10B2640000288FD0F8BD0820F8BD84F851200027AD
:10B2740094F824202AB1002F3FF472AFA36A84F813
:10B284005230A178002384F8503004293FF677AF78
:10B2940001A050F821F000BF43B2020069B10200DE
:10B2A40099B10200BFB1020007B20200F8BD00BFAD
:10B2B4000388112B10B50C460AD0262B1CD0102B5A
:10B2C40028D1C37B012B25D18388A1F8A83010BDD8
:10B2D4000022838881F8B220B1F8A8209A4219D1BB
:10B2E4000B79BBB901212046FFF7C0FE90B1A36BD7
:10B2F40083B1BDE810401847037A013B012B09D8FC
:10B3040089780523013191FBF3F303EB8303C91A15
:10B31400C9B2E8E710BD0238012810B50C460DD8B3
:10B324004B785BB100234B7020468978FFF79EFE73
:10B3340020B1A36B13B1BDE81040184710BD38B558
:10B34400044690F85400FFF705FE012384F8B23058
:10B35400002384F8B43084F8503006212046FFF7E7
:10B36400FBFD054638B9A1782046FFF77FFE10B1F2
:10B37400A36B03B19847284638BD75DF704776DF65
:10B3840070477ADF70477BDF70470000034B1A88F1
:10B3940082420CBF18460020704700BFF43A0020D8
:10B3A400024B9B6903B11847704700BFD83A00208D
:10B3B40037B585B22846FFF7E9FF034670B1164C4E
:10B3C400017A227B91420BD200F10A012846FFF751
:10B3D400D4FFE8B1112801D0FFF7E2FF03B030BD7C
:10B3E400237C0022027243B13B212846FFF7C7FFAA
:10B3F40030F0080301D0FFF7D3FF6369002BEDD0D1
:10B4040000228DF80420ADF8065001A89847E5E71E
:10B414001A7A01321A72E1E7D83A002013B50B46C2
:10B42400497A0F4C024669B9A06861681C7A002CFD
:10B4340018BF01465868FCF741F808B1FFF7B0FFA0
:10B4440002B010BD002119726369002BF8D00121EC
:10B45400ADF806008DF8041001A89847F0E700BF86
:10B46400D83A00208388B3F5FA7F28BF6FF4F972C5
:10B4740030B528BF9C1805884A8838BF00249542F7
:10B484000CD84088904209D38A88A24206D303F29A
:10B49400F310904234BF0020012030BD002030BDA5
:10B4A4000388112B70B501462ED002D8102B05D07D
:10B4B40070BD122B51D0502B35D070BDC37B012BE6
:10B4C4004AD14FF6FF70FFF761FF054620B904200B
:10B4D400BDE87040FFF764BF264A8E8806800023CB
:10B4E40003721368C5F80A300A3053684360103198
:10B4F400FFF7B8FF204B6872DB896BBB29463046E7
:10B50400BDE87040FFF78ABF8088FFF73FFF04461D
:10B5140010B34068FCF718F808B1FFF741FF4FF685
:10B52400FF73238070BD144BC288DB899A4213D108
:10B53400038A022B10D186883046FFF727FF054681
:10B5440050B101F1120000F00DF90028D6D168685D
:10B55400FBF7FAFF0028BBD170BD86883046FFF7A1
:10B5640015FF05460028F7D008310A30FFF77AFFA7
:10B574006872C3E7083B0020D83A0020F8B50646B5
:10B5840050B305460FCD154F3C460FC495E8070050
:10B5940084E807003068124B3B60B8B1FFF7F1FE56
:10B5A400D8B931680A681A604A685A600D480E4A68
:10B5B4004FF6FF7303800D4B40F8043F0021FBF767
:10B5C4006BFF002814BF03200020F8BD1846FFF7C6
:10B5D400DAFE0028EAD0F8BD0E20F8BDD83A0020E3
:10B5E400083B0020F43A0020B5B30200103B0020D1
:10B5F40073B50191019C06466CB100242546294689
:10B6040001A8FCF74BF918B106EB440301349D8003
:10B614000135142DF3D13046346002B070BD000002
:10B624002DE9F04703888488112B8CB0064638D066
:10B634001A2B3BD0102B24D1274DAB680CA8DB432D
:10B6440040F8303D6968FCF758F9009901A8FFF704
:10B65400CFFF0DF106094FF00008019B984513D365
:10B66400132C35D821461D48FCF705F921461C4802
:10B67400FCF701F9F37B012B03D01A482146FCF7B0
:10B68400FAF80CB0BDE8F08739F802AF00270437A8
:10B694005146E819FCF7F8F8742FF8D108F10108BD
:10B6A400DBE70E482146FCF7EFF8EAE7057A0E4897
:10B6B4002D09012D214606DDFCF7DDF8022D21467A
:10B6C4000A48F0D0DBE7FCF7DFF821460748EAE751
:10B6D4000420FBF731FCD4E7303B0020383B00204A
:10B6E400343B00203C3B0020403B0020443B0020F6
:10B6F4001328014602D80248FCF7D0B8002070474E
:10B70400343B002010B50446FFF7F2FF002814BFB5
:10B714002046142010BD70B5054616460AB90E2001
:10B7240070BD002313600028F9D00368002BF6D005
:10B73400C38813F003040FD10846FFF7E3FFC0B238
:10B7440014280BD02B7983420AD9EB882A6800FB92
:10B7540003203060204670BD072070BD052070BDF9
:10B76400042070BD007800F00100704790DF70473E
:10B77400A5DF7047B5DF7047F0B5234C0746208836
:10B78400000485B00D460A463B46204940F00400BB
:10B79400FBF7FEF800236A4602A93846ADF80850C4
:10B7A400ADF80A50ADF80C30ADF80E300093ADF89A
:10B7B4000430FFF7DBFF064610B32588FCF712FDC3
:10B7C4002D0445F0010503463A4611492846FBF786
:10B7D400DFF8BDF80020BDF8023002B933B120888B
:10B7E4000C49000440F00100FBF7D2F8BDF8042036
:10B7F40032B120880849000440F00100FBF7BEF88C
:10B80400304605B0F0BD00BFC42A002073D9020041
:10B81400A2D90200ECD902002BDA020080B1F7238E
:10B8240003804380FB22C3801723027103810273C8
:10B8340000231B2201618372C3724273184670474E
:10B844000E20704730B1A1F11703E02B04D801801A
:10B85400002070470E207047072070472DE9FF47EE
:10B86400858806460C46FDB90388232B00F01A810F
:10B874001DD8102B64D0112B00F0A180A37A9BB1AA
:10B88400E1880020FFF774FF0346002840F01B8185
:10B894000122E272944AA07210889449E28800045A
:10B8A40040F00400FBF774F804B0BDE8F0873A2BCD
:10B8B40000F09080552B00F0B380242BDED18A4E0B
:10B8C400B0F80890B0F80AA08789B0F80E803088E4
:10B8D4005FFA89F200042B464A7340F0040084495D
:10B8E400FBF756F8308883490004524640F00400C0
:10B8F400FBF744F83088804900044A4640F00400CD
:10B90400FBF73CF830887D490004424640F00400CF
:10B91400FBF734F830887A4900043A4640F00400D2
:10B92400FBF72CF82369002BA8D04DF67A22029558
:10B93400ADF80820627BADF80C508DF80C20ADE01A
:10B94400C37B0A790A73012B1ED0022B1FD0E28815
:10B95400238993420FD2644D6A492888000440F039
:10B9640004000023FBF714F8E1880020FFF700FF30
:10B9740078B90123E372217B637B8B42BFF47EAFF2
:10B984000020FFF7F9FE79E70B88E380DFE74B88B7
:10B99400FBE711282B8809D1012218045A49A27205
:10B9A40040F004000022FAF7E9FFE4E71B0443F047
:10B9B4000105FCF717FC554902462846F3E7F7232F
:10B9C400CB8017230B81FB230B731B238D72CD724A
:10B9D4004B7353E74289CB889A4228BF1A46424B9D
:10B9E4001888172A38BF172200040A812B464849B1
:10B9F40040F00400FAF7CCFF23696BB1E27A5AB144
:10BA040040F67722ADF808202289ADF80A50ADF847
:10BA14000C2002A9204698470023E372A3722DE765
:10BA2400314FC68838883B49000433462A4640F0E3
:10BA34000400FAF7ADFFE3883888A572172E324662
:10BA440038BF17229A4228BF1A460004228132497D
:10BA5400009540F00400FAF7A5FFE1882846FFF7B7
:10BA640089FE50B13D88FCF7BDFB2D0445F001056E
:10BA740002462A492846FAF781FFE27A002A7FF42F
:10BA8400FDAE2369002B3FF4F9AE40F67721ADF803
:10BA94000A202289ADF80810ADF80C2002A920462E
:10BAA4009847EBE6104B077A18881D49000440F0CC
:10BAB40004003B462A46FAF76BFF217BB088B94263
:10BAC40028BF39465DE711283FF4EEAE064B1C88CB
