:020000022000DC
:10600000000001203D6202009562020097620200DA
:10601000996202009B6202009D6202000000000083
:106020000000000000000000000000009F6202006D
:10603000A162020000000000A3620200A56202004B
:1060400099B10200AB62020045BE0200AF620200DD
:10605000B1620200B362020065BB0200B7620200D7
:10606000B9620200BB620200BD620200BF620200B0
:10607000C1620200C3620200C5620200C762020080
:10608000C9620200A1850200CD620200CF62020057
:10609000E1850200D362020051350300D76202009D
:1060A000D9620200DB620200DD620200DF620200F0
:1060B000E1620200E3620200A7620200A76202003E
:1060C000E5620200E7620200E9620200EB620200A0
:0C60D000ED620200E1DD0200F16202005E
:1060DC00364937480A1A02D0072291438D46354972
:1060EC0035480A1A06D00722914381F30988022207
:1060FC0082F3148831483249324A00F045F832486C
:10610C003249334A00F040F832483349334A00F000
:10611C003BF833483349344A00F036F833483449B5
:10612C00344A00F031F834483449354A00F02CF840
:10613C0034483549354A00F027F8354835490022AE
:10614C0000F02DF834483549002200F028F8344886
:10615C003449091A082903DB00220260043001606B
:10616C00314A90471F482049884205D002680430C4
:10617C0003B4904703BCF7E700208646EC460020AA
:10618C0000212A4A9047FEE7884207D0521A05D0D0
:10619C00037801300B700131013AF9D17047884214
:1061AC0002D002700130FAE77047000000000120B5
:1061BC0000E000200000012000000120E459030051
:1061CC00DC2A00208C2B0020F4620200F462020016
:1061DC0080440300E4590300DC2A0020DC2A002060
:1061EC00E4450300E4450300E4450300E4450300F3
:1061FC00E4450300E4450300E4450300E4450300E3
:10620C00E4590300945A03008C2B00208C2B0020A3
:10621C008C2B0020943C0020943C0020943C0020CB
:10622C00943C0020945C002061620200F1FD0200AD
:10623C000F484FF00701884385460E4880470E48AB
:10624C00016841F470010160BFF34F8FBFF36F8F92
:10625C00FFF73EBF09480A490A4A884207D0521A3A
:10626C0005D0037801300B700131013AF9D1704738
:10627C000000012071A1020088ED00E0A0450300A0
:10628C00982A0020DC2A0020FEE7FEE7FEE7FEE766
:10629C00FEE7FEE7FEE7FEE7FEE7FEE7FEE7FEE7CA
:1062AC00FEE7FEE7FEE7FEE7FEE7FEE7FEE7FEE7BA
:1062BC00FEE7FEE7FEE7FEE7FEE7FEE7FEE7FEE7AA
:1062CC00FEE7FEE7FEE7FEE7FEE7FEE7FEE7FEE79A
:1062DC00FEE7FEE7FEE7FEE7FEE7FEE7FEE7FEE78A
:0862EC00FEE7FEE7FEE700BF3C
:1062F4007047704700B585B00190019B002B0AD010
:10630400074B43F001030393019B9B010293039BFF
:106314000298984700E000BF05B05DF804FB00BF99
:10632400F045030000B583B00190019B002B0AD017
:106334004FF47A70FFF7DEFF019B013B0193019B51
:10634400002BF5D100E000BF03B05DF804FB08B5F5
:1063540009F0D2FE00BF08BD00B589B003900291D8
:106364000192019B002B33D0002307930323069350
:10637400029A079B1344019A1946002009F06EFE05
:106384000590079A059B13440793019A059BD31A1A
:106394000193059B002B13D10F4B1B7883F0010352
:1063A400DBB2002B13D10120FFF7BCFF069B013B9E
:1063B4000693069B002B03D1074B00221A7007E0BB
:1063C400054B01221A70019B002BD1D100E000BFC4
:1063D40000BF09B05DF804FB8C2B002000B585B02C
:1063E40003900291054B00934023054A02990398B8
:1063F40000F012F800BF05B05DF804FB5D63020015
:10640400902B002082B0019000BF02B0704782B090
:10641400019000BF02B0704700B5A1B0059004918F
:1064240003920293049803F0C4FC039B1593029B0C
:1064340016930023179300238DF8603000231993DB
:10644400229B1A9300231F930FA91F9B08220498D1
:1064540003F05EFD08231F93119B1293BDF8403097
:10646400ADF84C30BDF84230ADF84E3000238DF815
:1064740051309DF83C3003F00303DBB2012B26D1ED
:106484000F9BC3F395231D939DF83C30C3F3C203C4
:10649400DBB28DF85030BDF83C30C3F38313DBB26C
:1064A4001C931C9B9A0009A91F9B049803F030FDC0
:1064B4001C9B9B001F9A13441F9312AA09A915AB96
:1064C400009313461C9A1D9800F07AFF2FE09DF864
:1064D4003C3003F00303DBB2022B28D1BDF83E307D
:1064E400C3F389139BB21E939DF83C30C3F3C203DC
:1064F400DBB28DF850301E9B082B28BF08231B935A
:1065040007A91F9B1B9A049803F002FD1F9A1B9B6B
:1065140013441F931E9A1B9BD31A1E9315AB12AAE6
:1065240007A81B9900F0EEFF1E9B002BE3D10498F3
:1065340003F04EFC00BF21B05DF804FB82B0019073
:10654400019B01225A7200BF02B0704700B583B0AC
:106554004FF0FF330193FFF7FAFE0421054800F0E2
:106564004FFE01900348FFF7E9FF00BF03B05DF859
:1065740004FB00BFDC2A002000B583B00190009129
:10658400019B1B681B6800990198984700BF03B0E2
:106594005DF804FB00B583B00190019B1B685B6848
:1065A4000198984700BF03B05DF804FB00B583B0C1
:1065B4000190019B1B689B680198984700BF03B03A
:1065C4005DF804FB82B001900B468DF80330019B0B
:1065D4009DF803201A7200BF02B0704782B0019088
:1065E400019B1B7A184602B0704782B00190019B50
:1065F40001225A7200BF02B0704782B00190019B21
:106604005B7A184602B0704700B587B001900091DC
:106614001D4BFF229A601C4B00221A601A4B002269
:106624005A60194B0022C3F81824174B0022C3F8F0
:106634001424154B002283F82024144803F01EFB75
:106644000490049B002B01D0049B18E0104A114BCA
:10665400D31ADB080393002305930BE0059B9B00EF
:106664000D4A13440293059B9AB2029B1A80059B20
:1066740001330593059A039B9A42EFD300231846EE
:1066840007B05DF804FB00BFA02C002060450300A8
:1066940060450300D8440300982A0020024A034BB3
:1066A400D31ADB081846704760450300D84403003A
:1066B40000B587B001900B468DF803309DF8033088
:1066C400002B1FD0FFF7EAFF04900023059313E08B
:1066D400059B9B000E4A13440393039B5B881A4655
:1066E400019B1B689A4204D1019B059A1A600023FE
:1066F40009E0059B01330593059A049B9A42E7D36D
:10670400052300E00023184607B05DF804FB00BF32
:10671400982A002000B585B001900B468DF803300F
:106724009DF8032001AB11461846FFF7C1FF03464D
:10673400002B07D1019BDB00054A13440393039B01
:106744001B6800E00023184605B05DF804FB00BF99
:10675400D844030084B001900B468DF80330019BAC
:10676400DB00174A134402939DF80330013B032BCB
:106774001CD801A252F823F08D670200956702002D
:106784009D670200A767020002238DF80F3011E015
:1067940004238DF80F300DE0029B1B798DF80F3028
:1067A40008E0029B5B798DF80F3003E000238DF83D
:1067B4000F3000BF9DF80F30184604B0704700BF7B
:1067C400D844030084B00190009100238DF80F3069
:1067D400019B1B7803F00303DBB2002B06D0019B63
:1067E4001B7803F00403DBB2002B3DD0019B1B7824
:1067F40003F00403DBB2002B21D0019B1B78C3F30D
:106804000103DBB2012B02D0022B0CD029E0009B48
:106814001B68019A1288C2F38312D2B213449A1CE1
:10682400009B1A601DE0009B1B68019A5288C2F30A
:10683400891292B213449A1C009B1A6011E0009BC7
:106844001A68019B5B88C3F389139BB21946019BA9
:106854001B88C3F389139BB20B4413445A1C009B3B
:106864001A6001238DF80F309DF80F30184604B0DC
:106874007047000000B58BB00023ADF826303B48CC
:1068840002F03AFB3A4802F037FB3A4B5B68049358
:10689400384B9B680693049A069B134002339B0073
:1068A400344A13440433089304AB19460898FFF799
:1068B40089FF0346002B09D0049A069B1340023338
:1068C4009B002C4A134404330893EDE700BF0023D4
:1068D400079311E0079B9B0001AA1A44049B591CCF
:1068E400049106990B40234902339B000B445B68D7
:1068F4001360079B01330793079B012BEAD99DF88B
:106904000430C3F30103DBB2012B11D0022B00D0FE
:106914001CE0BDF80A30ADF82630BDF80630C3F3EC
:1069240089139BB203339A08049B134404930DE028
:10693400BDF80A30ADF82630BDF80430C3F3831334
:10694400DBB21A46049B1344049300BF084802F0C8
:10695400DFFA0590059B002B02D0049B054A536087
:10696400BDF8263018460BB05DF804FBB8300020A3
:10697400B4300020A02C002000B585B000210748C9
:1069840002F02BFA0390039B0293029B83F3100300
:106994000193019B184605B05DF804FBBC30002050
:1069A40000B589B00390029101920093039B1B0CE4
:1069B4000793FFF7E1FF0690009B5A1C0A9B1340C4
:1069C400069A1104079A0A431C4902339B000B449C
:1069D4005A60009A0A9B134002339B00174A1344DF
:1069E40004330593039BDBB203F00703D9B2059A82
:1069F400137861F3C5031370019BDBB203F00F033B
:106A0400D9B2059A138861F389131380029BC3F3E7
:106A14001501059A136861F39F231360059A13788F
:106A2400012161F301031370059A13786FF3820354
:106A3400137000BF09B05DF804FB00BFA02C002058
:106A440000B58DB00390029113468DF80730039B77
:106A540002330A9301238DF8273000238DF81B306D
:106A64000DF11B03184602F0F1F8414B1A68029B22
:106A74001A603F4B9A683E4B59683D4B1B68CB1AD2
:106A8400134401330B9314E001213A4802F004FA51
:106A9400FFF7F0FE08900899364802F0FDF9344BF0
:106AA4009A68334B5968324B1B68CB1A1344013331
:106AB4000B930A9A0B9B9A42E6D89DF82730002B39
:106AC4004AD0002305939DF80730002B18D09DF879
:106AD4001430012262F301038DF814309DF8143050
:106AE40043F004038DF81430039BDBB203F00F036F
:106AF400DAB2BDF8143062F38913ADF8143017E03C
:106B04009DF81430022262F301038DF814309DF8CD
:106B1400143043F004038DF81430039B9BB2C3F389
:106B240009039AB2BDF8163062F38F13ADF816302C
:106B34000F4B1A680E4B9B68134002339B000C4AA0
:106B4400134404330793059A079B1A60084B1A6889
:106B54000A9B1344064A13609DF81B30184602F042
:106B64007FF89DF8273018460DB05DF804FB00BF90
:106B7400A02C0020BC30002000B58BB005900491FF
:106B8400039202931F4B9B68079306AB012219469D
:106B94000298FFF755FF0346002B24D0069B0233CF
:106BA40009930023089311E0099B5A1C0992079A40
:106BB4001340089A920003990A4412681149023357
:106BC4009B000B445A60089B01330893089A029B6C
:106BD4009A42E9D3069A079B00931346029A0499B2
:106BE4000598FFF7DDFE074B93F82034002B05D002
:106BF40000BF00F005F90346002BFAD100BF0BB02B
:106C04005DF804FBA02C002000B583B00190009136
:106C14000023002200990198FFF7AEFF00BF03B0E4
:106C24005DF804FB00B587B0039002910192019BCB
:106C3400059305AA012302990398FFF79DFF00BF5E
:106C440007B05DF804FB00B587B003900291019290
:106C54000093019B0493009B059304AA02230299C9
:106C64000398FFF789FF00BF07B05DF804FB00B588
:106C740089B00390029101920093019B0593009BBC
:106C840006930A9B079305AA032302990398FFF727
:106C940073FF00BF09B05DF804FB000000B58DB0C0
:106CA400039002911346ADF806304C4B9B680B934E
:106CB400BDF8063003339B0805A900221846FFF7E8
:106CC400BFFE0346002B79D0059B0A93059B023334
:106CD4000593424B9A6805990B9B0B40D31A0133D9
:106CE4009B000993BDF80620099B9A420ED8059A89
:106CF4000B9B134002339B00384A13440433BDF802
:106D04000620029918460CF07BFF17E0059A0B9BAE
:106D1400134002339B00314A13440433099A029905
:106D240018460CF06DFF029A099BD118BDF8062095
:106D3400099BD31A1A462A480CF062FF039B1B0CCA
:106D44000893FFF719FE07900A9B5A1C0B9B1340EC
:106D5400079A1104089A0A43204902339B000B4402
:106D64005A600A9A0B9B134002339B001B4A13443C
:106D740004330693039BDBB203F00703D9B2069AEC
:106D8400137861F3C5031370069A13886FF38F1396
:106D94001380BDF80630C3F3090399B2069A5388E9
:106DA40061F38F135380069A1378022161F3010370
:106DB4001370069A13786FF382031370074B93F8DA
:106DC4002034002B05D000BF00F01AF80346002B36
:106DD400FAD100BF0DB05DF804FB00BFA02C002069
:106DE400AC2C0020054B5A68044B1B689A420CBF1C
:106DF40001230023DBB21846704700BFA02C0020FB
:106E040000B599B0FFF7EEFF0346002B01D0002335
:106E1400B8E19A4B0022C3F81824BFF34F8F974B65
:106E24005B680493954B9B681093049A109B1340E2
:106E340002339B00914A134404331793002316939F
:106E44000023159300230F9304AB19461798FFF7FB
:106E5400B9FC0346002B14D0884B1A68049B9A4251
:106E640005D8864B1B68854A536000238AE1049A3F
:106E7400109B134002339B00804A1344043317933E
:106E8400E2E700BF0023149311E0149B9B0001AAC6
:106E94001A44049B591C049110990B4077490233FE
:106EA4009B000B445B681360149B01331493149B85
:106EB400012BEAD99DF8043003F00303DBB2022B63
:106EC40040F09C80BDF80630C3F389139BB20E9347
:106ED400BDF80630C3F389139BB2502BA8BF5023CF
:106EE4000D930D9B9BB2C3F309039AB2BDF8063010
:106EF40062F38F13ADF806300D9B08330C939DF8A5
:106F04000430C3F3C203DBB20F930C995C4802F064
:106F1400C0FE1690169B002B00F0D480169802F049
:106F240048FF01A9159B0822169802F0DFFF159B64
:106F340008331593049BDA43109B134001339B00E1
:106F44000B930D9A0B9B9A4242D90B9B002B08D0B2
:106F5400049A109B134002339B00484A13440433A1
:106F640000E0484B0A930B9B002B02D00B9BDBB237
:106F740001E00D9BDBB28DF827300B9B002B01D079
:106F8400404B00E0002308930B9B002B06D00D9B85
:106F9400DAB20B9BDBB2D31ADBB200E000238DF82C
:106FA4001F309DF82720159B0A99169802F09EFF22
:106FB4009DF82730159A13441593089B002B16D07F
:106FC4009DF81F20159B0899169802F08FFF0EE07C
:106FD400049A109B134002339B00284A1344043341
:106FE4000693159B0D9A0699169802F07FFF0E9B47
:106FF40003339A08049B1344049363E09DF804301C
:1070040003F00303DBB2012B5CD1BDF80430C3F3FE
:107014008313DBB2062B28BF0623DBB203F00F0376
:10702400DAB2BDF8043062F38913ADF80430BDF868
:107034000430C3F38313DBB2023305939DF80430A9
:10704400C3F3C203DBB20F93059B9B0019460C48A4
:1070540002F01FFE1690169B002B33D0169802F0F8
:10706400A8FE01A9159B0822169802F03FFF159B64
:1070740008331593002314931BE000BFA02C0020B9
:1070840060450300AC2C0020049B5A1C0492109A07
:10709400134002339B003D4A1344191D159B0422DF
:1070A400169802F023FF159B04331593149B0133A8
:1070B4001493BDF80430C3F38313DBB21A46149B54
:1070C4009A42E1D8169B002B3FD0304BD3F81034B2
:1070D40013932E4BD3F81834002B1AD0169802F0C1
:1070E40077FE49E000238DF84B301398FFF785FABB
:1070F4000346002B02D001238DF84B309DF84B3012
:10710400002B03D016991398FFF736FA139B5B688C
:107114001393139B002BE5D1169802F059FE00231C
:107124008DF803300DF10303184601F08FFD174B62
:10713400D3F81834002B02D1049B144A53609DF8F1
:107144000330184601F08CFD16E0104BD3F81034D0
:10715400119305E01198FFF729FA119B5B681193CD
:10716400119B002BF6D10A4B1B881B0443F002032E
:1071740008491846FFF748FDFFF734FE034683F03D
:107184000103DBB2184619B05DF804FBA02C002003
:10719400B02A00201046030000B585B000230393F5
:1071A40022E0164BD3F81034029301238DF80730F4
:1071B4000EE00298FFF712FA03461A46039B9A421E
:1071C40003D100238DF8073005E0029B5B6802932E
:1071D400029B002BEDD19DF80730002B01D0039BBF
:1071E40007E0039B01330393039B092BD9DD4FF085
:1071F400FF33184605B05DF804FB00BFA02C002047
:1072040000B585B001900B468DF80330FFF7C4FF3D
:107214000390039BB3F1FF3F01D1039B1EE0039B4B
:10722400DBB219460198FFF7CDF90E4BD3F81034B1
:10723400002B07D10B4A019BC2F81034019B00229A
:107244005A600AE0074BD3F810345A68019B5A601D
:10725400044BD3F81034019A5A60039B184605B0C6
:107264005DF804FBA02C002000B583B00C4BD3F8D0
:10727400103401930A4B012283F8202408E001987A
:10728400FFF7B3F90198FFF785F9019B5B68019358
:10729400019B002BF3D100BF03B05DF804FB00BFDA
:1072A400A02C002082B00190009100BF02B0704772
:1072B40010B584B003900291039BDB88002B0AD0A5
:1072C400039BDB881A461F4B009313461E4A1F4933
:1072D400029801F0EDFE039B1B7A052B2ED0039B35
:1072E4005B7A002B12D0039B9B881A46039B1B7A64
:1072F40019461046FFF72EFA03461A46144B53F864
:1073040022301A461349029801F0D2FE039B1B68EF
:1073140019460298FFF7C6FF039B1B7A1A460E4BC9
:1073240053F82240039B9B8800211846FFF7F2F98B
:10733400034622460949029801F0BAFE00BF04B090
:1073440010BD00BF44460300544603008C460300AE
:10735400FC2A0020A4460300E82A0020A8460300D3
:1073640000B585B00390029113468DF80730039B56
:107374001B7A052B0FD0039B5B7A002B06D00D4B99
:107384001B681A460C49029801F092FE0B490298B8
:1073940001F08EFE07E09DF80730002B03D007496B
:1073A400029801F085FE029801F06AFE00BF05B064
:1073B4005DF804FBFC2A0020A4460300B446030045
:1073C40030B58BB007900691059204930E9B1B7BFE
:1073D4008DF827300E9B00221A730E990498FFF73C
:1073E40067FF059B062B7FD801A252F823F000BF4C
:1073F400117402001B7402002B7402003F7402001B
:107404005D74020085740200B574020007990E9839
:1074140001F04EFE69E0069B1B681A4607990E9818
:1074240001F046FE61E0069B1A68069B04331B6864
:1074340007990E9801F03CFE57E0069B1A68069BDC
:1074440004331968069B08331B6800930B4607999D
:107454000E9801F02DFE48E0069B1968069B043344
:107464001868069B08331B68069A0C32126801924E
:10747400009303460A4607990E9801F019FE34E07A
:10748400069B1868069B04331C68069B08331B681C
:10749400069A0C3212680699103109680291019219
:1074A40000932346024607990E9801F001FE1CE062
:1074B400069B1C68069B04331D68069B08331B68E7
:1074C400069A0C321268069910310968069814302D
:1074D400006803900291019200932B46224607997B
:1074E4000E9801F0E5FD00E000BF00220E9904981B
:1074F400FFF736FF0E9B9DF827201A7300BF0BB0D1
:1075040030BD00BF00B587B0039002910192009393
:10751400029B082B5CD8009B1B7B8DF81330009BCF
:1075240000221A7300990198FFF7C2FE0023059305
:1075340014E0059A029B9A4209D2039A059B1344CC
:107544001B781A462449009801F0B2FD03E0234950
:10755400009801F0ADFD059B01330593059B072BB6
:10756400E7D91F49009801F0A3FD0023059322E009
:10757400059A029B9A4217D2039A059B13441B78DF
:107584008DF812309DF8123018460CF003FB0346B8
:10759400002B02D09DF8123000E02E231A46114928
:1075A400009801F085FD03E00F49009801F080FD8B
:1075B400059B01330593059B072BD9D9012200991B
:1075C4000198FFF7CDFE009B9DF813201A7300E08D
:1075D40000BF07B05DF804FBB8460300C0460300D3
:1075E400C4460300C8460300CC4603002DE9F04F0F
:1075F40089B0019000238DF81F3098E0514B1A6830
:107604009DF81F30DB0013440693069B1B78194634
:107614004FF001024FF00003A1F1200EC1F1200050
:1076240003FA01F902FA0EFE49EA0E0922FA00F001
:1076340049EA000902FA01F8CDE90489424BD3E989
:107644000001DDE9042302EA000203EA0103134313
:1076540068D0DDE904236FEA02006FEA03013A4BC4
:10766400D3E9002302EA000203EA01033649C1E92F
:107674000023069B1B78184604F062FA03468DF833
:107684000F30069B1B7819464FF001024FF00003A0
:10769400A1F1200EC1F1200003FA01F502FA0EFE59
:1076A40045EA0E0522FA00F0054302FA01F4274BDD
:1076B400D3E9002304EA020A05EA030B9DF80F202C
:1076C4004FF0000306990978A1F1200EC1F12000C2
:1076D40003FA01F702FA0EFE47EA0E0722FA00F057
:1076E400074302FA01F6BB4508BFB2451AD19DF81B
:1076F4000F30069A5278012A0CBF01220022D2B21E
:1077040093420CBF01230023DBB20293069B5B6808
:10771400002B07D0069B5B68069A12780299C9B2BF
:10772400104698479DF81F3001338DF81F30084BE1
:107734001B789DF81F209A42FFF460AF00BF09B088
:10774400BDE8F08FC4300020F8300020F030002075
:10775400C830002070B586B001900A468DF8032029
:107764004FF001014FF000020198A0F12006C0F192
:10777400200502FA00F401FA06F6344321FA05F56D
:107784002C4301FA00F3CDE904342F4B184600F0E2
:10779400C1FF0390039B002B53D12C4BD3E9001260
:1077A400DDE9043403EA010304EA0204234337D184
:1077B400019804F0C5F90346002B0CD0244BD3E9FF
:1077C4000012DDE9043443EA010344EA0204204AD6
:1077D400C2E900340FE0DDE904346FEA03016FEA23
:1077E40004021B4BD3E9003403EA010304EA020454
:1077F400174AC2E90034154BD3E90012DDE9043419
:1078040043EA010344EA0204104AC2E900340E4880
:10781400104B1B680022194600F04AFF039011E048
:10782400DDE904346FEA03016FEA0402074BD3E98C
:10783400003403EA010304EA0204044AC2E90034FE
:1078440000E000BF06B070BDD0300020F83000204A
:10785400F0300020CC30002010B58AB003900B46E5
:1078640001928DF80B30019B042B01D807235AE0B9
:1078740004F076F8034683F00103DBB2002B09D051
:1078840004F01CF80990099B0893089B002B01D075
:10789400089B48E0254A039B1360254A9DF80B305A
:1078A4001370244A019B1360234A4FF000034FF0E6
:1078B4000004C2E90034214A4FF000034FF00004F1
:1078C400C2E9003422E09DF80B30DB00039A134434
:1078D400079305AB00210A461A800A469A700323CF
:1078E4008DF81430079B9B788DF81530079B1B7817
:1078F400184605AB124A194604F03EF80990099B54
:107904000693069B002B01D0069B0CE09DF80B30E0
:107914005A1E8DF80B20002BD5D10A4A00210A48A3
:1079240000F096FE034618460AB010BDC43000208D
:10793400C8300020CC300020F0300020F830002087
:1079440059770200F1750200D046030000B583B0F8
:10795400002301930CE00C4B1A68019BDB001344D9
:107964001B780121184604F077F8019B0133019339
:10797400064B1B781A46019B9A42ECD80023184602
:1079840003B05DF804FB00BFC4300020C830002001
:1079940000B587B001900023039300230493019B57
:1079A400059303AB1A46002144F2010000F016F8D7
:1079B40000BF07B05DF804FBBFF34F8F0549054BCB
:1079C400DB6803F4E062044B1343CB60BFF34F8FD7
:1079D40000BFFDE700ED00E00400FA0500B585B046
:1079E40003900291019272B6FFF73EFC00BFFFF7CD
:1079F40007FA0346002BFAD10F4B1B881B0443F0F4
:107A040001030E491846FFF7FFF80D4B1B6803F0FE
:107A14000103002B00D000BE074B1B881B0443F05E
:107A2400020308491846FFF7EFF8FFF7C5FF00BF48
:107A340005B05DF804FB00BFB02A0020D446030063
:107A4400F0ED00E0E046030084B00190019B9B68E8
:107A54000393019BDA68039BD31A184604B070475A
:107A640082B001900B468DF80330019B1A68019B8C
:107A7400DB68019989880B4013449DF803201A7030
:107A8400019BDB685A1C019BDA6000BF02B070479F
:107A940084B003900B460192ADF80A30039B1A6838
:107AA400039B9968BDF80A300B44039989880B40FD
:107AB40013441A78019B1A7000BF04B0704700B5D4
:107AC40083B001900091009A00210198FFF7E0FF34
:107AD400019B9B685A1C019B9A6000BF03B05DF830
:107AE40004FB84B0039002911346ADF80630029B68
:107AF400002B01D10E231DE0BDF80630002B07D06A
:107B0400BDF806305A1EBDF806301340002B01D0D4
:107B140009230FE0039B029A1A60BDF80630013B6B
:107B24009AB2039B9A80039B00229A60039B0022D3
:107B3400DA600023184604B0704700B583B00190A2
:107B44000B468DF803300198FFF77EFF0246019B38
:107B54009B889A4207D89DF8033019460198FFF78D
:107B64007FFF002300E00423184603B05DF804FB04
:107B740000B583B0019000910198FFF765FF0346BB
:107B8400002B05D000990198FFF799FF002300E02E
:107B94000523184603B05DF804FB000082B00346D9
:107BA4008DF8073007499DF907305B099DF80720D8
:107BB40002F01F02012000FA02F241F8232000BF64
:107BC40002B0704700E100E082B003468DF8073050
:107BD40008499DF907305B099DF8072002F01F0250
:107BE400012000FA02F2203341F8232000BF02B042
:107BF400704700BF00E100E082B003468DF8073013
:107C040008499DF907305B099DF8072002F01F021F
:107C1400012000FA02F2403341F8232000BF02B0F1
:107C2400704700BF00E100E082B003468DF80730E2
:107C340008499DF907305B099DF8072002F01F02EF
:107C4400012000FA02F2603341F8232000BF02B0A1
:107C5400704700BF00E100E082B0034600918DF858
:107C640007309DF90730002B0CDA0D499DF80730D9
:107C740003F00F03043B009AD2B25201D2B20B4478
:107C84001A7609E007499DF90730009AD2B25201E9
:107C9400D2B20B4483F8002300BF02B0704700BF88
:107CA40000ED00E000E100E000B585B00190019B2B
:107CB400002B0AD0074B43F001030393019B9B0164
:107CC4000293039B0298984700E000BF05B05DF85B
:107CD40004FB00BFF046030000B583B00190064AE0
:107CE400019BC2F8083507211120FFF7B5FF00BF3B
:107CF40003B05DF804FB00BF0010014008B50D4B54
:107D04004FF48032C3F844230A4B4FF48032C3F853
:107D140004231120FFF788FF1120FFF73FFF054BD5
:107D240001221A602F20FFF7BFFF034B01221A70B4
:107D340000BF08BD001001401E32002008B511200C
:107D4400FFF742FF0E4B4FF48032C3F848230C4B2D
:107D54004FF48032C3F80823094B01225A602F20C4
:107D6400FFF7A2FF064B01229A60064B00221A601D
:107D74002F20FFF799FF044B00221A7000BF08BDA3
:107D840000100140103200201E320020024BD3F8B4
:107D940004351846704700BF0010014082B00190BE
:107DA4000091019A009BD31A23F07F43184602B036
:107DB4007047000082B00190034A019BC2F840352D
:107DC40000BF02B0704700BF0010014086B00190B0
:107DD400284B1B68002B03D1264A019B136045E006
:107DE400019B1A68234B1B681B689A4210D8214BCD
:107DF4001B68204A12681168019A12688A1A1A606C
:107E04001C4B1A68019BDA611A4A019B13602DE02E
:107E1400019B1B680393174B1B680593154B1B6849
:107E2400049309E0049B1B68039AD31A0393049BED
:107E34000593049BDB690493049B002B04D0049BEF
:107E44001A68039B9A42EDD3049B002B05D0049B34
:107E54001A68039BD21A049B1A60019B039A1A6046
:107E6400019B049ADA61059B019ADA6100BF06B0AE
:107E7400704700BF0C32002000B587B001902A4B38
:107E84001B680393284B1B680593059B049308E028
:107E9400049A019B9A4208D0049B0593049BDB69D6
:107EA4000493049B002BF3D100E000BF049B002B40
:107EB40001D1002333E0059A049B9A4214D11A4B52
:107EC4001B68DB69184A1360174B1B68002B0BD126
:107ED400164B01229A60164B00221A60154B0122A0
:107EE4001A702F20FFF7E0FE049B1B680293049B8B
:107EF400DA69059BDA61059BDB690493049B002B1B
:107F040005D0049B1A68029B1A44049B1A60064B12
:107F14001B68039A9A4214BF01230023DBB218465C
:107F240007B05DF804FB00BF0C32002000100140D4
:107F3400103200201F32002008B51120FFF75CFE2C
:107F440000BF08BD08B51420FFF756FE00BF08BDEA
:107F540000B583B00190019B5B69019A9269104658
:107F6400984700BF03B05DF804FB000000B585B07E
:107F74002B4B1B68002B4ED000230193FFF706FF09
:107F84000246284B1B6819461046FFF707FF02906C
:107F9400234B1B6803931DE0039B1A68029B9A42C0
:107FA4001CD8039B1B68029AD31A0293039B1B6879
:107FB400019A13440193039B0093039BDB6903938E
:107FC400009B1B7C002B05D0009B00221A74009898
:107FD400FFF7BEFF039B002BDED100E000BF124B76
:107FE4001A78124B1B789A420CD1104B1B78013330
:107FF400DAB20E4B1A700D4B1B78022B02D10B4BCD
:1080040000221A70094B1B781946094A019B42F851
:108014002130FFF797FF00BF05B05DF804FB00BFF8
:108024000C320020103200201C3200201D320020AF
:108034001432002082B00190184B1A78184B1B7828
:108044009A4223D0154B1B780133DAB2134B1A70C2
:10805400124B1B78022B02D1104B00221A700F4BCB
:108064001B781A460F4B53F82220019B1A60019B80
:108074001A680D4B1B6813440B4A13600A4B1B68A8
:1080840023F07F43084A1360012303E0019B00228D
:108094001A600023184602B0704700BF1C3200204B
:1080A4001D320020143200201032002088B00390CA
:1080B400029101920023079338E0204B1B6806933A
:1080C400069B1A68039B9A4206D9069B1A68039B6F
:1080D400D21A069B1A602DE0069B1B68039AD31ADA
:1080E4000393069B1B68079A13440793069B00227D
:1080F4001A60124B1B680593069BDB690F4A1360D9
:10810400069BDB68002B11D0029A079B134423F0D3
:108114007F42069B5A60069BDA68069B9A60019B25
:108124001A68069BDA61019B059A1A60034B1B6867
:10813400002BC2D100BF08B0704700BF0C32002032
:1081440000B589B0019000238DF81F30664B1B6881
:108154000593AAE0019B002B05D0019B0693069B87
:10816400DB69019361E0614B1B781A4613465B009F
:108174001344DB005D4A1344043304935B4B1B78C4
:108184000133DAB2594B1A70584B1A78574B9B7813
:108194009A4202D1554B00221A70049B5B680693E5
:1081A400049B1B78022B04D0032B1BD0012B1FD064
:1081B4001DE0049B5B681846FFF75EFE0346002B38
:1081C40002D001238DF81F30069B00221A746CE044
:1081D400454B1B680393039B00221A74039BDB69C2
:1081E400414A1360404B1B68002BF1D15DE05CE019
:1081F40000BF069B1B7C002B00D056E0049B9A68B2
:10820400069B5A60049BDA68069B9A60049B1A6971
:10821400069BDA60049B5A69069B9A61344B1B786F
:10822400002B02D0069B00225A60069B5A68314BF1
:108234001B68D31A23F07F432F4A93420ED8069B20
:108244005A682C4B1B6819461046FFF7A7FD0246D7
:10825400069B9B681A44069B1A6017E0254B1A6814
:10826400069B5B6819461046FFF798FD0290069B33
:108274009A68029B9A4206D9069B9A68029BD21A74
:10828400069B1A6002E0069B00221A60069B0022ED
:108294005A60069B00229A60069B01221A74069B70
:1082A4000022DA610698FFF791FD019B002B7FF411
:1082B40051AF0E4B1A780D4B5B789A427FF44AAF5C
:1082C4009DF81F30002B04D1074B1A68059B9A4276
:1082D40001D0012300E0002303F00103DBB21846C0
:1082E40009B05DF804FB00BF0C320020003100200F
:1082F4001F32002010320020FEFF7F0010B588B02E
:108304000190274B1B68002B44D0254B1B681B682E
:108314000793FFF73BFD0690224B1B6805930599D5
:108324000698FFF73BFD0346033304931E4B1B786B
:1083340083F00103DBB2002B01D0FFF7DFFC049ACA
:10834400079B934238BF1346059A13440593059B34
:1083540023F07F4305930598FFF72CFDFFF716FDE7
:10836400039006990398FFF719FD0346DC1C069950
:108374000598FFF713FD03469C420DD9FFF706FD50
:1083840003461846FFF716FD2F20FFF78DFCFFF775
:10839400D3FD01E0FFF7D2FC00BF08B010BD00BF61
:1083A4000C320020103200201E32002000B587B0AD
:1083B4000023019300238DF81730194B1B68049395
:1083C400184B1B6803936B461846FFF733FE0346AE
:1083D4008DF80B309DF80B30002B08D0009B01AAC0
:1083E40004991846FFF762FE01238DF81730019BAC
:1083F4001846FFF7A5FE0346002B02D001238DF893
:1084040017309DF81730002B02D00398FFF776FF42
:10841400054B00221A7000BF07B05DF804FB00BFD3
:10842400103200200C3200201F32002082B003469C
:108434008DF80730034A9DF80730537000BF02B02F
:10844400704700BF0031002084B00190144B5B786A
:1084540001338DF80F30124B9B789DF80F209A4210
:1084640002D100238DF80F300D4B1B789DF80F209F
:108474009A4201D100230FE0019B9DF80F201A704E
:10848400074B5B781A4613465B001344DB00044A2F
:10849400134404330293029B184604B0704700BF90
:1084A4000031002000B589B003900291019200933D
:1084B4000023079300238DF816300DF11603184698
:1084C40000F0C4FB0DF117031846FFF7BDFF06903B
:1084D400069B002B02D10423079318E0069B01227C
:1084E4001A70069B039A5A60FFF750FC0246069BDB
:1084F4009A60069B029ADA60069B019A1A61069BAF
:10850400009A5A619DF817301846FFF78FFF9DF8BF
:108514001630184600F0A4FB079B002B01D1FFF78F
:1085240011FD079B184609B05DF804FB00B587B040
:1085340001900B468DF803300023059300238DF83A
:108544000E300DF10E03184600F080FB0DF10F0301
:108554001846FFF779FF0490049B002B02D10423F3
:1085640005930BE0049B9DF803201A70049B019A69
:108574005A609DF80F301846FFF758FF9DF80E30EB
:10858400184600F06DFB059B002B01D1FFF7DAFCC8
:10859400059B184607B05DF804FB000008B50E4BB8
:1085A4000022C3F840210C4B0022C3F844210A4B9B
:1085B4000022C3F84821084B0022C3F84C21064B83
:1085C4000022C3F80021044B0022C3F80421FFF762
:1085D400CDFC00BF08BD00BF0010014008B5FFF787
:1085E400E5FE00BF08BD000008B5FFF7A7FB134B6D
:1085F40000221A70114B00225A70104B0B229A70F1
:108604000F4B00221A600F4B00221A700E4B0022EF
:108614001A701420FFF708FB07211420FFF71CFB36
:108624001420FFF7BBFA0020FFF756FBFFF7AEFB61
:108634000246064B1A600023184608BD003100208C
:108644000C3200201C3200201D3200201032002089
:1086540086B003900B4601928DF80B30134B9B7838
:10866400002B01D108231EE0019B002B01D107231D
:1086740019E0039B002B01D1072314E0039B1B6823
:108684001B7C002B01D008230DE0039B1B68059382
:10869400059B00221A74059B9DF80B205A74059BB8
:1086A400019A5A610023184606B070470031002031
:1086B40000B587B0039002910192039B0593144B7C
:1086C4009B78002B01D108231EE0039B002B01D1D2
:1086D400082319E0029B042B01D8072314E0059B0F
:1086E4005B69002B01D108230EE0059B5B7C012B09
:1086F40001D1029B00E000230493019B049A029998
:108704000598FFF7CFFE0346184607B05DF804FB53
:108714000031002000B585B00190019B03930D4BFF
:108724009B78002B01D1082310E0019B002B03D080
:10873400039B5B69002B01D1082307E0039B002204
:108744001A7402210398FFF7F1FE0346184605B098
:108754005DF804FB0031002000B587B0039002915E
:1087640013468DF8073000230593039B1B781A46A4
:10877400114B9B5C002B09D0039B04339DF807200D
:108784000299184604F08EFC05900FE0039B1B78B9
:108794001A46094B9B5C002B08D1039B0C339DF8B4
:1087A40007200299184603F0A5FE0590059B18467C
:1087B40007B05DF804FB00BFA032002000B585B00F
:1087C400019000238DF80F30019B1B781A46114B42
:1087D4009B5C002B08D0019B0433184604F0E4FC96
:1087E40003468DF80F300EE0019B1B781A46094BA7
:1087F4009B5C002B07D1019B0C33184603F0E6FE6B
:1088040003468DF80F309DF80F30184605B05DF81B
:1088140004FB00BFA032002000B587B00390029192
:1088240013468DF8073000230593039B1B781A46E3
:10883400114B9B5C002B09D0039B04339DF807204C
:108844000299184604F0C8FC05900FE0039B1B78BE
:108854001A46094B9B5C002B08D1039B0C339DF8F3
:1088640007200299184603F009FF0590059B184656
:1088740007B05DF804FB00BFA032002084B0019073
:10888400019B9B680393019BDA68039BD31A1846E8
:1088940004B0704700B587B001900091019B1B782C
:1088A400012B04D0022B38D0002B47D05CE0019B75
:1088B4005B681B7819462E48FFF73FF90590059B26
:1088C400002B0AD001238DF80C30059B0493294B0F
:1088D4001B6803AA104698470DE02548FFF7CEFF12
:1088E4000346002B07D000238DF80C30214B1B6866
:1088F40003AA104698471E48FFF7C0FF02461C4BC8
:108904009B889A4205D801221B491C48FFF784FF23
:108914002AE01B4B01221A7026E002238DF80C304A
:10892400019BDB680493012213491448FFF774FF89
:10893400104B1B6803AA1046984715E011491248CA
:10894400FFF716F90346002B05D101220D490B4808
:10895400FFF702FF07E003238DF80C30054B1B687B
:1089640003AA1046984700BF00BF07B05DF804FB98
:108974002C3200202032002028320020202B00201E
:1089840029320020243200203C32002030B591B03E
:108994000390029101928DF803303C4A019B1360CD
:1089A400029B002B01D107236DE0029B1968029BF7
:1089B4005B689BB21A463648FFF793F80F900F9BFB
:1089C4000E930E9B002B01D00E9B5CE0029B9968DA
:1089D400029BDB689BB21A462E48FFF782F80F9081
:1089E4000F9B0D930D9B002B01D00D9B4BE02A4B4D
:1089F40004AC1D460FCD0FC495E80F0084E80F00AA
:108A0400039B5B690A93039B1B7C002B14BF01230C
:108A14000023DBB28DF824309DF803308DF82C3020
:108A2400039B5B7C002B01D00E2300E000238DF818
:108A34002530039BDB680693039B9B680793039B8A
:108A44001B680593039B5B68049304AB134A1946A4
:108A5400134802F0F9F90F900F9B0C930C9B002B19
:108A640001D00C9B0FE00F4B00221A70039B1B6874
:108A7400B3F1FF3F06D001220B490948FFF7CCFEB2
:108A8400034600E00023184611B030BD2032002018
:108A94002C3200203C320020F84603009988020062
:108AA400202B0020293200202832002000B587B076
:108AB4000190114B1B788DF8173001990F48FFF77F
:108AC40057F804909DF81730002B10D00A4B002261
:108AD4001A7001220A490B48FFF79EFE0390039B7C
:108AE4000293029B002B02D00298FEF751FF049BD5
:108AF400184607B05DF804FB293200202C32002010
:108B040028320020202B002000B585B003468DF8C4
:108B140007309DF8073019461048FFF70EF8039008
:108B2400039B002B15D10E48FFF748FE034683F044
:108B34000103DBB2002B0CD00A490848FFF718F8F0
:108B44000346002B05D1012206490548FFF704FE20
:108B54000390039B184605B05DF804FB3C320020EB
:108B6400202B00202432002082B0EFF310830093E6
:108B7400009B019372B6019B184602B0704762B61F
:108B840000BF704700B585B00190FFF7EDFF03907B
:108B9400164B9B68002B1BD1144B01229A60144B7B
:108BA400D3F88020134B1340104A1360104B114A22
:108BB400C3F880200E4BD3F884300C4A53600C4B1E
:108BC4004FF0FF32C3F88420019B00221A7002E0A8
:108BD400019B01221A70039B002B01D1FFF7CFFFE9
:108BE4000023184605B05DF804FB00BF4C3200209A
:108BF40000E100E0FC06FFBD00B585B003468DF83A
:108C04000730104B9B68002B16D09DF80730002BC3
:108C140012D1FFF7A9FF03900B4A0A4B1B6813609C
:108C2400094A084B5B685360064B00229A60039B19
:108C3400002B01D1FFF7A3FF0023184605B05DF810
:108C440004FB00BF4C32002000E100E000B583B01B
:108C540001900198FFF796FF00BF03B05DF804FB95
:108C640000B583B003468DF807309DF807301846E9
:108C7400FFF7C2FF00BF03B05DF804FB86B00190AC
:108C84000091019B53E8021F1FFAA1F2D888824287
:108C940002BFBFF32F8F00230DE0D88902449889C7
:108CA400824228BF121AC1EA024243E80220002885
:108CB400E8D14FF001038DF80F3005900291049232
:108CC400029A009B1A609DF80F30DBB2184606B07A
:108CD400704784B00190019951E8023FC3EA2343ED
:108CE40041E80232002AF7D10392029300BF04B094
:108CF400704700B585B001900091009B194601981A
:108D0400FFF7BCFF0346002B07D0019B1B68009AAA
:108D1400528813440393039B00E00023184605B0D4
:108D24005DF804FB00B583B001900091009B1A88A4
:108D3400009B5B889A4204D10198FFF7CAFF012384
:108D440000E00023184603B05DF804FB00B585B0CD
:108D540001900091009B5B099B00019AD018009B35
:108D640003F01F03012202FA03F3194600F04CF842
:108D7400039000BF05B05DF804FB00B585B0019019
:108D84000091009B5B099B00019AD018009B03F0A3
:108D94001F03012202FA03F3DB43194600F064F8CF
:108DA400039000BF05B05DF804FB82B00190009110
:108DB400009B5B099B00019A13441A68009B03F013
:108DC4001F0322FA03F303F00103002B14BF012352
:108DD4000023DBB2184602B0704710B487B001908C
:108DE4000091019B009A53E8004F104643E80001AC
:108DF40091F0000FF7D1059404900391059B184658
:108E040007B05DF8044B704710B487B0019000912F
:108E1400019B009A53E8004F44EA020043E8000132
:108E240091F0000FF6D1059404900391049B184629
:108E340007B05DF8044B704710B487B001900091FF
:108E4400019B009A53E8004F04EA020043E8000142
:108E540091F0000FF6D1059404900391059B1846F8
:108E640007B05DF8044B704710B487B001900091CF
:108E7400019B009A53E8004F04EA020043E8000112
:108E840091F0000FF6D1059404900391049B1846C9
:108E940007B05DF8044B704710B487B0019000919F
:108EA400019B009A53E8004F04EB020043E80001E1
:108EB40091F0000FF6D1059404900391049B184699
:108EC40007B05DF8044B704710B487B0019000916F
:108ED400019B009A53E8004FA4EB020043E8000111
:108EE40091F0000FF6D1059404900391049B184669
:108EF40007B05DF8044B704700B583B001900121C1
:108F04000198FFF781FF0346184603B05DF804FBA0
:108F140000B583B0019000210198FFF78DFF03464F
:108F2400184603B05DF804FB82B001900B468DF83F
:108F34000330019BDA689DF803300199898A01FBAB
:108F440003F31344184602B0704782B001900091B5
:108F5400009B019AD2689B1A019A928AB3FBF2F39E
:108F6400DBB2184602B0704784B00190019B002B1D
:108F740001D10E2321E0019B9B681A46019B5B688B
:108F8400D31A8DF80F30019B1B68019A52681A603E
:108F940007E0019B1A681368591C11609DF80F20A3
:108FA4001A709DF80F305A1E8DF80F20002BF0D147
:108FB400019B1B6800221A710023184604B07047F5
:108FC40000B585B001900023039300238DF80A3087
:108FD4000DF10A031846FFF739FE019B1B681A6856
:108FE400019B5B689A4220D9019B1B681A68013A6D
:108FF4001A601B681B7819460198FFF795FF0390C8
:10900400019B9B681A46019B1B681B68D31A8DF849
:109014000B30019B1B681B799DF80B209A4204D9E5
:10902400019B1B689DF80B201A719DF80A301846A5
:10903400FFF716FE039B184605B05DF804FB10B558
:1090440084B001900091009B039300238DF80B30B2
:109054000DF10B031846FFF7F9FD019B1B681C6813
:10906400621C1A6003990198FFF76FFF034623708F
:109074009DF80B301846FFF7F3FD00BF04B010BD98
:1090840000B583B00190019B9B68002B0CD0019B21
:109094005B69019A1069019A1168019A926898476C
:1090A400019B00229A6000E000BF03B05DF804FB5E
:1090B4000EB400B584B00190059B002B0AD00023A8
:1090C400039306AB039303AB1A460599019800F08A
:1090D400ADF900E000BF04B05DF804EB03B07047E5
:1090E40000B583B001900B468DF80330019B1A68DC
:1090F400019B9B68581C0199886013449DF80320C8
:109104001A70019B9A68019B5B689A4202D301988A
:10911400FFF7B6FF00BF03B05DF804FB00B587B0EE
:10912400039002910192009300230593009B03F0A6
:109134000103002B24D00BE0029B01330293059B17
:10914400013305939DF8133019460398FFF7C8FFC0
:10915400029B1B788DF813309DF81330002BEBD154
:1091640006E0019B013B019320210398FFF7B8FF20
:10917400019A059B9A422ED9019B002BF1D12AE03A
:10918400029B002B0BD002980AF0BAFD059006E072
:10919400019B013B019320210398FFF7A1FF019A52
:1091A400059B9A420FD9019B002BF1D10BE0029B46
:1091B40001330293059B013305939DF8133019463F
:1091C4000398FFF78DFF029B1B788DF813309DF8F1
:1091D4001330002BEBD100BF07B05DF804FB000097
:1091E40000B589B00390029101920093029B07930A
:1091F4000123069307E0079A019BB2FBF3F307935D
:10920400069B01330693079A019B9A42F3D2009A74
:10921400069B9A4201D9009B06930B9B03F0010322
:10922400002B22D10A9B002B1FD00B9B03F00203BF
:10923400002B06D0009B002B03D130238DF8173070
:1092440002E020238DF8173008E00A9B013B0A93C3
:109254009DF8173019460398FFF742FF0A9B002B2D
:1092640003D0069A0A9B9A42EFD301230793009BEB
:10927400012B03D9009B013B009309E0029A079B51
:10928400B2FBF3F30493049A019B9A4200D205E0E3
:10929400079B019A02FB03F30793E8E7029A079BF3
:1092A400B2FBF3F30493049B079A02FB03F3029AC1
:1092B400D31A0293154A049B13441B781946039846
:1092C400FFF70EFF079A019BB2FBF3F30793079B8B
:1092D400002BE3D10B9B03F00103002B11D00A9B5D
:1092E400002B0ED006E00A9B013B0A932021039831
:1092F400FFF7F6FE0A9B002B03D0069A0A9B9A42BC
:10930400F1D300BF09B05DF804FB00BF18470300A8
:1093140000B589B00590049103920293049B002B3D
:10932400B8BF5B4206930123079307E0039B069AA9
:1093340092FBF3F30693079B01330793039B069A6F
:109344009A42F3DA029A079B9A4201D9029B079345
:109354000A9B002B0AD0049B002B04DB0B9B03F01D
:109364000403002B02D00A9B013B0A930B9B03F0DE
:109374000203002B02D0029B002B16D00B9B03F0A0
:109384000103002B11D10A9B002B0ED006E00A9B8F
:10939400013B0A9320210598FFF7A2FE0A9B002BAC
:1093A40003D0079A0A9B9A42F1D3049B002B07DA55
:1093B400049B5B4204932D210598FFF791FE08E07E
:1093C4000B9B03F00403002B03D02B210598FFF71C
:1093D40087FE0B9B03F00203002B19D00B9B03F0B9
:1093E4000103002B14D1029B002B11D10A9B002BEB
:1093F4000ED006E00A9B013B0A9330210598FFF743
:109404006FFE0A9B002B03D0079A0A9B9A42F1D362
:1094140004990B9B01930A9B0093029B039A059862
:10942400FFF7DEFE00BF09B05DF804FB00B58FB0A6
:10943400059004910392049B002B00F0E981049BA6
:109444001B788DF83730049B013304939DF8373033
:10945400002B00F0D4819DF83730252B40F0C381D8
:1094640000230A9301230C93049B1B788DF8373057
:109474009DF837302D2B04D0302B0AD02B2B10D055
:1094840017E00A9B43F001030A93049B01330493FE
:1094940012E00A9B43F002030A93049B01330493F2
:1094A4000AE00A9B43F004030A93049B01330493E8
:1094B40002E000230C9300BF0C9B002BD4D10023AB
:1094C40009939DF837302A2B0CD1039B1B68191D77
:1094D400039A11601B68099A13440993049B01338E
:1094E40004931AE0049B1B788DF837309DF83730CD
:1094F4002F2B12D99DF83730392B0ED8049B01330A
:109504000493099A13469B0013445B001A469DF882
:1095140037301344303B0993D3E700230B93049B68
:109524001B788DF837309DF837302E2B1DD1049BD6
:1095340001330493049B1B788DF837309DF8373042
:109544002F2B12D99DF83730392B0ED8049B0133B9
:1095540004930B9A13469B0013445B001A469DF830
:1095640037301344303B0B93E4E7049B1B788DF8AE
:1095740037309DF837306C2B03D09DF83730682B8B
:1095840007D1049B01330493049B1B788DF8373077
:10959400EFE79DF83730253B532B00F21F8101A2E2
:1095A40052F823F0D7970200E1970200E1970200F6
:1095B400E1970200E1970200E1970200E1970200BF
:1095C400E1970200E1970200E1970200E1970200AF
:1095D400E1970200E1970200E1970200E19702009F
:1095E400E1970200E1970200E1970200E19702008F
:1095F400E1970200E1970200E1970200E19702007F
:10960400E1970200E1970200E1970200E19702006E
:10961400E1970200E1970200E1970200E19702005E
:10962400E1970200E1970200E1970200E19702004E
:10963400E1970200E1970200E1970200E19702003E
:10964400E1970200E1970200E1970200E19702002E
:10965400E1970200E1970200E1970200E19702001E
:10966400E1970200E1970200E1970200E19702000E
:1096740063970200E1970200E1970200E19702007C
:10968400E1970200E1970200E1970200E1970200EE
:10969400E1970200E1970200E1970200F9960200C7
:1096A4001B970200E1970200E1970200E197020094
:1096B400E19702001B970200E1970200E197020084
:1096C400E1970200E1970200E1970200E1970200AE
:1096D400A3970200E1970200E19702008797020036
:1096E400E19702003F970200E1970200E197020030
:1096F40063970200039B1B68191D039A11601B6882
:109704000C930C9B8DF823309DF823301946059853
:10971400FFF7E6FC63E0039B1B68191D039A1160C5
:109724001B680C930A9B0193099B00930B9B0A22D1
:109734000C990598FFF7ECFD51E0039B1B68191D7C
:10974400039A11601B680C930C990A9B0193099B63
:1097540000930B9B0A220598FFF742FD3FE0039B11
:109764001B68191D039A11601B680C930C990A9BC2
:109774000193099B00930B9B10220598FFF730FD82
:109784002DE0039B1B68191D039A11601B68079346
:109794000A9B099A07990598FFF7C0FC1FE0039BF1
:1097A4001B68191D039A11601B680C9330210598DE
:1097B400FFF796FC78210598FFF792FC0C9900239B
:1097C400019308230093082310220598FFF708FD4E
:1097D40005E025210598FFF783FC00E000BF049B0A
:1097E4000133049305E09DF8373019460598FFF7D7
:1097F40077FC049B1B78002B7FF421AE00E000BFB4
:10980400059B1B7B002B04D00598FFF739FC00E077
:1098140000BF0FB05DF804FB00B585B00190019B5B
:10982400002B03D0019B1B68002B28D1002303933A
:1098340019E0039A13469B0013449B001A46154BE8
:1098440013440193019B1B68002B09D0019B1B68E7
:10985400DB69019898470346002B01D0012314E0EB
:10986400039B013303930C4A0A4BD31A0B4AA2FB02
:1098740003231B09039A9A42DBD3002305E0019BCF
:109884001B68DB69019898470346184605B05DF8E4
:1098940004FB00BFDC2A0020DC2A0020CDCCCCCC89
:1098A40029DF704700BF184628DF704700BF1846FD
:1098B40000B589B001900091019B1B689B68002B47
:1098C40035D002AB00221A605A609A60DA601A61DD
:1098D4005A61009B0393019B9B680793019B1B792F
:1098E400002B02D0012B0DD01AE001238DF8083093
:1098F400019B1B690493019BDB680593019B5B69D6
:1099040006930DE002238DF80830019BDB684FF4C9
:10991400805202FB03F30493019B5B69069300BF2F
:10992400019B1B689B6802AA1046984700E000BF91
:1099340009B05DF804FB00B587B00190019B5A693A
:10994400019B9B69D31AB3F5805F28BF4FF4805302
:1099540005930422059BB3FBF2F3012B38BF0123CB
:109964000593019B1A69019B9B6913440493019B12
:10997400DB681A46019B9B6913440393059A039978
:109984000498FFF78DFF0346184607B05DF804FB03
:1099940000B583B00190019BDA68019B1B691344F5
:1099A4001846FFF781FF0346184603B05DF804FB31
:1099B40008B5034B03491846FFF7B4F900BF08BDC7
:1099C400342B00207032002008B5084B0849184693
:1099D400FFF78FF90246074B1A60064B1B68002BF2
:1099E40014BF01230023DBB2184608BD342B00202A
:1099F400703200206C32002000B583B02A4B1B7AF1
:109A0400002B0BD1FFF7E0FF034683F00103DBB229
:109A1400002B03D0244B00225A6042E0224B022246
:109A24001A72224B1B681B79002B02D0012B07D022
:109A34000DE01E4B1B681846FFF77DFF019009E0FF
:109A44001A4B1B681846FFF7A3FF019002E003239B
:109A5400019300BF019B002B02D0112B0CD00FE00F
:109A6400114B1B7C83F00103DBB2002B18D00021C7
:109A7400022000F06FF813E00B4B01221A7210E081
:109A84000A4B1B6803211846FFF712FF064B0022FE
:109A94001A72054B00225A60FFF78AFF00BF00E0EC
:109AA40000BF03B05DF804FB583200206C32002084
:109AB40084B001901B4B0022DA60019B1B79002BC0
:109AC40002D0012B19D028E0019B5A69019B9B69A4
:109AD400D31AB3F5805F28BF4FF480530393019BDF
:109AE4009A69039B1A44019B9A61019B9A69019BA1
:109AF4005B699A420ED1012310E0019B1B695A1C39
:109B0400019B1A61019B1A69019B5B699A4203D10B
:109B1400012303E000BF00E000BF0023184604B0A7
:109B2400704700BF5832002082B00190084BDB68B8
:109B34000133074AD360064BDB68082B04D9044B76
:109B44000022DA60012300E00023184602B07047C7
:109B54005832002000B585B001900091019B022B82
:109B640002D0019B032B49D1274B1B7A012B35D003
:109B7400022B02D0002B43D033E000238DF80F30AA
:109B8400019B022B02D0032B09D011E01F4B1B6851
:109B94001846FFF78DFF03468DF80F3008E01B4B86
:109BA4001B681846FFF7C0FF03468DF80F3000BF4F
:109BB4009DF80F30002B13D0134B00221A72134B55
:109BC4001A68019B022B01D1002300E00D231946E2
:109BD4001046FFF76DFEFFF7EBFE01E000BF00E06B
:109BE40000BF094B5B7C83F00103DBB2002B02D086
:109BF400FFF702FF05E009F061FC02E000BF00E0AE
:109C040000BF05B05DF804FB583200206C32002020
:109C140082B0034600918DF80730064B01225A7436
:109C2400044B1B7A002B0CBF01230023DBB2184624
:109C340002B070475832002000B583B0034600914B
:109C44008DF807309DF80730012B03D09DF80730BD
:109C5400032B0DD1084B00225A749DF80730012BB9
:109C64000CBF01230023DAB2034B1A74FFF7C4FEBE
:109C740000BF03B05DF804FB5832002000B583B088
:109C840001900198FFF770F90346184603B05DF898
:109C940004FB00B58BB001900091019B9B8A043BAF
:109CA4000793009A079B1344DA1C079BB2FBF3F358
:109CB4008DF81B300198FFF783F90590059B002B65
:109CC40001D1002338E0059B00221A71059B012273
:109CD4005A71079B9AB2059BDA80059B09939DF8FC
:109CE4001B30013B0493099B019A1A6000230893DB
:109CF4001DE00198FFF764F90390039B002B0ED03D
:109D0400059B5B790133DAB2059B5A71099B039A6F
:109D14001A60039B019A1A60039B099304E0059857
:109D240000F00EF8002307E0089B01330893089A1B
:109D3400049B9A42DDD3059B18460BB05DF804FBE7
:109D440000B58BB00190019B0793079B5B798DF85D
:109D54001B30019B08939DF81B30013B05930023A6
:109D6400099305E0089B1B680893099B0133099339
:109D7400099A059B9A42F5D3089B1B680493019B9F
:109D84000893002309930BE0089B1B68039308992D
:109D94000498FFF754F9039B0893099B0133099333
:109DA4009DF81B20099B9A42EED800BF0BB05DF8CA
:109DB40004FB00B585B00190019B0393039B04331E
:109DC40001211846FFF768F800BF05B05DF804FBF1
:109DD40000B587B00190019B0593059B04330121D5
:109DE4001846FFF771F80346039303AB0493049BEF
:109DF4001B78002B02D10198FFF7A2FF00BF07B028
:109E04005DF804FB00B58DB00390029101920093BC
:109E1400039B0693069BDB880593039B0B93009B94
:109E24001A1D059BB2FBF3F30A93009B0433059AB6
:109E3400B3FBF2F2059901FB02F29B1A0993009A13
:109E4400019B1A44059B1344DA1C059BB2FBF3F3F4
:109E54008DF8133005E00B9B1B680B930A9B013BA9
:109E64000A930A9B002BF6D100230893059A099BB9
:109E7400D31A0793079A019B934228BF134607936B
:109E84002DE09DF83830002B0BD0029A089BD01897
:109E94000B9A099B13440433079A194609F0B0FE40
:109EA4000AE00B9A099B1344181D029A089B134459
:109EB400079A194609F0A4FE002309930B9B1B681B
:109EC4000B93019A079BD31A0193089A079B134497
:109ED4000893059A019B934228BF13460793019B5D
:109EE400002BCED100BF0DB05DF804FB00B587B0E8
:109EF400059004910392029300230093029B039A1A
:109F040004990598FFF77EFF00BF07B05DF804FBD6
:109F140000B587B005900491039202930123009346
:109F2400029B039A04990598FFF76CFF00BF07B0E2
:109F34005DF804FB82B003468DF8073008499DF9AB
:109F440007305B099DF8072002F01F02012000FA88
:109F540002F2603341F8232000BF02B0704700BF13
:109F640000E100E082B00190019B00221A60BFF37F
:109F74005F8F00BF02B0704741DF704700BF1846D3
:109F840000B585B000238DF803300DF103031846A6
:109F9400FEF75CFEF1EE103A0193019B0393039BE1
:109FA40023F09F030293029BE1EE103ABFF35F8F0D
:109FB4002620FFF7BFFF9DF803301846FEF750FE3A
:109FC40000BF05B05DF804FB08B5064B00221A700B
:109FD4000548FFF7C7FF0549054800F01FF80023AF
:109FE400184608BD7832002074320020F848030077
:109FF4007C32002000B583B0FFF7C2FF09F07AFA83
:10A004000346002B03D0FFF7B7FF019002E020BF07
:10A0140040BF20BF00BF03B05DF804FB82B00190D5
:10A024000091019B009A1A60019B1B681A68019BAE
:10A034005A60019B5A68019B1B685B689A4202D173
:10A04400019B00225A6000BF02B0704782B00190A9
:10A05400019B5B68002B14D0019B5B681A46019B33
:10A064001B689B6813441A46019B5A60019B5A68FB
:10A07400019B1B685B689A4204D1019B00225A60D1
:10A0840000E000BF02B0704700B585B001900198B0
:10A0940000F00EF80390039B002B01D0039B00E01B
:10A0A400024B184605B05DF804FB00BF04490300E9
:10A0B40086B00190164B0593164B04931FE0049A47
:10A0C400059BD31ADB10DA0F13445B10DB00059AEF
:10A0D40013440393039B1B680293029A019B9A42C5
:10A0E40002D9039B04930AE0029A019B9A4203D289
:10A0F400039B0833059302E0039B5B6804E0059A25
:10A10400049B9A42DBD30023184606B0704700BF75
:10A11400044D03002C4E030000B583B00190009160
:10A12400019BDBB21846FEF7EFFC019B184603B017
:10A134005DF804FBBFF34F8F0549054BDB6803F45F
:10A14400E062044B1343CB60BFF34F8F00BFFDE7C6
:10A1540000ED00E00400FA05024B034A1A6000BF58
:10A16400704700BF482B00200090D00308B500F0D2
:10A1740067F90346002B06D09F4AA04B1B681B0AB5
:10A1840003F01F03136000F087F90346002B02D08D
:10A194009B4B9C4A1A6000F09BF90346002B06D0A7
:10A1A400994A9A4B1B685B0B03F00703136000F09A
:10A1B400BBF90346002B05D0954A954BDB6823F089
:10A1C4008073D36000F0CCF90346002B0ED04FF01F
:10A1D40080430022C3F80C214FF080430022C3F8CF
:10A1E40010214FF080430022C3F8382500F0E4F931
:10A1F4000346002B02D0874B03221A6000F0F8F9C3
:10A204000346002B0BD0844B05221A60834B01229A
:10A214001A60834B00221A60824B3F221A6000F0BE
:10A2240003FA0346002B76D07F4A4FF08053D3F8CD
:10A234000434C2F820357C4A4FF08053D3F80834F4
:10A24400C2F82435784A4FF08053D3F80C34C2F85E
:10A254002835754A4FF08053D3F81034C2F82C35A2
:10A26400714A4FF08053D3F81434C2F830356E4A33
:10A274004FF08053D3F81834C2F834356A4A4FF09B
:10A284008053D3F81C34C2F84035674A4FF08053EA
:10A29400D3F82034C2F84435634A4FF08053D3F8DE
:10A2A4002434C2F84835604A4FF08053D3F8283438
:10A2B400C2F84C355C4A4FF08053D3F82C34C2F8C2
:10A2C4005035594A4FF08053D3F83034C2F85435DE
:10A2D400554A4FF08053D3F83434C2F86035524AAB
:10A2E4004FF08053D3F83834C2F864354E4A4FF0F7
:10A2F4008053D3F83C34C2F868354B4A4FF080534E
:10A30400D3F84034C2F86C35474A4FF08053D3F841
:10A314004434C2F8703500F0A3F90346002B05D08D
:10A32400424A434B1B6803F04F03136000F0C4F927
:10A334000346002B0DD04FF08043D3F8003403F0D4
:10A344000103002B05D04FF080436FF00102C3F8E6
:10A35400002400F0DDF90346002B05D0354A354BC7
:10A364001B6843F480631360334A334BD3F888305B
:10A3740043F47003C2F88830BFF34F8FBFF36F8F7D
:10A384004FF01023D3F80032002B05DB4FF01023DD
:10A39400D3F80432002B2BDA284B0122C3F804250E
:10A3A40000BF264BD3F80034002BFAD04FF0102313
:10A3B4001522C3F8002200BF204BD3F80034002B31
:10A3C400FAD04FF010231522C3F8042200BF1B4B10
:10A3D400D3F80034002BFAD0184B0022C3F804251C
:10A3E40000BF164BD3F80034002BFAD0FFF7A2FEBF
:10A3F400FFF7B2FE00BF08BD403501402403001042
:10A4040074C007400DF0ADBA3C0500404402001092
:10A41400F0ED00E0A00500401056004088560040D2
:10A42400185600401456004000C00040E40E00409E
:10A43400580200103C17004000ED00E000E001402D
:10A44400124B1B68DBB2062B1DD1114B1B6803F0AA
:10A454000F03002B17D10F4B1B6803F0F003302BB5
:10A4640001D1012310E00B4B1B6803F0F003402BD8
:10A4740001D1012308E0074B1B6803F0F003502BC4
:10A4840001D1012300E0002318467047E00F00F0DB
:10A49400E40F00F0E80F00F00A4B1B68DBB2062B58
:10A4A4000DD1094B1B6803F00F03002B07D1074B99
:10A4B4001B6803F0F003302B01D1012300E00023DB
:10A4C40018467047E00F00F0E40F00F0E80F00F0CA
:10A4D400124B1B68DBB2062B1DD1114B1B6803F01A
:10A4E4000F03002B17D10F4B1B6803F0F003302B25
:10A4F40001D1012310E00B4B1B6803F0F003402B48
:10A5040001D1012308E0074B1B6803F0F003502B33
:10A5140001D1012300E0002318467047E00F00F04A
:10A52400E40F00F0E80F00F00A4B1B68DBB2062BC7
:10A534000DD1094B1B6803F00F03002B07D1074B08
:10A544001B6803F0F003302B01D1012300E000234A
:10A5540018467047E00F00F0E40F00F0E80F00F039
:10A56400124B1B68DBB2062B1DD1114B1B6803F089
:10A574000F03002B17D10F4B1B6803F0F003302B94
:10A5840001D1012310E00B4B1B6803F0F003402BB7
:10A5940001D1012308E0074B1B6803F0F003502BA3
:10A5A40001D1012300E0002318467047E00F00F0BA
:10A5B400E40F00F0E80F00F00A4B1B68DBB2062B37
:10A5C4000DD1094B1B6803F00F03002B07D1074B78
:10A5D4001B6803F0F003302B01D1012300E00023BA
:10A5E40018467047E00F00F0E40F00F0E80F00F0A9
:10A5F4000A4B1B68DBB2062B0DD1094B1B6803F019
:10A604000F03002B07D1074B1B6803F0F003302B1B
:10A6140001D1012300E0002318467047E00F00F049
:10A62400E40F00F0E80F00F00A4B1B68DBB2062BC6
:10A634000DD1094B1B6803F00F03002B07D1074B07
:10A644001B6803F0F003502B01D1012300E0002329
:10A6540018467047E00F00F0E40F00F0E80F00F038
:10A66400124B1B68DBB2062B1DD1114B1B6803F088
:10A674000F03002B17D10F4B1B6803F0F003302B93
:10A6840001D1012310E00B4B1B6803F0F003402BB6
:10A6940001D1012308E0074B1B6803F0F003502BA2
:10A6A40001D1012300E0002318467047E00F00F0B9
:10A6B400E40F00F0E80F00F0124B1B68DBB2062B2E
:10A6C4001DD1114B1B6803F00F03002B17D10F4B47
:10A6D4001B6803F0F003302B01D1012310E00B4B76
:10A6E4001B6803F0F003402B01D1012308E0074B62
:10A6F4001B6803F0F003502B01D1012300E0002379
:10A7040018467047E00F00F0E40F00F0E80F00F087
:10A71400064B1B68062B05D1054B1B68062B01D184
:10A72400012300E000231846704700BF30010010E9
:10A734003401001082B001904FF0A043184602B0DB
:10A74400704700B585B00190084611461A46034685
:10A754008DF803300B468DF8023013468DF8013026
:10A7640001AB1846FFF7E6FF0390019A9DF803102A
:10A774009DF802305B0019439DF801309B0019439A
:10A784009DF818301B0219439DF81C301B04194313
:10A79400039B02F5E07243F8221000BF05B05DF898
:10A7A40004FB00B585B003900023019300230093BC
:10A7B4000023012201210398FFF7C3FF00BF05B066
:10A7C4005DF804FB00B585B003900B468DF80B30A3
:10A7D4009DF80B20002301930023009313460022CD
:10A7E40000210398FFF7ADFF00BF05B05DF804FB3F
:10A7F40000B585B0019001AB1846FFF79BFF0390AD
:10A80400019B012202FA03F31946039800F086F82B
:10A8140000BF05B05DF804FB00B585B0019001AB45
:10A824001846FFF787FF0390019B012202FA03F306
:10A834001946039800F07CF800BF05B05DF804FBEE
:10A8440000B585B0019001AB1846FFF773FF039084
:10A85400039BD3F804350293029BDA43019B012145
:10A8640001FA03F31A40039BC3F80825019B012254
:10A874009A40029B1A40039BC3F80C2500BF05B005
:10A884005DF804FB00B583B001900091009B002BA0
:10A8940003D10198FFF7C0FF02E00198FFF7A8FF7A
:10A8A40000BF03B05DF804FB00B585B0019001ABB7
:10A8B4001846FFF73FFF0390039800F01FF8024685
:10A8C400019B22FA03F303F00103184605B05DF877
:10A8D40004FB00B585B0019001AB1846FFF72AFFD1
:10A8E4000390039800F012F80246019B22FA03F346
:10A8F40003F00103184605B05DF804FB82B0019033
:10A90400019BD3F81035184602B0704782B001900D
:10A91400019BD3F80435184602B0704782B0019009
:10A924000091019B009AC3F8082500BF02B070474C
:10A9340082B001900091019B009AC3F80C2500BFDE
:10A9440002B0704700B585B001900F4A019B1344D3
:10A954001B781846FFF7BDFF0346002B14BF0123E5
:10A9640000238DF80F309DF80F30002B14BF012306
:10A974000023DBB283F00103DBB203F00103DBB29B
:10A98400184605B05DF804FB2C4E030000B583B0F7
:10A994000190064A019B13441B7800211846FFF7D7
:10A9A40071FF00BF03B05DF804FB00BF2C4E030031
:10A9B40000B583B00190064A019B13441B78012122
:10A9C4001846FFF75FFF00BF03B05DF804FB00BF4C
:10A9D4002C4E030000B583B00023019305E00198D9
:10A9E400FFF7E6FF019B01330193019B032BF6D98B
:10A9F40000BF03B05DF804FB00B583B000230193EE
:10AA040005E00198FFF7C2FF019B01330193019B0D
:10AA1400032BF6D900BF03B05DF804FB00B583B087
:10AA24000190054A019B13441B781846FFF708FF61
:10AA340000BF03B05DF804FB2C4E030000B583B0E7
:10AA44000023019309E0094A019B13441B7818462B
:10AA5400FFF7A7FE019B01330193019B032BF2D95E
:10AA6400FFF7B8FF00BF03B05DF804FB2C4E0300F2
:10AA740000B585B001900F4A019B13441B7818461A
:10AA8400FFF712FF0346002B14BF012300238DF8A8
:10AA94000F309DF80F30002B14BF01230023DBB2CD
:10AAA40083F00103DBB203F00103DBB2184605B007
:10AAB4005DF804FB304E030000B583B0002301931E
:10AAC4000AE0094A019B13441B7803211846FFF747
:10AAD40079FE019B01330193019B032BF1D900BF44
:10AAE40003B05DF804FB00BF304E030084B0019056
:10AAF4004FF0FF330293002303930DE00A4A039BB4
:10AB040013441B781A46019B9A4202D1039B029379
:10AB140005E0039B01330393039B032BEED9029BB4
:10AB2400184604B0704700BF304E030082B0019055
:10AB3400034A019B13441B78184602B0704700BFB8
:10AB4400304E030000B583B00190019B03F0010374
:10AB5400002B01D0FFF772FF019B03F00203002BCF
:10AB640001D0FFF7A9FF00BF03B05DF804FB0000AC
:10AB740082B003468DF8073008499DF907305B0918
:10AB84009DF8072002F01F02012000FA02F2203390
:10AB940041F8232000BF02B0704700BF00E100E08D
:10ABA40008B500F0EBFA024B00229A7000BF08BD12
:10ABB4008432002000B583B000230193144B1B782A
:10ABC400002B02D0852301931CE0114B00229A60D4
:10ABD4000F4B00225A600E4B00221A610C4B0022CC
:10ABE400DA600C4800F0A8FA019008F083FC0346F0
:10ABF40083F00103DBB2002B01D000F0B7FA044B61
:10AC040001221A70019B184603B05DF804FB00BFD3
:10AC140084320020C9AC020084B00190019B1B68FF
:10AC24000393039B002B03D0039B1A68019B1A60B8
:10AC3400039B184604B0704700B583B000238DF819
:10AC440007300DF107031846FEF700F8094BDB68DF
:10AC5400013B084AD360074BDB68002B01D1FFF7A7
:10AC64009FFF9DF807301846FDF7FAFF00BF03B0B9
:10AC74005DF804FB8432002000B585B003468DF8EE
:10AC840007309DF80730002B02D10C4B039301E0F1
:10AC94000B4B03930398FFF7BFFF0290029B002B1B
:10ACA40006D0029B5B689DF8072010469847F1E7A1
:10ACB40000BF00BF05B05DF804FB00BF8C3200206C
:10ACC4009432002000B583B003468DF807309DF818
:10ACD4000730002B05D10A4B01225A700020FFF7E0
:10ACE400CBFF9DF80730012B05D1054B01229A704B
:10ACF4000120FFF7C1FF00BF03B05DF804FB00BFF4
:10AD04008432002000B583B001900091019B002B98
:10AD140005D1054B01225A700020FFF7ADFF00BF9B
:10AD240003B05DF804FB00BF8432002000B585B099
:10AD3400034600918DF807309DF80730012B08D0A9
:10AD4400032B25D0002B00D027E00020FFF710FFB5
:10AD540023E000238DF80F300DF10F031846FDF7A3
:10AD640075FF104B1B7883F00103DBB2002B01D07D
:10AD7400FFF720FF0B4BDB6801330A4AD360094B12
:10AD840001229A709DF80F301846FDF769FF04E020
:10AD940000F0ECF9FFF750FF00BF00BF05B05DF80D
:10ADA40004FB00BF8432002000B589B001900091FB
:10ADB400009B0793019B1B788DF80C30019B5B680B
:10ADC4000493019B1B7A8DF81430019BDB68069376
:10ADD400074A079B52F823300649079A51F8221074
:10ADE40003AA1046984700BF09B05DF804FB00BFF2
:10ADF400983200209C32002000B589B00190009167
:10AE0400009B0793019B1B788DF80C30019B5B68BA
:10AE14000493019B9B68DBB28DF81430019BDB68C3
:10AE24000693074A079B52F823300649079A51F8BC
:10AE3400221003AA1046984700BF09B05DF804FB2E
:10AE4400983200209C32002030B58FB003900291DC
:10AE54000192039B1B780C9326490C9B019A41F8A1
:10AE64002320029B1A6924490C9B41F82320029B4E
:10AE74005B7F1946214A0C9B13440A461A70029BB5
:10AE840004AC1D460FCD0FC495E80F0084E80F00F5
:10AE94000C9B089300230D93039B1B781A46174BB6
:10AEA4009B5C002B0DD0039B181D019B002B01D034
:10AEB400134A00E0002204AB194602F095F80D9005
:10AEC40014E0039B1B781A460C4B9B5C002B0DD1A2
:10AED400039B03F10C00019B002B01D0094A00E005
:10AEE400002204AB194601F05DFA0D900D9B184643
:10AEF4000FB030BD983200209C320020A0320020D8
:10AF0400ADAD0200FDAD020082B003468DF80730FE
:10AF140007499DF907305B099DF8072002F01F02DD
:10AF2400012000FA02F241F8232000BF02B070476A
:10AF340000E100E082B003468DF8073008499DF92E
:10AF440007305B099DF8072002F01F02012000FA78
:10AF540002F2603341F8232000BF02B0704700BF03
:10AF640000E100E082B0034600918DF807309DF9BE
:10AF74000730002B0CDA0D499DF8073003F00F035E
:10AF8400043B009AD2B25201D2B20B441A7609E0C1
:10AF940007499DF90730009AD2B25201D2B20B444C
:10AFA40083F8002300BF02B0704700BF00ED00E04B
:10AFB40000E100E000B583B003460A468DF807308F
:10AFC40013468DF806309DF806209DF9073011468A
:10AFD4001846FFF7C7FF00BF03B05DF804FB00B5D8
:10AFE40083B003468DF807309DF907301846FFF704
:10AFF400A1FF9DF907301846FFF786FF00BF03B095
:10B004005DF804FB82B003468DF807300F4A9DF9C2
:10B014000730002B00DA1F335B115BB252F8232098
:10B024009DF90730594203F01F0301F01F0158BF77
:10B034004B425BB222FA03F303F00103002B14BF6B
:10B0440001230023DBB2184602B0704700E100E0A0
:10B0540082B001904FF08042019BC2F8083300BFD8
:10B0640002B0704782B003468DF807309DF8073070
:10B0740003F1804301221A6000BF02B0704784B01C
:10B084000346ADF80630BDF8063003F180430022D4
:10B094001A60BDF8063003F180431B680393039BD9
:10B0A40000BF04B0704782B00346ADF80630BDF867
:10B0B400063003F180431B68002B14BF01230023D7
:10B0C400DBB2184602B0704782B003468DF80730F1
:10B0D4004FF080429DF8073003F00303C2F818359F
:10B0E40000BF02B070474FF08043D3F818341B0CF4
:10B0F40003F00103002B14BF01230023DBB2184625
:10B10400704700B583B007238DF807300020FFF7A0
:10B1140079FF034683F00103DBB2002B08D09DF8CE
:10B12400073019460020FFF745FF0020FFF757FFBF
:10B1340000BF03B05DF804FB84B0019000230393C7
:10B14400094B1B79002B02D08523039308E0064AA0
:10B15400019B1360044B01221A71034B00225A71A4
:10B16400039B184604B07047A432002008B5FFF7CB
:10B17400C8FF0120FFF7A8FF00BF08BD08B50C20D9
:10B18400FFF770FF00BFFFF7AEFF0346002BFAD1B5
:10B1940000BF08BD08B54FF48070FFF784FF034675
:10B1A400002B14D04FF48070FFF769FF0120FFF7E4
:10B1B4004FFF114B5B7983F00103DBB2002B06D008
:10B1C4000D4B01225A710C4B1B68002098474FF419
:10B1D4008270FFF768FF0346002B0AD04FF4827099
:10B1E400FFF74DFF0220FFF733FF034B1B680120DD
:10B1F400984700BF08BD00BFA432002082B00346B8
:10B204008DF8073007499DF907305B099DF8072041
:10B2140002F01F02012000FA02F241F8232000BFCD
:10B2240002B0704700E100E082B003468DF80730B9
:10B2340008499DF907305B099DF8072002F01F02B9
:10B24400012000FA02F2603341F8232000BF02B06B
:10B25400704700BF00E100E082B0034600918DF822
:10B2640007309DF90730002B0CDA0D499DF80730A3
:10B2740003F00F03043B009AD2B25201D2B20B4442
:10B284001A7609E007499DF90730009AD2B25201B3
:10B29400D2B20B4483F8002300BF02B0704700BF52
:10B2A40000ED00E000E100E000B583B003460A468B
:10B2B4008DF8073013468DF806309DF806209DF969
:10B2C400073011461846FFF7C7FF00BF03B05DF80B
:10B2D40004FB00B583B003468DF807309DF90730B1
:10B2E4001846FFF7A1FF9DF907301846FFF786FFC0
:10B2F40000BF03B05DF804FB00B583B00346ADF8AE
:10B304000630BDF80630184600F026F803461B68E0
:10B31400012B0CBF01230023DBB2184603B05DF8F8
:10B3240004FB00B585B00346ADF80630BDF8063021
:10B33400184600F011F803461A4600231360BDF8BE
:10B344000630184600F008F803461B680393039B75
:10B3540000BF05B05DF804FB82B00346ADF80630CB
:10B36400BDF8063003F1804303F5C043184602B02C
:10B374007047000082B00190034A019BC2F8043375
:10B3840000BF02B0704700BF0060004082B001906F
:10B39400034BD3F80423019B1340184602B07047B3
:10B3A4000060004082B001900849084A019B03F5FF
:10B3B400A27352F8233043F00102019B03F5A273F8
:10B3C40041F8232000BF02B0704700BF0060004076
:10B3D40084B00390029113468DF807301449144A3F
:10B3E400039B03F5A27352F8233023F4473323F469
:10B3F4004073039A02F5A27241F822300C480C4AB9
:10B40400039B03F5A27352F82320029B1B0203F44F
:10B41400F8519DF807301B0403F440330B431A43DF
:10B42400039B03F5A27340F8232000BF04B07047C8
:10B434000060004082B00190054A019B03F5A273AD
:10B4440052F823301B0A03F01F03184602B070475A
:10B454000060004082B00190064A019B03F5A2738C
:10B4640052F823301B0C03F00303DBB2184602B07E
:10B47400704700BF0060004082B001904FF0A043CD
:10B48400184602B0704700B585B0019008461146D1
:10B494001A4603468DF803300B468DF802301346E6
:10B4A4008DF8013001AB1846FFF7E6FF0390019ACF
:10B4B4009DF803109DF802305B0019439DF801309C
:10B4C4009B0019439DF818301B0219439DF81C304A
:10B4D4001B041943039B02F5E07243F8221000BFDA
:10B4E40005B05DF804FB00B585B003900B468DF8FC
:10B4F4000B309DF80B200023019300230093134687
:10B50400002200210398FFF7BEFF00BF05B05DF8DD
:10B5140004FB00B585B0019001AB1846FFF7ACFF02
:10B524000390019A039B02F5E07253F8223023F052
:10B5340002030293019A039B02F5E072029943F815
:10B54400221000BF05B05DF804FB00B585B0019082
:10B554000B468DF8033001AB1846FFF78DFF0390BF
:10B56400019A0199039B01F5E07153F8213023F40A
:10B574004031039B02F5E07243F82210019A0199CD
:10B58400039B01F5E07153F821309DF80310090481
:10B594001943039B02F5E07243F8221000BF05B083
:10B5A4005DF804FB00B585B0019001AB1846FFF7C8
:10B5B40063FF0390039800F020F80246019B22FAEF
:10B5C40003F303F00103184605B05DF804FB00B56E
:10B5D40085B0019001AB1846FFF74EFF0390019A26
:10B5E400039B02F5E07253F822301B0C03F00303B3
:10B5F400DBB2184605B05DF804FB82B00190019BF4
:10B60400D3F81035184602B0704700B587B00390E0
:10B61400029101924FF0A0430493039B059311E020
:10B62400059B9B0006AA134453F8083C1846FFF7F1
:10B63400E4FF0246019B1A60019B04330193059BBE
:10B6440001330593039A029B1A44059B9A42E7D857
:10B6540000BF07B05DF804FB84B001900091009B2B
:10B664000393019BDB080293019B03F007030193FF
:10B674000122019B02FA03F30399029A0A44127805
:10B684001340184604B0704784B001900091009BA9
:10B694000393019BDB080293019B03F007030193CF
:10B6A400039A029B13440399029A0A44127851B2F2
:10B6B4000120019A00FA02F252B20A4352B2D2B203
:10B6C4001A7000BF04B0704782B001900C4A019B0D
:10B6D4001344303393F90030002B09DB084A019BF3
:10B6E4001344303393F90030072B01DC012300E0CD
:10B6F400002303F00103DBB2184602B0704700BF19
:10B70400AC32002082B00190064A019B13443033CE
:10B7140093F90030072BCCBF01230023DBB218467A
:10B7240002B07047AC32002082B00190064A019BFF
:10B734001344303393F90030DB43DBB2DB09DBB273
:10B74400184602B0704700BFAC32002084B00390AA
:10B75400029101928DF80330029B59B20E4A039B69
:10B76400134430330A461A700B49029B019A41F87C
:10B7740023209DF8033083F00103DBB2002B08D0B3
:10B78400029B083B039A51B2034A13440A4683F8C6
:10B79400502000BF04B07047AC32002082B001904A
:10B7A400044A019B13443033FF221A7000BF02B0D5
:10B7B400704700BFAC32002000B583B0019004494B
:10B7C4000198FFF761FF00BF03B05DF804FB00BF01
:10B7D4000033002082B00190044A019B13443033AB
:10B7E40093F90030184602B0704700BFAC32002015
:10B7F40082B00190034A019B52F82330184602B0EC
:10B80400704700BFAC32002000B589B003900291AC
:10B8140013468DF80730FF238DF81F309DF807304D
:10B82400002B01D0002300E0082305939DF8073086
:10B83400002B01D0082300E00C230493059B0693FE
:10B8440014E00F4A069B52F82330B3F1FF3F0AD1AC
:10B854009DF80730029A06990398FFF777FF069B35
:10B864008DF81F3006E0069B01330693069A049B6D
:10B874009A42E6D39DF91F30184609B05DF804FBDF
:10B88400AC32002082B003468DF807309DF80730B3
:10B89400094A4FF0FF3142F823109DF80730072B77
:10B8A40007D99DF80730083B034A1344FF2283F865
:10B8B400502000BF02B07047AC32002000B583B006
:10B8C400254B93F85830002B03D008230093009B9A
:10B8D4003EE000238DF8073009E09DF80730184654
:10B8E400FFF75CFF9DF8073001338DF807309DF8B2
:10B8F40007301F2BF1D900238DF8073009E09DF89C
:10B9040007301846FFF7BEFF9DF8073001338DF866
:10B9140007309DF807300B2BF1D9042200210F4882
:10B9240008F098F907210620FFF7BEFC0620FFF770
:10B93400D0FC4FF4BE70FFF7F4FC4FF00040FFF76B
:10B9440019FD054B012283F8582000230093009B26
:10B95400184603B05DF804FBAC320020003300202D
:10B96400044B93F85830002B14BF01230023DBB29F
:10B9740018467047AC32002000B587B0039002919E
:10B984000192002305930398FFF7CEFE0346002B94
:10B9940002D00823059357E0029B9B78C3F340032E
:10B9A400DBB21A4601990398FFF72EFF03468DF880
:10B9B40013309DF91330B3F1FF3F43D0029B9B78C2
:10B9C400C3F38003DBB283F00103DBB2002B13D09B
:10B9D400029B9B7803F00103DBB2002B03D0039896
:10B9E400FFF797FD05E0029B5B7819460398FFF784
:10B9F4007AFD0398FFF7E0FE029B9B7803F00203B5
:10BA0400DBB2002B08D09DF91300029B1B781A4669
:10BA14000399FFF7DDFC17E09DF91330083B9DF90E
:10BA24001320083A0B490A4492F95010029A1278EA
:10BA3400920152B20A4351B2064A13440A4683F8A9
:10BA4400502001E004230593059B184607B05DF8D8
:10BA540004FB00BFAC32002000B587B001900B4658
:10BA64008DF803300198FFF74DFE0346002B2FD0CD
:10BA74000198FFF7AFFE0346083B304A134493F99D
:10BA840050308DF816309DF816309B098DF815301E
:10BA94009DF81530032B0BD10198FFF783FD034666
:10BAA400002B01D0032300E002238DF8173008E0B7
:10BAB4009DF81530012B01D1022300E003238DF8FA
:10BAC40017309DF8173019460198FFF73EFD30E016
